{
  "contractName": "CappedCrowdsaleImpl",
  "abi": [
    {
      "constant": true,
      "inputs": [],
      "name": "rate",
      "outputs": [
        {
          "name": "",
          "type": "uint256"
        }
      ],
      "payable": false,
      "stateMutability": "view",
      "type": "function"
    },
    {
      "constant": true,
      "inputs": [],
      "name": "endTime",
      "outputs": [
        {
          "name": "",
          "type": "uint256"
        }
      ],
      "payable": false,
      "stateMutability": "view",
      "type": "function"
    },
    {
      "constant": true,
      "inputs": [],
      "name": "cap",
      "outputs": [
        {
          "name": "",
          "type": "uint256"
        }
      ],
      "payable": false,
      "stateMutability": "view",
      "type": "function"
    },
    {
      "constant": true,
      "inputs": [],
      "name": "weiRaised",
      "outputs": [
        {
          "name": "",
          "type": "uint256"
        }
      ],
      "payable": false,
      "stateMutability": "view",
      "type": "function"
    },
    {
      "constant": true,
      "inputs": [],
      "name": "wallet",
      "outputs": [
        {
          "name": "",
          "type": "address"
        }
      ],
      "payable": false,
      "stateMutability": "view",
      "type": "function"
    },
    {
      "constant": true,
      "inputs": [],
      "name": "startTime",
      "outputs": [
        {
          "name": "",
          "type": "uint256"
        }
      ],
      "payable": false,
      "stateMutability": "view",
      "type": "function"
    },
    {
      "constant": false,
      "inputs": [
        {
          "name": "beneficiary",
          "type": "address"
        }
      ],
      "name": "buyTokens",
      "outputs": [],
      "payable": true,
      "stateMutability": "payable",
      "type": "function"
    },
    {
      "constant": true,
      "inputs": [],
      "name": "hasEnded",
      "outputs": [
        {
          "name": "",
          "type": "bool"
        }
      ],
      "payable": false,
      "stateMutability": "view",
      "type": "function"
    },
    {
      "constant": true,
      "inputs": [],
      "name": "token",
      "outputs": [
        {
          "name": "",
          "type": "address"
        }
      ],
      "payable": false,
      "stateMutability": "view",
      "type": "function"
    },
    {
      "inputs": [
        {
          "name": "_startTime",
          "type": "uint256"
        },
        {
          "name": "_endTime",
          "type": "uint256"
        },
        {
          "name": "_rate",
          "type": "uint256"
        },
        {
          "name": "_wallet",
          "type": "address"
        },
        {
          "name": "_cap",
          "type": "uint256"
        }
      ],
      "payable": false,
      "stateMutability": "nonpayable",
      "type": "constructor"
    },
    {
      "payable": true,
      "stateMutability": "payable",
      "type": "fallback"
    },
    {
      "anonymous": false,
      "inputs": [
        {
          "indexed": true,
          "name": "purchaser",
          "type": "address"
        },
        {
          "indexed": true,
          "name": "beneficiary",
          "type": "address"
        },
        {
          "indexed": false,
          "name": "value",
          "type": "uint256"
        },
        {
          "indexed": false,
          "name": "amount",
          "type": "uint256"
        }
      ],
      "name": "TokenPurchase",
      "type": "event"
    }
  ],
  "bytecode": "0x608060405234801561001057600080fd5b5060405160a080610fdb833981016040908152815160208301519183015160608401516080909401519193909180858585854284101561004f57600080fd5b8383101561005c57600080fd5b6000821161006957600080fd5b600160a060020a038116151561007e57600080fd5b61008f6401000000006100e5810204565b60008054600160a060020a0319908116600160a060020a039384161782556001969096556002949094556004929092556003805490941691161790915581116100d757600080fd5b600655506101219350505050565b60006100ef610111565b604051809103906000f08015801561010b573d6000803e3d6000fd5b50905090565b604051610a3a806105a183390190565b610471806101306000396000f3006080604052600436106100985763ffffffff7c01000000000000000000000000000000000000000000000000000000006000350416632c4e722e81146100a35780633197cbb6146100ca578063355274ea146100df5780634042b66f146100f4578063521eb2731461010957806378e979251461013a578063ec8ac4d81461014f578063ecb70fb714610163578063fc0c546a1461018c575b6100a1336101a1565b005b3480156100af57600080fd5b506100b86102e4565b60408051918252519081900360200190f35b3480156100d657600080fd5b506100b86102ea565b3480156100eb57600080fd5b506100b86102f0565b34801561010057600080fd5b506100b86102f6565b34801561011557600080fd5b5061011e6102fc565b60408051600160a060020a039092168252519081900360200190f35b34801561014657600080fd5b506100b861030b565b6100a1600160a060020a03600435166101a1565b34801561016f57600080fd5b50610178610311565b604080519115158252519081900360200190f35b34801561019857600080fd5b5061011e610331565b600080600160a060020a03831615156101b957600080fd5b6101c1610340565b15156101cc57600080fd5b3491506101d88261036f565b6005549091506101ee908363ffffffff61038c16565b60055560008054604080517f40c10f19000000000000000000000000000000000000000000000000000000008152600160a060020a03878116600483015260248201869052915191909216926340c10f1992604480820193602093909283900390910190829087803b15801561026357600080fd5b505af1158015610277573d6000803e3d6000fd5b505050506040513d602081101561028d57600080fd5b505060408051838152602081018390528151600160a060020a0386169233927f623b3804fa71d67900d064613da8f94b9617215ee90799290593e1745087ad18929081900390910190a36102df6103a6565b505050565b60045481565b60025481565b60065481565b60055481565b600354600160a060020a031681565b60015481565b6006546005546000911115808061032b575061032b6103e2565b91505090565b600054600160a060020a031681565b60008060065461035b3460055461038c90919063ffffffff16565b1115905080801561032b575061032b6103ea565b60006103866004548361041a90919063ffffffff16565b92915050565b60008282018381101561039b57fe5b8091505b5092915050565b600354604051600160a060020a03909116903480156108fc02916000818181858888f193505050501580156103df573d6000803e3d6000fd5b50565b600254421190565b6000806000600154421015801561040357506002544211155b9150503415158180156104135750805b9250505090565b60008083151561042d576000915061039f565b5082820282848281151561043d57fe5b041461039b57fe00a165627a7a72305820dba53bc8bf7a519be8a07cf055deabe48cf8e7a07ecb2bb4403500d2a2ca6a540029608060405260038054600160a860020a03191633179055610a15806100256000396000f3006080604052600436106100c45763ffffffff7c010000000000000000000000000000000000000000000000000000000060003504166305d2035b81146100c9578063095ea7b3146100f257806318160ddd1461011657806323b872dd1461013d57806340c10f1914610167578063661884631461018b57806370a08231146101af5780637d64bcb4146101d05780638da5cb5b146101e5578063a9059cbb14610216578063d73dd6231461023a578063dd62ed3e1461025e578063f2fde38b14610285575b600080fd5b3480156100d557600080fd5b506100de6102a8565b604080519115158252519081900360200190f35b3480156100fe57600080fd5b506100de600160a060020a03600435166024356102c9565b34801561012257600080fd5b5061012b61032f565b60408051918252519081900360200190f35b34801561014957600080fd5b506100de600160a060020a0360043581169060243516604435610335565b34801561017357600080fd5b506100de600160a060020a03600435166024356104ac565b34801561019757600080fd5b506100de600160a060020a03600435166024356105c7565b3480156101bb57600080fd5b5061012b600160a060020a03600435166106b7565b3480156101dc57600080fd5b506100de6106d2565b3480156101f157600080fd5b506101fa610778565b60408051600160a060020a039092168252519081900360200190f35b34801561022257600080fd5b506100de600160a060020a0360043516602435610787565b34801561024657600080fd5b506100de600160a060020a0360043516602435610868565b34801561026a57600080fd5b5061012b600160a060020a0360043581169060243516610901565b34801561029157600080fd5b506102a6600160a060020a036004351661092c565b005b60035474010000000000000000000000000000000000000000900460ff1681565b336000818152600260209081526040808320600160a060020a038716808552908352818420869055815186815291519394909390927f8c5be1e5ebec7d5bd14f71427d1e84f3dd0314c0f7b2291e5b200ac8c7c3b925928290030190a350600192915050565b60015490565b6000600160a060020a038316151561034c57600080fd5b600160a060020a03841660009081526020819052604090205482111561037157600080fd5b600160a060020a03841660009081526002602090815260408083203384529091529020548211156103a157600080fd5b600160a060020a0384166000908152602081905260409020546103ca908363ffffffff6109c116565b600160a060020a0380861660009081526020819052604080822093909355908516815220546103ff908363ffffffff6109d316565b600160a060020a03808516600090815260208181526040808320949094559187168152600282528281203382529091522054610441908363ffffffff6109c116565b600160a060020a03808616600081815260026020908152604080832033845282529182902094909455805186815290519287169391927fddf252ad1be2c89b69c2b068fc378daa952ba7f163c4a11628f55a4df523b3ef929181900390910190a35060019392505050565b600354600090600160a060020a031633146104c657600080fd5b60035474010000000000000000000000000000000000000000900460ff16156104ee57600080fd5b600154610501908363ffffffff6109d316565b600155600160a060020a03831660009081526020819052604090205461052d908363ffffffff6109d316565b600160a060020a03841660008181526020818152604091829020939093558051858152905191927f0f6798a560793a54c3bcfe86a93cde1e73087d944c0ea20544137d412139688592918290030190a2604080518381529051600160a060020a038516916000917fddf252ad1be2c89b69c2b068fc378daa952ba7f163c4a11628f55a4df523b3ef9181900360200190a350600192915050565b336000908152600260209081526040808320600160a060020a03861684529091528120548083111561061c57336000908152600260209081526040808320600160a060020a0388168452909152812055610651565b61062c818463ffffffff6109c116565b336000908152600260209081526040808320600160a060020a03891684529091529020555b336000818152600260209081526040808320600160a060020a0389168085529083529281902054815190815290519293927f8c5be1e5ebec7d5bd14f71427d1e84f3dd0314c0f7b2291e5b200ac8c7c3b925929181900390910190a35060019392505050565b600160a060020a031660009081526020819052604090205490565b600354600090600160a060020a031633146106ec57600080fd5b60035474010000000000000000000000000000000000000000900460ff161561071457600080fd5b6003805474ff00000000000000000000000000000000000000001916740100000000000000000000000000000000000000001790556040517fae5184fba832cb2b1f702aca6117b8d265eaf03ad33eb133f19dde0f5920fa0890600090a150600190565b600354600160a060020a031681565b6000600160a060020a038316151561079e57600080fd5b336000908152602081905260409020548211156107ba57600080fd5b336000908152602081905260409020546107da908363ffffffff6109c116565b3360009081526020819052604080822092909255600160a060020a0385168152205461080c908363ffffffff6109d316565b600160a060020a038416600081815260208181526040918290209390935580518581529051919233927fddf252ad1be2c89b69c2b068fc378daa952ba7f163c4a11628f55a4df523b3ef9281900390910190a350600192915050565b336000908152600260209081526040808320600160a060020a038616845290915281205461089c908363ffffffff6109d316565b336000818152600260209081526040808320600160a060020a0389168085529083529281902085905580519485525191937f8c5be1e5ebec7d5bd14f71427d1e84f3dd0314c0f7b2291e5b200ac8c7c3b925929081900390910190a350600192915050565b600160a060020a03918216600090815260026020908152604080832093909416825291909152205490565b600354600160a060020a0316331461094357600080fd5b600160a060020a038116151561095857600080fd5b600354604051600160a060020a038084169216907f8be0079c531659141344cd1fd0a4f28419497f9722a3daafe3b4186f6b6457e090600090a36003805473ffffffffffffffffffffffffffffffffffffffff1916600160a060020a0392909216919091179055565b6000828211156109cd57fe5b50900390565b6000828201838110156109e257fe5b93925050505600a165627a7a723058207aeee622b1a820936e678eaeeecf6cd8a95bbae667c8c94248a931692eb7b9920029",
  "source": "pragma solidity ^0.4.18;\n\n\nimport \"../crowdsale/CappedCrowdsale.sol\";\n\n\ncontract CappedCrowdsaleImpl is CappedCrowdsale {\n\n  function CappedCrowdsaleImpl (\n    uint256 _startTime,\n    uint256 _endTime,\n    uint256 _rate,\n    address _wallet,\n    uint256 _cap\n  ) public\n    Crowdsale(_startTime, _endTime, _rate, _wallet)\n    CappedCrowdsale(_cap)\n  {\n  }\n\n}\n",
  "sourcePath": "/Users/pjh/workspace/rbg-crowdsale/project/contracts/base/zeppelin/mocks/CappedCrowdsaleImpl.sol",
  "compiler": {
    "name": "solc",
    "version": "0.4.24+commit.e67f0147.Emscripten.clang"
  },
  "schemaVersion": "2.0.0",
  "updatedAt": "2018-06-03T08:58:08.954Z"
}