{
  "contractName": "Crowdsale",
  "abi": [
    {
      "constant": true,
      "inputs": [],
      "name": "rate",
      "outputs": [
        {
          "name": "",
          "type": "uint256"
        }
      ],
      "payable": false,
      "stateMutability": "view",
      "type": "function"
    },
    {
      "constant": true,
      "inputs": [],
      "name": "endTime",
      "outputs": [
        {
          "name": "",
          "type": "uint256"
        }
      ],
      "payable": false,
      "stateMutability": "view",
      "type": "function"
    },
    {
      "constant": true,
      "inputs": [],
      "name": "weiRaised",
      "outputs": [
        {
          "name": "",
          "type": "uint256"
        }
      ],
      "payable": false,
      "stateMutability": "view",
      "type": "function"
    },
    {
      "constant": true,
      "inputs": [],
      "name": "wallet",
      "outputs": [
        {
          "name": "",
          "type": "address"
        }
      ],
      "payable": false,
      "stateMutability": "view",
      "type": "function"
    },
    {
      "constant": true,
      "inputs": [],
      "name": "startTime",
      "outputs": [
        {
          "name": "",
          "type": "uint256"
        }
      ],
      "payable": false,
      "stateMutability": "view",
      "type": "function"
    },
    {
      "constant": true,
      "inputs": [],
      "name": "token",
      "outputs": [
        {
          "name": "",
          "type": "address"
        }
      ],
      "payable": false,
      "stateMutability": "view",
      "type": "function"
    },
    {
      "inputs": [
        {
          "name": "_startTime",
          "type": "uint256"
        },
        {
          "name": "_endTime",
          "type": "uint256"
        },
        {
          "name": "_rate",
          "type": "uint256"
        },
        {
          "name": "_wallet",
          "type": "address"
        }
      ],
      "payable": false,
      "stateMutability": "nonpayable",
      "type": "constructor"
    },
    {
      "payable": true,
      "stateMutability": "payable",
      "type": "fallback"
    },
    {
      "anonymous": false,
      "inputs": [
        {
          "indexed": true,
          "name": "purchaser",
          "type": "address"
        },
        {
          "indexed": true,
          "name": "beneficiary",
          "type": "address"
        },
        {
          "indexed": false,
          "name": "value",
          "type": "uint256"
        },
        {
          "indexed": false,
          "name": "amount",
          "type": "uint256"
        }
      ],
      "name": "TokenPurchase",
      "type": "event"
    },
    {
      "constant": false,
      "inputs": [
        {
          "name": "beneficiary",
          "type": "address"
        }
      ],
      "name": "buyTokens",
      "outputs": [],
      "payable": true,
      "stateMutability": "payable",
      "type": "function"
    },
    {
      "constant": true,
      "inputs": [],
      "name": "hasEnded",
      "outputs": [
        {
          "name": "",
          "type": "bool"
        }
      ],
      "payable": false,
      "stateMutability": "view",
      "type": "function"
    }
  ],
  "bytecode": "0x608060405234801561001057600080fd5b50604051608080610f4783398101604090815281516020830151918301516060909301519092904284101561004457600080fd5b8383101561005157600080fd5b6000821161005e57600080fd5b600160a060020a038116151561007357600080fd5b6100846401000000006100c6810204565b60008054600160a060020a0319908116600160a060020a0393841617909155600195909555600293909355600491909155600380549093169116179055610102565b60006100d06100f2565b604051809103906000f0801580156100ec573d6000803e3d6000fd5b50905090565b604051610a3a8061050d83390190565b6103fc806101116000396000f30060806040526004361061008d5763ffffffff7c01000000000000000000000000000000000000000000000000000000006000350416632c4e722e81146100985780633197cbb6146100bf5780634042b66f146100d4578063521eb273146100e957806378e979251461011a578063ec8ac4d81461012f578063ecb70fb714610143578063fc0c546a1461016c575b61009633610181565b005b3480156100a457600080fd5b506100ad6102c4565b60408051918252519081900360200190f35b3480156100cb57600080fd5b506100ad6102ca565b3480156100e057600080fd5b506100ad6102d0565b3480156100f557600080fd5b506100fe6102d6565b60408051600160a060020a039092168252519081900360200190f35b34801561012657600080fd5b506100ad6102e5565b610096600160a060020a0360043516610181565b34801561014f57600080fd5b506101586102eb565b604080519115158252519081900360200190f35b34801561017857600080fd5b506100fe6102f3565b600080600160a060020a038316151561019957600080fd5b6101a1610302565b15156101ac57600080fd5b3491506101b882610332565b6005549091506101ce908363ffffffff61034f16565b60055560008054604080517f40c10f19000000000000000000000000000000000000000000000000000000008152600160a060020a03878116600483015260248201869052915191909216926340c10f1992604480820193602093909283900390910190829087803b15801561024357600080fd5b505af1158015610257573d6000803e3d6000fd5b505050506040513d602081101561026d57600080fd5b505060408051838152602081018390528151600160a060020a0386169233927f623b3804fa71d67900d064613da8f94b9617215ee90799290593e1745087ad18929081900390910190a36102bf610369565b505050565b60045481565b60025481565b60055481565b600354600160a060020a031681565b60015481565b600254421190565b600054600160a060020a031681565b6000806000600154421015801561031b57506002544211155b91505034151581801561032b5750805b9250505090565b6000610349600454836103a590919063ffffffff16565b92915050565b60008282018381101561035e57fe5b8091505b5092915050565b600354604051600160a060020a03909116903480156108fc02916000818181858888f193505050501580156103a2573d6000803e3d6000fd5b50565b6000808315156103b85760009150610362565b508282028284828115156103c857fe5b041461035e57fe00a165627a7a72305820754b198b6ff3f8f752568f5cfdd33a08044c2d48928bea353ff36bbc1e8ac7870029608060405260038054600160a860020a03191633179055610a15806100256000396000f3006080604052600436106100c45763ffffffff7c010000000000000000000000000000000000000000000000000000000060003504166305d2035b81146100c9578063095ea7b3146100f257806318160ddd1461011657806323b872dd1461013d57806340c10f1914610167578063661884631461018b57806370a08231146101af5780637d64bcb4146101d05780638da5cb5b146101e5578063a9059cbb14610216578063d73dd6231461023a578063dd62ed3e1461025e578063f2fde38b14610285575b600080fd5b3480156100d557600080fd5b506100de6102a8565b604080519115158252519081900360200190f35b3480156100fe57600080fd5b506100de600160a060020a03600435166024356102c9565b34801561012257600080fd5b5061012b61032f565b60408051918252519081900360200190f35b34801561014957600080fd5b506100de600160a060020a0360043581169060243516604435610335565b34801561017357600080fd5b506100de600160a060020a03600435166024356104ac565b34801561019757600080fd5b506100de600160a060020a03600435166024356105c7565b3480156101bb57600080fd5b5061012b600160a060020a03600435166106b7565b3480156101dc57600080fd5b506100de6106d2565b3480156101f157600080fd5b506101fa610778565b60408051600160a060020a039092168252519081900360200190f35b34801561022257600080fd5b506100de600160a060020a0360043516602435610787565b34801561024657600080fd5b506100de600160a060020a0360043516602435610868565b34801561026a57600080fd5b5061012b600160a060020a0360043581169060243516610901565b34801561029157600080fd5b506102a6600160a060020a036004351661092c565b005b60035474010000000000000000000000000000000000000000900460ff1681565b336000818152600260209081526040808320600160a060020a038716808552908352818420869055815186815291519394909390927f8c5be1e5ebec7d5bd14f71427d1e84f3dd0314c0f7b2291e5b200ac8c7c3b925928290030190a350600192915050565b60015490565b6000600160a060020a038316151561034c57600080fd5b600160a060020a03841660009081526020819052604090205482111561037157600080fd5b600160a060020a03841660009081526002602090815260408083203384529091529020548211156103a157600080fd5b600160a060020a0384166000908152602081905260409020546103ca908363ffffffff6109c116565b600160a060020a0380861660009081526020819052604080822093909355908516815220546103ff908363ffffffff6109d316565b600160a060020a03808516600090815260208181526040808320949094559187168152600282528281203382529091522054610441908363ffffffff6109c116565b600160a060020a03808616600081815260026020908152604080832033845282529182902094909455805186815290519287169391927fddf252ad1be2c89b69c2b068fc378daa952ba7f163c4a11628f55a4df523b3ef929181900390910190a35060019392505050565b600354600090600160a060020a031633146104c657600080fd5b60035474010000000000000000000000000000000000000000900460ff16156104ee57600080fd5b600154610501908363ffffffff6109d316565b600155600160a060020a03831660009081526020819052604090205461052d908363ffffffff6109d316565b600160a060020a03841660008181526020818152604091829020939093558051858152905191927f0f6798a560793a54c3bcfe86a93cde1e73087d944c0ea20544137d412139688592918290030190a2604080518381529051600160a060020a038516916000917fddf252ad1be2c89b69c2b068fc378daa952ba7f163c4a11628f55a4df523b3ef9181900360200190a350600192915050565b336000908152600260209081526040808320600160a060020a03861684529091528120548083111561061c57336000908152600260209081526040808320600160a060020a0388168452909152812055610651565b61062c818463ffffffff6109c116565b336000908152600260209081526040808320600160a060020a03891684529091529020555b336000818152600260209081526040808320600160a060020a0389168085529083529281902054815190815290519293927f8c5be1e5ebec7d5bd14f71427d1e84f3dd0314c0f7b2291e5b200ac8c7c3b925929181900390910190a35060019392505050565b600160a060020a031660009081526020819052604090205490565b600354600090600160a060020a031633146106ec57600080fd5b60035474010000000000000000000000000000000000000000900460ff161561071457600080fd5b6003805474ff00000000000000000000000000000000000000001916740100000000000000000000000000000000000000001790556040517fae5184fba832cb2b1f702aca6117b8d265eaf03ad33eb133f19dde0f5920fa0890600090a150600190565b600354600160a060020a031681565b6000600160a060020a038316151561079e57600080fd5b336000908152602081905260409020548211156107ba57600080fd5b336000908152602081905260409020546107da908363ffffffff6109c116565b3360009081526020819052604080822092909255600160a060020a0385168152205461080c908363ffffffff6109d316565b600160a060020a038416600081815260208181526040918290209390935580518581529051919233927fddf252ad1be2c89b69c2b068fc378daa952ba7f163c4a11628f55a4df523b3ef9281900390910190a350600192915050565b336000908152600260209081526040808320600160a060020a038616845290915281205461089c908363ffffffff6109d316565b336000818152600260209081526040808320600160a060020a0389168085529083529281902085905580519485525191937f8c5be1e5ebec7d5bd14f71427d1e84f3dd0314c0f7b2291e5b200ac8c7c3b925929081900390910190a350600192915050565b600160a060020a03918216600090815260026020908152604080832093909416825291909152205490565b600354600160a060020a0316331461094357600080fd5b600160a060020a038116151561095857600080fd5b600354604051600160a060020a038084169216907f8be0079c531659141344cd1fd0a4f28419497f9722a3daafe3b4186f6b6457e090600090a36003805473ffffffffffffffffffffffffffffffffffffffff1916600160a060020a0392909216919091179055565b6000828211156109cd57fe5b50900390565b6000828201838110156109e257fe5b93925050505600a165627a7a723058207aeee622b1a820936e678eaeeecf6cd8a95bbae667c8c94248a931692eb7b9920029",
  "source": "pragma solidity ^0.4.18;\n\nimport \"../token/MintableToken.sol\";\nimport \"../math/SafeMath.sol\";\n\n\n/**\n * @title Crowdsale\n * @dev Crowdsale is a base contract for managing a token crowdsale.\n * Crowdsales have a start and end timestamps, where investors can make\n * token purchases and the crowdsale will assign them tokens based\n * on a token per ETH rate. Funds collected are forwarded to a wallet\n * as they arrive.\n */\ncontract Crowdsale {\n  using SafeMath for uint256;\n\n  // The token being sold\n  MintableToken public token;\n\n  // start and end timestamps where investments are allowed (both inclusive)\n  uint256 public startTime;\n  uint256 public endTime;\n\n  // address where funds are collected\n  address public wallet;\n\n  // how many token units a buyer gets per wei\n  uint256 public rate;\n\n  // amount of raised money in wei\n  uint256 public weiRaised;\n\n  /**\n   * event for token purchase logging\n   * @param purchaser who paid for the tokens\n   * @param beneficiary who got the tokens\n   * @param value weis paid for purchase\n   * @param amount amount of tokens purchased\n   */\n  event TokenPurchase(address indexed purchaser, address indexed beneficiary, uint256 value, uint256 amount);\n\n\n  function Crowdsale(uint256 _startTime, uint256 _endTime, uint256 _rate, address _wallet) public {\n    require(_startTime >= now);\n    require(_endTime >= _startTime);\n    require(_rate > 0);\n    require(_wallet != address(0));\n\n    token = createTokenContract();\n    startTime = _startTime;\n    endTime = _endTime;\n    rate = _rate;\n    wallet = _wallet;\n  }\n\n  // fallback function can be used to buy tokens\n  function () external payable {\n    buyTokens(msg.sender);\n  }\n\n  // low level token purchase function\n  function buyTokens(address beneficiary) public payable {\n    require(beneficiary != address(0));\n    require(validPurchase());\n\n    uint256 weiAmount = msg.value;\n\n    // calculate token amount to be created\n    uint256 tokens = getTokenAmount(weiAmount);\n\n    // update state\n    weiRaised = weiRaised.add(weiAmount);\n\n    token.mint(beneficiary, tokens);\n    TokenPurchase(msg.sender, beneficiary, weiAmount, tokens);\n\n    forwardFunds();\n  }\n\n  // @return true if crowdsale event has ended\n  function hasEnded() public view returns (bool) {\n    return now > endTime;\n  }\n\n  // creates the token to be sold.\n  // override this method to have crowdsale of a specific mintable token.\n  function createTokenContract() internal returns (MintableToken) {\n    return new MintableToken();\n  }\n\n  // Override this method to have a way to add business logic to your crowdsale when buying\n  function getTokenAmount(uint256 weiAmount) internal view returns(uint256) {\n    return weiAmount.mul(rate);\n  }\n\n  // send ether to the fund collection wallet\n  // override to create custom fund forwarding mechanisms\n  function forwardFunds() internal {\n    wallet.transfer(msg.value);\n  }\n\n  // @return true if the transaction can buy tokens\n  function validPurchase() internal view returns (bool) {\n    bool withinPeriod = now >= startTime && now <= endTime;\n    bool nonZeroPurchase = msg.value != 0;\n    return withinPeriod && nonZeroPurchase;\n  }\n\n}\n",
  "sourcePath": "/Users/pjh/workspace/rbg-crowdsale/project/contracts/base/zeppelin/crowdsale/Crowdsale.sol",
  "compiler": {
    "name": "solc",
    "version": "0.4.24+commit.e67f0147.Emscripten.clang"
  },
  "schemaVersion": "2.0.0",
  "updatedAt": "2018-06-03T08:58:08.947Z"
}