{
  "contractName": "DayLimitMock",
  "abi": [
    {
      "constant": true,
      "inputs": [],
      "name": "dailyLimit",
      "outputs": [
        {
          "name": "",
          "type": "uint256"
        }
      ],
      "payable": false,
      "stateMutability": "view",
      "type": "function"
    },
    {
      "constant": true,
      "inputs": [],
      "name": "totalSpending",
      "outputs": [
        {
          "name": "",
          "type": "uint256"
        }
      ],
      "payable": false,
      "stateMutability": "view",
      "type": "function"
    },
    {
      "constant": true,
      "inputs": [],
      "name": "lastDay",
      "outputs": [
        {
          "name": "",
          "type": "uint256"
        }
      ],
      "payable": false,
      "stateMutability": "view",
      "type": "function"
    },
    {
      "constant": true,
      "inputs": [],
      "name": "spentToday",
      "outputs": [
        {
          "name": "",
          "type": "uint256"
        }
      ],
      "payable": false,
      "stateMutability": "view",
      "type": "function"
    },
    {
      "inputs": [
        {
          "name": "_value",
          "type": "uint256"
        }
      ],
      "payable": false,
      "stateMutability": "nonpayable",
      "type": "constructor"
    },
    {
      "constant": false,
      "inputs": [
        {
          "name": "_value",
          "type": "uint256"
        }
      ],
      "name": "attemptSpend",
      "outputs": [],
      "payable": false,
      "stateMutability": "nonpayable",
      "type": "function"
    },
    {
      "constant": false,
      "inputs": [
        {
          "name": "_newLimit",
          "type": "uint256"
        }
      ],
      "name": "setDailyLimit",
      "outputs": [],
      "payable": false,
      "stateMutability": "nonpayable",
      "type": "function"
    },
    {
      "constant": false,
      "inputs": [],
      "name": "resetSpentToday",
      "outputs": [],
      "payable": false,
      "stateMutability": "nonpayable",
      "type": "function"
    }
  ],
  "bytecode": "0x608060405234801561001057600080fd5b5060405160208061027e8339810160405251600081905580610039640100000000610048810204565b60025550506000600355610051565b62015180420490565b61021e806100606000396000f3006080604052600436106100825763ffffffff7c01000000000000000000000000000000000000000000000000000000006000350416635c52c2f5811461008757806367eeba0c1461009e5780636997bcab146100c55780636b0c932d146100da578063b20d30a9146100ef578063b349f6c714610107578063f059cf2b1461011f575b600080fd5b34801561009357600080fd5b5061009c610134565b005b3480156100aa57600080fd5b506100b361013e565b60408051918252519081900360200190f35b3480156100d157600080fd5b506100b3610144565b3480156100e657600080fd5b506100b361014a565b3480156100fb57600080fd5b5061009c600435610150565b34801561011357600080fd5b5061009c60043561015c565b34801561012b57600080fd5b506100b361017d565b61013c610183565b565b60005481565b60035481565b60025481565b6101598161018a565b50565b806101668161018f565b151561017157600080fd5b50600380549091019055565b60015481565b6000600155565b600055565b600060025461019c6101e9565b11156101b35760006001556101af6101e9565b6002555b600154828101108015906101cd5750600054826001540111155b156101e0575060018054820181556101e4565b5060005b919050565b620151804204905600a165627a7a72305820e7a40146bfb81153c33ce9b42afc34701a8ab5ffead08a52d50137863173b2b80029",
  "source": "pragma solidity ^0.4.18;\n\nimport \"../DayLimit.sol\";\n\n\ncontract DayLimitMock is DayLimit {\n  uint256 public totalSpending;\n\n  function DayLimitMock(uint256 _value) public DayLimit(_value) {\n    totalSpending = 0;\n  }\n\n  function attemptSpend(uint256 _value) external limitedDaily(_value) {\n    totalSpending += _value;\n  }\n\n  function setDailyLimit(uint256 _newLimit) external {\n    _setDailyLimit(_newLimit);\n  }\n\n  function resetSpentToday() external {\n    _resetSpentToday();\n  }\n\n}\n",
  "sourcePath": "/Users/pjh/workspace/rbg-crowdsale/project/contracts/base/zeppelin/mocks/DayLimitMock.sol",
  "compiler": {
    "name": "solc",
    "version": "0.4.24+commit.e67f0147.Emscripten.clang"
  },
  "schemaVersion": "2.0.0",
  "updatedAt": "2018-06-01T09:11:30.181Z"
}