{
  "contractName": "ECRecoveryMock",
  "abi": [
    {
      "constant": true,
      "inputs": [],
      "name": "addrRecovered",
      "outputs": [
        {
          "name": "",
          "type": "address"
        }
      ],
      "payable": false,
      "stateMutability": "view",
      "type": "function"
    },
    {
      "constant": false,
      "inputs": [
        {
          "name": "hash",
          "type": "bytes32"
        },
        {
          "name": "sig",
          "type": "bytes"
        }
      ],
      "name": "recover",
      "outputs": [
        {
          "name": "",
          "type": "address"
        }
      ],
      "payable": false,
      "stateMutability": "nonpayable",
      "type": "function"
    }
  ],
  "bytecode": "0x608060405234801561001057600080fd5b50610273806100206000396000f30060806040526004361061004b5763ffffffff7c010000000000000000000000000000000000000000000000000000000060003504166319045a25811461005057806375f2566e146100d7575b600080fd5b34801561005c57600080fd5b5060408051602060046024803582810135601f81018590048502860185019096528585526100ae9583359536956044949193909101919081908401838280828437509497506100ec9650505050505050565b6040805173ffffffffffffffffffffffffffffffffffffffff9092168252519081900360200190f35b3480156100e357600080fd5b506100ae61022b565b604080517f19045a25000000000000000000000000000000000000000000000000000000008152600481018481526024820192835283516044830152835160009373__ECRecovery____________________________936319045a25938893889391926064019060208501908083838c5b8381101561017557818101518382015260200161015d565b50505050905090810190601f1680156101a25780820380516001836020036101000a031916815260200191505b50935050505060206040518083038186803b1580156101c057600080fd5b505af41580156101d4573d6000803e3d6000fd5b505050506040513d60208110156101ea57600080fd5b50516000805473ffffffffffffffffffffffffffffffffffffffff191673ffffffffffffffffffffffffffffffffffffffff90921691909117905592915050565b60005473ffffffffffffffffffffffffffffffffffffffff16815600a165627a7a7230582049cfda0e4aad9fcc8427c1b9aaddcab3f12a7e20ed67f7e9d2ec2c23f84a78f10029",
  "source": "pragma solidity ^0.4.18;\n\n\nimport \"../ECRecovery.sol\";\n\n\ncontract ECRecoveryMock {\n  using ECRecovery for bytes32;\n\n  address public addrRecovered;\n\n  function recover(bytes32 hash, bytes sig) public returns (address) {\n    addrRecovered = hash.recover(sig);\n  }\n\n}\n",
  "sourcePath": "/Users/pjh/workspace/rbg-crowdsale/project/contracts/base/zeppelin/mocks/ECRecoveryMock.sol",
  "compiler": {
    "name": "solc",
    "version": "0.4.24+commit.e67f0147.Emscripten.clang"
  },
  "schemaVersion": "2.0.0",
  "updatedAt": "2018-06-01T09:11:30.182Z"
}