{
  "contractName": "ERC223TokenMock",
  "abi": [
    {
      "constant": true,
      "inputs": [],
      "name": "totalSupply",
      "outputs": [
        {
          "name": "",
          "type": "uint256"
        }
      ],
      "payable": false,
      "stateMutability": "view",
      "type": "function"
    },
    {
      "constant": true,
      "inputs": [
        {
          "name": "_owner",
          "type": "address"
        }
      ],
      "name": "balanceOf",
      "outputs": [
        {
          "name": "balance",
          "type": "uint256"
        }
      ],
      "payable": false,
      "stateMutability": "view",
      "type": "function"
    },
    {
      "constant": false,
      "inputs": [
        {
          "name": "_to",
          "type": "address"
        },
        {
          "name": "_value",
          "type": "uint256"
        }
      ],
      "name": "transfer",
      "outputs": [
        {
          "name": "",
          "type": "bool"
        }
      ],
      "payable": false,
      "stateMutability": "nonpayable",
      "type": "function"
    },
    {
      "inputs": [
        {
          "name": "initialAccount",
          "type": "address"
        },
        {
          "name": "initialBalance",
          "type": "uint256"
        }
      ],
      "payable": false,
      "stateMutability": "nonpayable",
      "type": "constructor"
    },
    {
      "anonymous": false,
      "inputs": [
        {
          "indexed": true,
          "name": "from",
          "type": "address"
        },
        {
          "indexed": true,
          "name": "to",
          "type": "address"
        },
        {
          "indexed": false,
          "name": "value",
          "type": "uint256"
        }
      ],
      "name": "Transfer",
      "type": "event"
    },
    {
      "constant": false,
      "inputs": [
        {
          "name": "_to",
          "type": "address"
        },
        {
          "name": "_value",
          "type": "uint256"
        },
        {
          "name": "_data",
          "type": "bytes"
        }
      ],
      "name": "transferERC223",
      "outputs": [
        {
          "name": "success",
          "type": "bool"
        }
      ],
      "payable": false,
      "stateMutability": "nonpayable",
      "type": "function"
    }
  ],
  "bytecode": "0x608060405234801561001057600080fd5b506040516040806104128339810160409081528151602092830151600160a060020a0390911660009081529283905291208190556001556103bc806100566000396000f3006080604052600436106100615763ffffffff7c010000000000000000000000000000000000000000000000000000000060003504166303bad56e811461006657806318160ddd146100e357806370a082311461010a578063a9059cbb1461012b575b600080fd5b34801561007257600080fd5b50604080516020600460443581810135601f81018490048402850184019095528484526100cf948235600160a060020a031694602480359536959460649492019190819084018382808284375094975061014f9650505050505050565b604080519115158252519081900360200190f35b3480156100ef57600080fd5b506100f8610266565b60408051918252519081900360200190f35b34801561011657600080fd5b506100f8600160a060020a036004351661026c565b34801561013757600080fd5b506100cf600160a060020a0360043516602435610287565b600080600061015e8686610287565b50853b15199150811561025a57506040517fc0ee0b8a0000000000000000000000000000000000000000000000000000000081523360048201818152602483018790526060604484019081528651606485015286518994600160a060020a0386169463c0ee0b8a9490938b938b9360840190602085019080838360005b838110156101f35781810151838201526020016101db565b50505050905090810190601f1680156102205780820380516001836020036101000a031916815260200191505b50945050505050600060405180830381600087803b15801561024157600080fd5b505af1158015610255573d6000803e3d6000fd5b505050505b50600195945050505050565b60015490565b600160a060020a031660009081526020819052604090205490565b6000600160a060020a038316151561029e57600080fd5b336000908152602081905260409020548211156102ba57600080fd5b336000908152602081905260409020546102da908363ffffffff61036816565b3360009081526020819052604080822092909255600160a060020a0385168152205461030c908363ffffffff61037a16565b600160a060020a038416600081815260208181526040918290209390935580518581529051919233927fddf252ad1be2c89b69c2b068fc378daa952ba7f163c4a11628f55a4df523b3ef9281900390910190a350600192915050565b60008282111561037457fe5b50900390565b60008282018381101561038957fe5b93925050505600a165627a7a72305820ce395f405e11becba74ecedc1d5e2744d7156cdbbdd23e7f5063fa4d8fc4c6760029",
  "source": "pragma solidity ^0.4.18;\n\n\nimport \"../token/BasicToken.sol\";\n\n\ncontract ERC223ContractInterface {\n  function tokenFallback(address _from, uint256 _value, bytes _data) external;\n}\n\ncontract ERC223TokenMock is BasicToken {\n\n  function ERC223TokenMock(address initialAccount, uint256 initialBalance) public {\n    balances[initialAccount] = initialBalance;\n    totalSupply_ = initialBalance;\n  }\n\n  // ERC223 compatible transfer function (except the name)\n  function transferERC223(address _to, uint256 _value, bytes _data) public\n    returns (bool success)\n  {\n    transfer(_to, _value);\n    bool is_contract = false;\n    assembly {\n      is_contract := not(iszero(extcodesize(_to)))\n    }\n    if (is_contract) {\n      ERC223ContractInterface receiver = ERC223ContractInterface(_to);\n      receiver.tokenFallback(msg.sender, _value, _data);\n    }\n    return true;\n  }\n}\n",
  "sourcePath": "/Users/pjh/workspace/rbg-crowdsale/project/contracts/base/zeppelin/mocks/ERC223TokenMock.sol",
  "compiler": {
    "name": "solc",
    "version": "0.4.24+commit.e67f0147.Emscripten.clang"
  },
  "schemaVersion": "2.0.0",
  "updatedAt": "2018-06-01T09:11:30.183Z"
}