{
  "contractName": "ERC827TokenMock",
  "abi": [
    {
      "constant": false,
      "inputs": [
        {
          "name": "_spender",
          "type": "address"
        },
        {
          "name": "_value",
          "type": "uint256"
        }
      ],
      "name": "approve",
      "outputs": [
        {
          "name": "",
          "type": "bool"
        }
      ],
      "payable": false,
      "stateMutability": "nonpayable",
      "type": "function"
    },
    {
      "constant": false,
      "inputs": [
        {
          "name": "_spender",
          "type": "address"
        },
        {
          "name": "_addedValue",
          "type": "uint256"
        },
        {
          "name": "_data",
          "type": "bytes"
        }
      ],
      "name": "increaseApproval",
      "outputs": [
        {
          "name": "",
          "type": "bool"
        }
      ],
      "payable": false,
      "stateMutability": "nonpayable",
      "type": "function"
    },
    {
      "constant": true,
      "inputs": [],
      "name": "totalSupply",
      "outputs": [
        {
          "name": "",
          "type": "uint256"
        }
      ],
      "payable": false,
      "stateMutability": "view",
      "type": "function"
    },
    {
      "constant": false,
      "inputs": [
        {
          "name": "_from",
          "type": "address"
        },
        {
          "name": "_to",
          "type": "address"
        },
        {
          "name": "_value",
          "type": "uint256"
        }
      ],
      "name": "transferFrom",
      "outputs": [
        {
          "name": "",
          "type": "bool"
        }
      ],
      "payable": false,
      "stateMutability": "nonpayable",
      "type": "function"
    },
    {
      "constant": false,
      "inputs": [
        {
          "name": "_spender",
          "type": "address"
        },
        {
          "name": "_value",
          "type": "uint256"
        },
        {
          "name": "_data",
          "type": "bytes"
        }
      ],
      "name": "approve",
      "outputs": [
        {
          "name": "",
          "type": "bool"
        }
      ],
      "payable": false,
      "stateMutability": "nonpayable",
      "type": "function"
    },
    {
      "constant": false,
      "inputs": [
        {
          "name": "_spender",
          "type": "address"
        },
        {
          "name": "_subtractedValue",
          "type": "uint256"
        }
      ],
      "name": "decreaseApproval",
      "outputs": [
        {
          "name": "",
          "type": "bool"
        }
      ],
      "payable": false,
      "stateMutability": "nonpayable",
      "type": "function"
    },
    {
      "constant": true,
      "inputs": [
        {
          "name": "_owner",
          "type": "address"
        }
      ],
      "name": "balanceOf",
      "outputs": [
        {
          "name": "balance",
          "type": "uint256"
        }
      ],
      "payable": false,
      "stateMutability": "view",
      "type": "function"
    },
    {
      "constant": false,
      "inputs": [
        {
          "name": "_spender",
          "type": "address"
        },
        {
          "name": "_subtractedValue",
          "type": "uint256"
        },
        {
          "name": "_data",
          "type": "bytes"
        }
      ],
      "name": "decreaseApproval",
      "outputs": [
        {
          "name": "",
          "type": "bool"
        }
      ],
      "payable": false,
      "stateMutability": "nonpayable",
      "type": "function"
    },
    {
      "constant": false,
      "inputs": [
        {
          "name": "_to",
          "type": "address"
        },
        {
          "name": "_value",
          "type": "uint256"
        }
      ],
      "name": "transfer",
      "outputs": [
        {
          "name": "",
          "type": "bool"
        }
      ],
      "payable": false,
      "stateMutability": "nonpayable",
      "type": "function"
    },
    {
      "constant": false,
      "inputs": [
        {
          "name": "_from",
          "type": "address"
        },
        {
          "name": "_to",
          "type": "address"
        },
        {
          "name": "_value",
          "type": "uint256"
        },
        {
          "name": "_data",
          "type": "bytes"
        }
      ],
      "name": "transferFrom",
      "outputs": [
        {
          "name": "",
          "type": "bool"
        }
      ],
      "payable": false,
      "stateMutability": "nonpayable",
      "type": "function"
    },
    {
      "constant": false,
      "inputs": [
        {
          "name": "_to",
          "type": "address"
        },
        {
          "name": "_value",
          "type": "uint256"
        },
        {
          "name": "_data",
          "type": "bytes"
        }
      ],
      "name": "transfer",
      "outputs": [
        {
          "name": "",
          "type": "bool"
        }
      ],
      "payable": false,
      "stateMutability": "nonpayable",
      "type": "function"
    },
    {
      "constant": false,
      "inputs": [
        {
          "name": "_spender",
          "type": "address"
        },
        {
          "name": "_addedValue",
          "type": "uint256"
        }
      ],
      "name": "increaseApproval",
      "outputs": [
        {
          "name": "",
          "type": "bool"
        }
      ],
      "payable": false,
      "stateMutability": "nonpayable",
      "type": "function"
    },
    {
      "constant": true,
      "inputs": [
        {
          "name": "_owner",
          "type": "address"
        },
        {
          "name": "_spender",
          "type": "address"
        }
      ],
      "name": "allowance",
      "outputs": [
        {
          "name": "",
          "type": "uint256"
        }
      ],
      "payable": false,
      "stateMutability": "view",
      "type": "function"
    },
    {
      "inputs": [
        {
          "name": "initialAccount",
          "type": "address"
        },
        {
          "name": "initialBalance",
          "type": "uint256"
        }
      ],
      "payable": false,
      "stateMutability": "nonpayable",
      "type": "constructor"
    },
    {
      "anonymous": false,
      "inputs": [
        {
          "indexed": true,
          "name": "owner",
          "type": "address"
        },
        {
          "indexed": true,
          "name": "spender",
          "type": "address"
        },
        {
          "indexed": false,
          "name": "value",
          "type": "uint256"
        }
      ],
      "name": "Approval",
      "type": "event"
    },
    {
      "anonymous": false,
      "inputs": [
        {
          "indexed": true,
          "name": "from",
          "type": "address"
        },
        {
          "indexed": true,
          "name": "to",
          "type": "address"
        },
        {
          "indexed": false,
          "name": "value",
          "type": "uint256"
        }
      ],
      "name": "Transfer",
      "type": "event"
    }
  ],
  "bytecode": "0x608060405234801561001057600080fd5b50604051604080610b1c8339810160409081528151602092830151600160a060020a039091166000908152928390529120819055600155610ac6806100566000396000f3006080604052600436106100c45763ffffffff7c0100000000000000000000000000000000000000000000000000000000600035041663095ea7b381146100c957806316ca3b631461010157806318160ddd1461016a57806323b872dd146101915780635c17f9f4146101bb578063661884631461022457806370a08231146102485780637272ad4914610269578063a9059cbb146102d2578063ab67aa58146102f6578063be45fd6214610365578063d73dd623146103ce578063dd62ed3e146103f2575b600080fd5b3480156100d557600080fd5b506100ed600160a060020a0360043516602435610419565b604080519115158252519081900360200190f35b34801561010d57600080fd5b50604080516020600460443581810135601f81018490048402850184019095528484526100ed948235600160a060020a031694602480359536959460649492019190819084018382808284375094975061047f9650505050505050565b34801561017657600080fd5b5061017f61052e565b60408051918252519081900360200190f35b34801561019d57600080fd5b506100ed600160a060020a0360043581169060243516604435610534565b3480156101c757600080fd5b50604080516020600460443581810135601f81018490048402850184019095528484526100ed948235600160a060020a03169460248035953695946064949201919081908401838280828437509497506106ab9650505050505050565b34801561023057600080fd5b506100ed600160a060020a03600435166024356106cd565b34801561025457600080fd5b5061017f600160a060020a03600435166107bd565b34801561027557600080fd5b50604080516020600460443581810135601f81018490048402850184019095528484526100ed948235600160a060020a03169460248035953695946064949201919081908401838280828437509497506107d89650505050505050565b3480156102de57600080fd5b506100ed600160a060020a03600435166024356107fa565b34801561030257600080fd5b50604080516020601f6064356004818101359283018490048402850184019095528184526100ed94600160a060020a0381358116956024803590921695604435953695608494019181908401838280828437509497506108db9650505050505050565b34801561037157600080fd5b50604080516020600460443581810135601f81018490048402850184019095528484526100ed948235600160a060020a031694602480359536959460649492019190819084018382808284375094975061098c9650505050505050565b3480156103da57600080fd5b506100ed600160a060020a03600435166024356109ae565b3480156103fe57600080fd5b5061017f600160a060020a0360043581169060243516610a47565b336000818152600260209081526040808320600160a060020a038716808552908352818420869055815186815291519394909390927f8c5be1e5ebec7d5bd14f71427d1e84f3dd0314c0f7b2291e5b200ac8c7c3b925928290030190a350600192915050565b6000600160a060020a03841630141561049757600080fd5b6104a184846109ae565b5083600160a060020a03168260405180828051906020019080838360005b838110156104d75781810151838201526020016104bf565b50505050905090810190601f1680156105045780820380516001836020036101000a031916815260200191505b509150506000604051808303816000865af1915050151561052457600080fd5b5060019392505050565b60015490565b6000600160a060020a038316151561054b57600080fd5b600160a060020a03841660009081526020819052604090205482111561057057600080fd5b600160a060020a03841660009081526002602090815260408083203384529091529020548211156105a057600080fd5b600160a060020a0384166000908152602081905260409020546105c9908363ffffffff610a7216565b600160a060020a0380861660009081526020819052604080822093909355908516815220546105fe908363ffffffff610a8416565b600160a060020a03808516600090815260208181526040808320949094559187168152600282528281203382529091522054610640908363ffffffff610a7216565b600160a060020a03808616600081815260026020908152604080832033845282529182902094909455805186815290519287169391927fddf252ad1be2c89b69c2b068fc378daa952ba7f163c4a11628f55a4df523b3ef929181900390910190a35060019392505050565b6000600160a060020a0384163014156106c357600080fd5b6104a18484610419565b336000908152600260209081526040808320600160a060020a03861684529091528120548083111561072257336000908152600260209081526040808320600160a060020a0388168452909152812055610757565b610732818463ffffffff610a7216565b336000908152600260209081526040808320600160a060020a03891684529091529020555b336000818152600260209081526040808320600160a060020a0389168085529083529281902054815190815290519293927f8c5be1e5ebec7d5bd14f71427d1e84f3dd0314c0f7b2291e5b200ac8c7c3b925929181900390910190a35060019392505050565b600160a060020a031660009081526020819052604090205490565b6000600160a060020a0384163014156107f057600080fd5b6104a184846106cd565b6000600160a060020a038316151561081157600080fd5b3360009081526020819052604090205482111561082d57600080fd5b3360009081526020819052604090205461084d908363ffffffff610a7216565b3360009081526020819052604080822092909255600160a060020a0385168152205461087f908363ffffffff610a8416565b600160a060020a038416600081815260208181526040918290209390935580518581529051919233927fddf252ad1be2c89b69c2b068fc378daa952ba7f163c4a11628f55a4df523b3ef9281900390910190a350600192915050565b6000600160a060020a0384163014156108f357600080fd5b6108fe858585610534565b5083600160a060020a03168260405180828051906020019080838360005b8381101561093457818101518382015260200161091c565b50505050905090810190601f1680156109615780820380516001836020036101000a031916815260200191505b509150506000604051808303816000865af1915050151561098157600080fd5b506001949350505050565b6000600160a060020a0384163014156109a457600080fd5b6104a184846107fa565b336000908152600260209081526040808320600160a060020a03861684529091528120546109e2908363ffffffff610a8416565b336000818152600260209081526040808320600160a060020a0389168085529083529281902085905580519485525191937f8c5be1e5ebec7d5bd14f71427d1e84f3dd0314c0f7b2291e5b200ac8c7c3b925929081900390910190a350600192915050565b600160a060020a03918216600090815260026020908152604080832093909416825291909152205490565b600082821115610a7e57fe5b50900390565b600082820183811015610a9357fe5b93925050505600a165627a7a72305820d1e3de56f1137d9fd49db9fec37ff192f21106608b59009537de0631b05e959f0029",
  "source": "pragma solidity ^0.4.13;\n\n\nimport \"../token/ERC827/ERC827Token.sol\";\n\n\n// mock class using ERC827 Token\ncontract ERC827TokenMock is ERC827Token {\n\n  function ERC827TokenMock(address initialAccount, uint256 initialBalance) public {\n    balances[initialAccount] = initialBalance;\n    totalSupply_ = initialBalance;\n  }\n\n}\n",
  "sourcePath": "/Users/pjh/workspace/rbg-crowdsale/project/contracts/base/zeppelin/mocks/ERC827TokenMock.sol",
  "compiler": {
    "name": "solc",
    "version": "0.4.24+commit.e67f0147.Emscripten.clang"
  },
  "schemaVersion": "2.0.0",
  "updatedAt": "2018-06-01T09:11:30.184Z"
}