{
  "contractName": "ForceEther",
  "abi": [
    {
      "inputs": [],
      "payable": true,
      "stateMutability": "payable",
      "type": "constructor"
    },
    {
      "constant": false,
      "inputs": [
        {
          "name": "_recipient",
          "type": "address"
        }
      ],
      "name": "destroyAndSend",
      "outputs": [],
      "payable": false,
      "stateMutability": "nonpayable",
      "type": "function"
    }
  ],
  "bytecode": "0x608060405260b5806100126000396000f300608060405260043610603e5763ffffffff7c0100000000000000000000000000000000000000000000000000000000600035041663f5074f4181146043575b600080fd5b348015604e57600080fd5b50606e73ffffffffffffffffffffffffffffffffffffffff600435166070565b005b8073ffffffffffffffffffffffffffffffffffffffff16ff00a165627a7a723058208f19087eb3b0a788b1f0c65935ae7ed23b34a3097c3c7c769932ae9cbe77b4dd0029",
  "source": "pragma solidity ^0.4.18;\n\n\n// @title Force Ether into a contract.\n// @notice  even\n// if the contract is not payable.\n// @notice To use, construct the contract with the target as argument.\n// @author Remco Bloemen <remco@neufund.org>\ncontract ForceEther {\n\n  function ForceEther() public payable { }\n\n  function destroyAndSend(address _recipient) public {\n    selfdestruct(_recipient);\n  }\n}\n",
  "sourcePath": "/Users/pjh/workspace/rbg-crowdsale/project/contracts/base/zeppelin/mocks/ForceEther.sol",
  "compiler": {
    "name": "solc",
    "version": "0.4.24+commit.e67f0147.Emscripten.clang"
  },
  "schemaVersion": "2.0.0",
  "updatedAt": "2018-06-01T09:11:30.185Z"
}