{
  "contractName": "HasNoEtherTest",
  "abi": [
    {
      "constant": true,
      "inputs": [],
      "name": "owner",
      "outputs": [
        {
          "name": "",
          "type": "address"
        }
      ],
      "payable": false,
      "stateMutability": "view",
      "type": "function"
    },
    {
      "constant": false,
      "inputs": [],
      "name": "reclaimEther",
      "outputs": [],
      "payable": false,
      "stateMutability": "nonpayable",
      "type": "function"
    },
    {
      "constant": false,
      "inputs": [
        {
          "name": "newOwner",
          "type": "address"
        }
      ],
      "name": "transferOwnership",
      "outputs": [],
      "payable": false,
      "stateMutability": "nonpayable",
      "type": "function"
    },
    {
      "inputs": [],
      "payable": true,
      "stateMutability": "payable",
      "type": "constructor"
    },
    {
      "payable": false,
      "stateMutability": "nonpayable",
      "type": "fallback"
    },
    {
      "anonymous": false,
      "inputs": [
        {
          "indexed": true,
          "name": "previousOwner",
          "type": "address"
        },
        {
          "indexed": true,
          "name": "newOwner",
          "type": "address"
        }
      ],
      "name": "OwnershipTransferred",
      "type": "event"
    }
  ],
  "bytecode": "0x608060405260008054600160a060020a03191633179055341561002157600080fd5b6101e8806100306000396000f3006080604052600436106100565763ffffffff7c01000000000000000000000000000000000000000000000000000000006000350416638da5cb5b81146100655780639f727c2714610096578063f2fde38b146100ad575b34801561006257600080fd5b50005b34801561007157600080fd5b5061007a6100ce565b60408051600160a060020a039092168252519081900360200190f35b3480156100a257600080fd5b506100ab6100dd565b005b3480156100b957600080fd5b506100ab600160a060020a0360043516610128565b600054600160a060020a031681565b600054600160a060020a031633146100f457600080fd5b60008054604051600160a060020a0390911691303180156108fc02929091818181858888f19350505050151561012657fe5b565b600054600160a060020a0316331461013f57600080fd5b600160a060020a038116151561015457600080fd5b60008054604051600160a060020a03808516939216917f8be0079c531659141344cd1fd0a4f28419497f9722a3daafe3b4186f6b6457e091a36000805473ffffffffffffffffffffffffffffffffffffffff1916600160a060020a03929092169190911790555600a165627a7a72305820cafea4959565e72318afa63a1bf1be8975c9afe818efd335db1487e5b16f09560029",
  "source": "pragma solidity ^0.4.18;\n\nimport \"../ownership/HasNoEther.sol\";\n\n\ncontract HasNoEtherTest is HasNoEther {\n\n  // Constructor with explicit payable — should still fail\n  function HasNoEtherTest() public payable {\n  }\n\n}\n",
  "sourcePath": "/Users/pjh/workspace/rbg-crowdsale/project/contracts/base/zeppelin/mocks/HasNoEtherTest.sol",
  "compiler": {
    "name": "solc",
    "version": "0.4.24+commit.e67f0147.Emscripten.clang"
  },
  "schemaVersion": "2.0.0",
  "updatedAt": "2018-06-01T09:11:30.185Z"
}