{
  "contractName": "HolderBase",
  "abi": [
    {
      "constant": true,
      "inputs": [],
      "name": "initialized",
      "outputs": [
        {
          "name": "",
          "type": "bool"
        }
      ],
      "payable": false,
      "stateMutability": "view",
      "type": "function"
    },
    {
      "constant": true,
      "inputs": [],
      "name": "MAX_HOLDERS",
      "outputs": [
        {
          "name": "",
          "type": "uint8"
        }
      ],
      "payable": false,
      "stateMutability": "view",
      "type": "function"
    },
    {
      "constant": true,
      "inputs": [
        {
          "name": "",
          "type": "uint256"
        }
      ],
      "name": "holders",
      "outputs": [
        {
          "name": "addr",
          "type": "address"
        },
        {
          "name": "ratio",
          "type": "uint96"
        }
      ],
      "payable": false,
      "stateMutability": "view",
      "type": "function"
    },
    {
      "constant": true,
      "inputs": [],
      "name": "coeff",
      "outputs": [
        {
          "name": "",
          "type": "uint256"
        }
      ],
      "payable": false,
      "stateMutability": "view",
      "type": "function"
    },
    {
      "constant": true,
      "inputs": [],
      "name": "owner",
      "outputs": [
        {
          "name": "",
          "type": "address"
        }
      ],
      "payable": false,
      "stateMutability": "view",
      "type": "function"
    },
    {
      "constant": false,
      "inputs": [
        {
          "name": "newOwner",
          "type": "address"
        }
      ],
      "name": "transferOwnership",
      "outputs": [],
      "payable": false,
      "stateMutability": "nonpayable",
      "type": "function"
    },
    {
      "constant": true,
      "inputs": [],
      "name": "distributed",
      "outputs": [
        {
          "name": "",
          "type": "bool"
        }
      ],
      "payable": false,
      "stateMutability": "view",
      "type": "function"
    },
    {
      "inputs": [
        {
          "name": "_coeff",
          "type": "uint256"
        }
      ],
      "payable": false,
      "stateMutability": "nonpayable",
      "type": "constructor"
    },
    {
      "anonymous": false,
      "inputs": [],
      "name": "Distributed",
      "type": "event"
    },
    {
      "anonymous": false,
      "inputs": [
        {
          "indexed": true,
          "name": "previousOwner",
          "type": "address"
        },
        {
          "indexed": true,
          "name": "newOwner",
          "type": "address"
        }
      ],
      "name": "OwnershipTransferred",
      "type": "event"
    },
    {
      "constant": true,
      "inputs": [],
      "name": "getHolderCount",
      "outputs": [
        {
          "name": "",
          "type": "uint256"
        }
      ],
      "payable": false,
      "stateMutability": "view",
      "type": "function"
    },
    {
      "constant": false,
      "inputs": [
        {
          "name": "_addrs",
          "type": "address[]"
        },
        {
          "name": "_ratios",
          "type": "uint96[]"
        }
      ],
      "name": "initHolders",
      "outputs": [],
      "payable": false,
      "stateMutability": "nonpayable",
      "type": "function"
    }
  ],
  "bytecode": "0x608060405234801561001057600080fd5b506040516020806105ea833981016040525160008054600160a060020a0319163317905580151561004057600080fd5b600155610598806100526000396000f3006080604052600436106100985763ffffffff7c0100000000000000000000000000000000000000000000000000000000600035041663158ef93e811461009d57806322e12720146100c65780632a11ced0146100f15780637136982b1461013957806387b261ad146101605780638da5cb5b14610175578063ec5dfaa2146101a6578063f2fde38b14610236578063f84b903e14610257575b600080fd5b3480156100a957600080fd5b506100b261026c565b604080519115158252519081900360200190f35b3480156100d257600080fd5b506100db61027a565b6040805160ff9092168252519081900360200190f35b3480156100fd57600080fd5b5061010960043561027f565b60408051600160a060020a0390931683526bffffffffffffffffffffffff90911660208301528051918290030190f35b34801561014557600080fd5b5061014e6102ce565b60408051918252519081900360200190f35b34801561016c57600080fd5b5061014e6102d4565b34801561018157600080fd5b5061018a6102da565b60408051600160a060020a039092168252519081900360200190f35b3480156101b257600080fd5b506040805160206004803580820135838102808601850190965280855261023495369593946024949385019291829185019084908082843750506040805187358901803560208181028481018201909552818452989b9a9989019892975090820195509350839250850190849080828437509497506102e99650505050505050565b005b34801561024257600080fd5b50610234600160a060020a03600435166104bc565b34801561026357600080fd5b506100b2610550565b600254610100900460ff1681565b604081565b600380548290811061028d57fe5b600091825260209091200154600160a060020a03811691507401000000000000000000000000000000000000000090046bffffffffffffffffffffffff1682565b60035490565b60015481565b600054600160a060020a031681565b600080548190600160a060020a0316331461030357600080fd5b600254610100900460ff161561031857600080fd5b6003541561032557600080fd5b8351151561033257600080fd5b83516040101561034157600080fd5b825184511461034f57600080fd5b5060005b83518160ff161015610498578351600090859060ff841690811061037357fe5b60209081029091010151600160a060020a0316146104555760036040805190810160405280868460ff168151811015156103a957fe5b90602001906020020151600160a060020a03168152602001858460ff168151811015156103d257fe5b60209081029091018101516bffffffffffffffffffffffff908116909252835460018101855560009485529381902083519401805493909101519091167401000000000000000000000000000000000000000002600160a060020a0393841673ffffffffffffffffffffffffffffffffffffffff19909316929092179092161790555b61048e838260ff1681518110151561046957fe5b6020908102909101015183906bffffffffffffffffffffffff1663ffffffff61055916565b9150600101610353565b6001548211156104a757600080fd5b50506002805461ff0019166101001790555050565b600054600160a060020a031633146104d357600080fd5b600160a060020a03811615156104e857600080fd5b60008054604051600160a060020a03808516939216917f8be0079c531659141344cd1fd0a4f28419497f9722a3daafe3b4186f6b6457e091a36000805473ffffffffffffffffffffffffffffffffffffffff1916600160a060020a0392909216919091179055565b60025460ff1681565b8181018281101561056657fe5b929150505600a165627a7a72305820e44d827bbb83a2e8088a89dfb3ca84e6ea8f4348a30228a2aea0d576c4a1e2000029",
  "source": "pragma solidity ^0.4.24;\n\nimport \"openzeppelin-solidity/contracts/math/SafeMath.sol\";\nimport \"openzeppelin-solidity/contracts/ownership/Ownable.sol\";\nimport \"openzeppelin-solidity/contracts/token/ERC20/ERC20Basic.sol\";\n\n/**\n * @title HolderBase\n * @notice HolderBase handles data & funcitons for token or ether holders.\n * HolderBase contract can distribute only one of ether or token.\n */\ncontract HolderBase is Ownable {\n  using SafeMath for uint256;\n\n  uint8 public constant MAX_HOLDERS = 64; // TODO: tokyo-input should verify # of holders\n  uint256 public coeff;\n  bool public distributed;\n  bool public initialized;\n\n  struct Holder {\n    address addr;\n    uint96 ratio;\n  }\n\n  Holder[] public holders;\n\n  event Distributed();\n\n  function HolderBase(uint256 _coeff) public {\n    require(_coeff != 0);\n    coeff = _coeff;\n  }\n\n  function getHolderCount() public view returns (uint256) {\n    return holders.length;\n  }\n\n  function initHolders(address[] _addrs, uint96[] _ratios) public onlyOwner {\n    require(!initialized);\n    require(holders.length == 0);\n    require(_addrs.length != 0);\n    require(_addrs.length <= MAX_HOLDERS);\n    require(_addrs.length == _ratios.length);\n\n    uint256 accRatio;\n\n    for(uint8 i = 0; i < _addrs.length; i++) {\n      if (_addrs[i] != address(0)) {\n        // address will be 0x00 in case of \"crowdsale\".\n        holders.push(Holder(_addrs[i], _ratios[i]));\n      }\n\n      accRatio = accRatio.add(uint256(_ratios[i]));\n    }\n\n    require(accRatio <= coeff);\n\n    initialized = true;\n  }\n\n  /**\n   * @dev Distribute ether to `holder`s according to ratio.\n   * Remaining ether is transfered to `wallet` from the close\n   * function of RefundVault contract.\n   */\n  function distribute() internal {\n    require(!distributed, \"Already distributed\");\n    uint256 balance = this.balance;\n\n    require(balance > 0, \"No ether to distribute\");\n    distributed = true;\n\n    for (uint8 i = 0; i < holders.length; i++) {\n      uint256 holderAmount = balance.mul(uint256(holders[i].ratio)).div(coeff);\n\n      holders[i].addr.transfer(holderAmount);\n    }\n\n    emit Distributed(); // A single log to reduce gas\n  }\n\n  /**\n   * @dev Distribute ERC20 token to `holder`s according to ratio.\n   */\n  function distributeToken(ERC20Basic _token, uint256 _targetTotalSupply) internal {\n    require(!distributed, \"Already distributed\");\n    distributed = true;\n\n    for (uint8 i = 0; i < holders.length; i++) {\n      uint256 holderAmount = _targetTotalSupply.mul(uint256(holders[i].ratio)).div(coeff);\n      deliverTokens(_token, holders[i].addr, holderAmount);\n    }\n\n    emit Distributed(); // A single log to reduce gas\n  }\n\n  // Override to distribute tokens\n  function deliverTokens(ERC20Basic _token, address _beneficiary, uint256 _tokens) internal {}\n}\n",
  "sourcePath": "/Users/pjh/workspace/rbg-crowdsale/project/contracts/base/common/HolderBase.sol",
  "compiler": {
    "name": "solc",
    "version": "0.4.24+commit.e67f0147.Emscripten.clang"
  },
  "schemaVersion": "2.0.0",
  "updatedAt": "2018-06-07T12:04:18.262Z"
}