{
  "contractName": "KYC",
  "abi": [
    {
      "constant": true,
      "inputs": [
        {
          "name": "",
          "type": "address"
        }
      ],
      "name": "admin",
      "outputs": [
        {
          "name": "",
          "type": "bool"
        }
      ],
      "payable": false,
      "stateMutability": "view",
      "type": "function"
    },
    {
      "constant": true,
      "inputs": [],
      "name": "owner",
      "outputs": [
        {
          "name": "",
          "type": "address"
        }
      ],
      "payable": false,
      "stateMutability": "view",
      "type": "function"
    },
    {
      "constant": true,
      "inputs": [
        {
          "name": "",
          "type": "address"
        }
      ],
      "name": "registeredAddress",
      "outputs": [
        {
          "name": "",
          "type": "bool"
        }
      ],
      "payable": false,
      "stateMutability": "view",
      "type": "function"
    },
    {
      "constant": false,
      "inputs": [
        {
          "name": "newOwner",
          "type": "address"
        }
      ],
      "name": "transferOwnership",
      "outputs": [],
      "payable": false,
      "stateMutability": "nonpayable",
      "type": "function"
    },
    {
      "inputs": [],
      "payable": false,
      "stateMutability": "nonpayable",
      "type": "constructor"
    },
    {
      "anonymous": false,
      "inputs": [
        {
          "indexed": true,
          "name": "_addr",
          "type": "address"
        }
      ],
      "name": "Registered",
      "type": "event"
    },
    {
      "anonymous": false,
      "inputs": [
        {
          "indexed": true,
          "name": "_addr",
          "type": "address"
        }
      ],
      "name": "Unregistered",
      "type": "event"
    },
    {
      "anonymous": false,
      "inputs": [
        {
          "indexed": true,
          "name": "_addr",
          "type": "address"
        },
        {
          "indexed": true,
          "name": "_isAdmin",
          "type": "bool"
        }
      ],
      "name": "SetAdmin",
      "type": "event"
    },
    {
      "anonymous": false,
      "inputs": [
        {
          "indexed": true,
          "name": "previousOwner",
          "type": "address"
        },
        {
          "indexed": true,
          "name": "newOwner",
          "type": "address"
        }
      ],
      "name": "OwnershipTransferred",
      "type": "event"
    },
    {
      "constant": false,
      "inputs": [
        {
          "name": "_addr",
          "type": "address"
        },
        {
          "name": "_isAdmin",
          "type": "bool"
        }
      ],
      "name": "setAdmin",
      "outputs": [],
      "payable": false,
      "stateMutability": "nonpayable",
      "type": "function"
    },
    {
      "constant": false,
      "inputs": [
        {
          "name": "_addr",
          "type": "address"
        }
      ],
      "name": "register",
      "outputs": [],
      "payable": false,
      "stateMutability": "nonpayable",
      "type": "function"
    },
    {
      "constant": false,
      "inputs": [
        {
          "name": "_addrs",
          "type": "address[]"
        }
      ],
      "name": "registerByList",
      "outputs": [],
      "payable": false,
      "stateMutability": "nonpayable",
      "type": "function"
    },
    {
      "constant": false,
      "inputs": [
        {
          "name": "_addr",
          "type": "address"
        }
      ],
      "name": "unregister",
      "outputs": [],
      "payable": false,
      "stateMutability": "nonpayable",
      "type": "function"
    },
    {
      "constant": false,
      "inputs": [
        {
          "name": "_addrs",
          "type": "address[]"
        }
      ],
      "name": "unregisterByList",
      "outputs": [],
      "payable": false,
      "stateMutability": "nonpayable",
      "type": "function"
    }
  ],
  "bytecode": "0x608060405234801561001057600080fd5b5060008054600160a060020a0319163390811782558152600260205260409020805460ff191660011790556106798061004a6000396000f3006080604052600436106100985763ffffffff7c01000000000000000000000000000000000000000000000000000000006000350416632ec2c246811461009d5780634420e486146100c05780634b0bddd2146100e1578063600f8cfc1461010757806363a846f81461015c5780638da5cb5b14610191578063ad1def42146101c2578063eb5a458e146101e3578063f2fde38b14610238575b600080fd5b3480156100a957600080fd5b506100be600160a060020a0360043516610259565b005b3480156100cc57600080fd5b506100be600160a060020a03600435166102c0565b3480156100ed57600080fd5b506100be600160a060020a03600435166024351515610342565b34801561011357600080fd5b50604080516020600480358082013583810280860185019096528085526100be953695939460249493850192918291850190849080828437509497506103c29650505050505050565b34801561016857600080fd5b5061017d600160a060020a03600435166104ba565b604080519115158252519081900360200190f35b34801561019d57600080fd5b506101a66104cf565b60408051600160a060020a039092168252519081900360200190f35b3480156101ce57600080fd5b5061017d600160a060020a03600435166104de565b3480156101ef57600080fd5b50604080516020600480358082013583810280860185019096528085526100be953695939460249493850192918291850190849080828437509497506104f39650505050505050565b34801561024457600080fd5b506100be600160a060020a03600435166105b9565b3360009081526002602052604090205460ff16151561027757600080fd5b600160a060020a038116600081815260016020526040808220805460ff19169055517f75cd6de711483e11488a1cd9b66172abccb9e5c19572f92015a7880f0c8c0edc9190a250565b3360009081526002602052604090205460ff1615156102de57600080fd5b600160a060020a03811615156102f357600080fd5b600160a060020a0381166000818152600160208190526040808320805460ff1916909217909155517f2d3734a8e47ac8316e500ac231c90a6e1848ca2285f40d07eaa52005e4b3a0e99190a250565b600054600160a060020a0316331461035957600080fd5b600160a060020a038216151561036e57600080fd5b600160a060020a038216600081815260026020526040808220805460ff191685151590811790915590519092917f55a5194bc0174fcaf12b2978bef43911466bf63b34db8d1dd1a0d5dcd5c41bea91a35050565b3360009081526002602052604081205460ff1615156103e057600080fd5b5060005b81518110156104b65781516000908390839081106103fe57fe5b60209081029091010151600160a060020a0316141561041c57600080fd5b6001806000848481518110151561042f57fe5b602090810291909101810151600160a060020a03168252810191909152604001600020805460ff1916911515919091179055815182908290811061046f57fe5b90602001906020020151600160a060020a03167f2d3734a8e47ac8316e500ac231c90a6e1848ca2285f40d07eaa52005e4b3a0e960405160405180910390a26001016103e4565b5050565b60026020526000908152604090205460ff1681565b600054600160a060020a031681565b60016020526000908152604090205460ff1681565b3360009081526002602052604081205460ff16151561051157600080fd5b5060005b81518110156104b657600060016000848481518110151561053257fe5b602090810291909101810151600160a060020a03168252810191909152604001600020805460ff1916911515919091179055815182908290811061057257fe5b90602001906020020151600160a060020a03167f75cd6de711483e11488a1cd9b66172abccb9e5c19572f92015a7880f0c8c0edc60405160405180910390a2600101610515565b600054600160a060020a031633146105d057600080fd5b600160a060020a03811615156105e557600080fd5b60008054604051600160a060020a03808516939216917f8be0079c531659141344cd1fd0a4f28419497f9722a3daafe3b4186f6b6457e091a36000805473ffffffffffffffffffffffffffffffffffffffff1916600160a060020a03929092169190911790555600a165627a7a7230582053f7d109623a816f118ff4480ddec3382c27b780638d375245cbf138a9f231940029",
  "source": "pragma solidity ^0.4.24;\n\nimport \"openzeppelin-solidity/contracts/ownership/Ownable.sol\";\n\n/**\n * @title KYC\n * @dev KYC contract handles the white list for PLCCrowdsale contract\n * Only accounts registered in KYC contract can buy PLC token.\n * Admins can register account, and the reason why\n */\ncontract KYC is Ownable {\n  // check the address is registered for token sale\n  mapping (address => bool) public registeredAddress;\n\n  // check the address is admin of kyc contract\n  mapping (address => bool) public admin;\n\n  event Registered(address indexed _addr);\n  event Unregistered(address indexed _addr);\n  event SetAdmin(address indexed _addr, bool indexed _isAdmin);\n\n  /**\n   * @dev check whether the msg.sender is admin or not\n   */\n  modifier onlyAdmin() {\n    require(admin[msg.sender]);\n    _;\n  }\n\n  function KYC() public {\n    admin[msg.sender] = true;\n  }\n\n  /**\n   * @dev set new admin as admin of KYC contract\n   * @param _addr address The address to set as admin of KYC contract\n   */\n  function setAdmin(address _addr, bool _isAdmin)\n    public\n    onlyOwner\n  {\n    require(_addr != address(0));\n    admin[_addr] = _isAdmin;\n\n    emit SetAdmin(_addr, _isAdmin);\n  }\n\n  /**\n   * @dev register the address for token sale\n   * @param _addr address The address to register for token sale\n   */\n  function register(address _addr)\n    public\n    onlyAdmin\n  {\n    require(_addr != address(0));\n\n    registeredAddress[_addr] = true;\n\n    emit Registered(_addr);\n  }\n\n  /**\n   * @dev register the addresses for token sale\n   * @param _addrs address[] The addresses to register for token sale\n   */\n  function registerByList(address[] _addrs)\n    public\n    onlyAdmin\n  {\n    for(uint256 i = 0; i < _addrs.length; i++) {\n      require(_addrs[i] != address(0));\n\n      registeredAddress[_addrs[i]] = true;\n\n      emit Registered(_addrs[i]);\n    }\n  }\n\n  /**\n   * @dev unregister the registered address\n   * @param _addr address The address to unregister for token sale\n   */\n  function unregister(address _addr)\n    public\n    onlyAdmin\n  {\n    registeredAddress[_addr] = false;\n\n    emit Unregistered(_addr);\n  }\n\n  /**\n   * @dev unregister the registered addresses\n   * @param _addrs address[] The addresses to unregister for token sale\n   */\n  function unregisterByList(address[] _addrs)\n    public\n    onlyAdmin\n  {\n    for(uint256 i = 0; i < _addrs.length; i++) {\n      registeredAddress[_addrs[i]] = false;\n\n      emit Unregistered(_addrs[i]);\n    }\n  }\n}\n",
  "sourcePath": "/Users/pjh/workspace/rbg-crowdsale/project/contracts/base/kyc/KYC.sol",
  "compiler": {
    "name": "solc",
    "version": "0.4.24+commit.e67f0147.Emscripten.clang"
  },
  "schemaVersion": "2.0.0",
  "updatedAt": "2018-06-07T12:04:22.563Z"
}