{
  "contractName": "LimitBalance",
  "abi": [
    {
      "constant": true,
      "inputs": [],
      "name": "limit",
      "outputs": [
        {
          "name": "",
          "type": "uint256"
        }
      ],
      "payable": false,
      "stateMutability": "view",
      "type": "function"
    },
    {
      "inputs": [
        {
          "name": "_limit",
          "type": "uint256"
        }
      ],
      "payable": false,
      "stateMutability": "nonpayable",
      "type": "constructor"
    }
  ],
  "bytecode": "0x608060405234801561001057600080fd5b506040516020806100cc83398101604052516000556099806100336000396000f300608060405260043610603e5763ffffffff7c0100000000000000000000000000000000000000000000000000000000600035041663a4d66daf81146043575b600080fd5b348015604e57600080fd5b5060556067565b60408051918252519081900360200190f35b600054815600a165627a7a72305820b9ce11f2f90f3c5f548789701925ccfabf2ce109f377baf6e2e51908f8ed86660029",
  "source": "pragma solidity ^0.4.18;\n\n\n/**\n * @title LimitBalance\n * @dev Simple contract to limit the balance of child contract.\n * @dev Note this doesn't prevent other contracts to send funds by using selfdestruct(address);\n * @dev See: https://github.com/ConsenSys/smart-contract-best-practices#remember-that-ether-can-be-forcibly-sent-to-an-account\n */\ncontract LimitBalance {\n\n  uint256 public limit;\n\n  /**\n   * @dev Constructor that sets the passed value as a limit.\n   * @param _limit uint256 to represent the limit.\n   */\n  function LimitBalance(uint256 _limit) public {\n    limit = _limit;\n  }\n\n  /**\n   * @dev Checks if limit was reached. Case true, it throws.\n   */\n  modifier limitedPayable() {\n    require(this.balance <= limit);\n    _;\n\n  }\n\n}\n",
  "sourcePath": "/Users/pjh/workspace/rbg-crowdsale/project/contracts/base/zeppelin/LimitBalance.sol",
  "compiler": {
    "name": "solc",
    "version": "0.4.24+commit.e67f0147.Emscripten.clang"
  },
  "schemaVersion": "2.0.0",
  "updatedAt": "2018-06-01T09:11:30.162Z"
}