{
  "contractName": "LimitBalanceMock",
  "abi": [
    {
      "constant": true,
      "inputs": [],
      "name": "limit",
      "outputs": [
        {
          "name": "",
          "type": "uint256"
        }
      ],
      "payable": false,
      "stateMutability": "view",
      "type": "function"
    },
    {
      "constant": false,
      "inputs": [],
      "name": "limitedDeposit",
      "outputs": [],
      "payable": true,
      "stateMutability": "payable",
      "type": "function"
    }
  ],
  "bytecode": "0x60806040526103e860005560bc806100186000396000f30060806040526004361060485763ffffffff7c010000000000000000000000000000000000000000000000000000000060003504166386f3d0cd8114604d578063a4d66daf146055575b600080fd5b60536079565b005b348015606057600080fd5b506067608a565b60408051918252519081900360200190f35b60005430311115608857600080fd5b565b600054815600a165627a7a7230582030a5435661f1a0fc7db57854116a19c263870b4d47eb382097c8d80a0a94c7980029",
  "source": "pragma solidity ^0.4.18;\n\n\nimport \"../LimitBalance.sol\";\n\n\n// mock class using LimitBalance\ncontract LimitBalanceMock is LimitBalance(1000) {\n\n  function limitedDeposit() public payable limitedPayable {\n  }\n\n}\n",
  "sourcePath": "/Users/pjh/workspace/rbg-crowdsale/project/contracts/base/zeppelin/mocks/LimitBalanceMock.sol",
  "compiler": {
    "name": "solc",
    "version": "0.4.24+commit.e67f0147.Emscripten.clang"
  },
  "schemaVersion": "2.0.0",
  "updatedAt": "2018-06-01T09:11:30.186Z"
}