{
  "contractName": "Locker",
  "abi": [
    {
      "constant": true,
      "inputs": [
        {
          "name": "",
          "type": "address"
        }
      ],
      "name": "beneficiaries",
      "outputs": [
        {
          "name": "ratio",
          "type": "uint256"
        },
        {
          "name": "withdrawAmount",
          "type": "uint256"
        },
        {
          "name": "releaseAllTokens",
          "type": "bool"
        }
      ],
      "payable": false,
      "stateMutability": "view",
      "type": "function"
    },
    {
      "constant": true,
      "inputs": [],
      "name": "initialBalance",
      "outputs": [
        {
          "name": "",
          "type": "uint256"
        }
      ],
      "payable": false,
      "stateMutability": "view",
      "type": "function"
    },
    {
      "constant": true,
      "inputs": [],
      "name": "withdrawAmount",
      "outputs": [
        {
          "name": "",
          "type": "uint256"
        }
      ],
      "payable": false,
      "stateMutability": "view",
      "type": "function"
    },
    {
      "constant": true,
      "inputs": [
        {
          "name": "",
          "type": "address"
        }
      ],
      "name": "releases",
      "outputs": [
        {
          "name": "isStraight",
          "type": "bool"
        }
      ],
      "payable": false,
      "stateMutability": "view",
      "type": "function"
    },
    {
      "constant": true,
      "inputs": [],
      "name": "coeff",
      "outputs": [
        {
          "name": "",
          "type": "uint256"
        }
      ],
      "payable": false,
      "stateMutability": "view",
      "type": "function"
    },
    {
      "constant": true,
      "inputs": [],
      "name": "owner",
      "outputs": [
        {
          "name": "",
          "type": "address"
        }
      ],
      "payable": false,
      "stateMutability": "view",
      "type": "function"
    },
    {
      "constant": true,
      "inputs": [],
      "name": "state",
      "outputs": [
        {
          "name": "",
          "type": "uint8"
        }
      ],
      "payable": false,
      "stateMutability": "view",
      "type": "function"
    },
    {
      "constant": true,
      "inputs": [],
      "name": "numBeneficiaries",
      "outputs": [
        {
          "name": "",
          "type": "uint256"
        }
      ],
      "payable": false,
      "stateMutability": "view",
      "type": "function"
    },
    {
      "constant": true,
      "inputs": [],
      "name": "activeTime",
      "outputs": [
        {
          "name": "",
          "type": "uint256"
        }
      ],
      "payable": false,
      "stateMutability": "view",
      "type": "function"
    },
    {
      "constant": true,
      "inputs": [
        {
          "name": "",
          "type": "address"
        }
      ],
      "name": "locked",
      "outputs": [
        {
          "name": "",
          "type": "bool"
        }
      ],
      "payable": false,
      "stateMutability": "view",
      "type": "function"
    },
    {
      "constant": true,
      "inputs": [],
      "name": "numLocks",
      "outputs": [
        {
          "name": "",
          "type": "uint256"
        }
      ],
      "payable": false,
      "stateMutability": "view",
      "type": "function"
    },
    {
      "constant": false,
      "inputs": [
        {
          "name": "newOwner",
          "type": "address"
        }
      ],
      "name": "transferOwnership",
      "outputs": [],
      "payable": false,
      "stateMutability": "nonpayable",
      "type": "function"
    },
    {
      "constant": true,
      "inputs": [],
      "name": "token",
      "outputs": [
        {
          "name": "",
          "type": "address"
        }
      ],
      "payable": false,
      "stateMutability": "view",
      "type": "function"
    },
    {
      "inputs": [
        {
          "name": "_token",
          "type": "address"
        },
        {
          "name": "_coeff",
          "type": "uint256"
        },
        {
          "name": "_beneficiaries",
          "type": "address[]"
        },
        {
          "name": "_ratios",
          "type": "uint256[]"
        }
      ],
      "payable": false,
      "stateMutability": "nonpayable",
      "type": "constructor"
    },
    {
      "anonymous": false,
      "inputs": [
        {
          "indexed": false,
          "name": "_state",
          "type": "uint8"
        }
      ],
      "name": "StateChanged",
      "type": "event"
    },
    {
      "anonymous": false,
      "inputs": [
        {
          "indexed": true,
          "name": "_beneficiary",
          "type": "address"
        },
        {
          "indexed": false,
          "name": "_isStraight",
          "type": "bool"
        }
      ],
      "name": "Locked",
      "type": "event"
    },
    {
      "anonymous": false,
      "inputs": [
        {
          "indexed": true,
          "name": "_beneficiary",
          "type": "address"
        },
        {
          "indexed": false,
          "name": "_amount",
          "type": "uint256"
        }
      ],
      "name": "Released",
      "type": "event"
    },
    {
      "anonymous": false,
      "inputs": [
        {
          "indexed": true,
          "name": "previousOwner",
          "type": "address"
        },
        {
          "indexed": true,
          "name": "newOwner",
          "type": "address"
        }
      ],
      "name": "OwnershipTransferred",
      "type": "event"
    },
    {
      "constant": false,
      "inputs": [],
      "name": "activate",
      "outputs": [],
      "payable": false,
      "stateMutability": "nonpayable",
      "type": "function"
    },
    {
      "constant": true,
      "inputs": [
        {
          "name": "_beneficiary",
          "type": "address"
        }
      ],
      "name": "getReleaseType",
      "outputs": [
        {
          "name": "",
          "type": "bool"
        }
      ],
      "payable": false,
      "stateMutability": "view",
      "type": "function"
    },
    {
      "constant": true,
      "inputs": [
        {
          "name": "_beneficiary",
          "type": "address"
        }
      ],
      "name": "getTotalLockedAmounts",
      "outputs": [
        {
          "name": "",
          "type": "uint256"
        }
      ],
      "payable": false,
      "stateMutability": "view",
      "type": "function"
    },
    {
      "constant": true,
      "inputs": [
        {
          "name": "_beneficiary",
          "type": "address"
        }
      ],
      "name": "getReleaseTimes",
      "outputs": [
        {
          "name": "",
          "type": "uint256[]"
        }
      ],
      "payable": false,
      "stateMutability": "view",
      "type": "function"
    },
    {
      "constant": true,
      "inputs": [
        {
          "name": "_beneficiary",
          "type": "address"
        }
      ],
      "name": "getReleaseRatios",
      "outputs": [
        {
          "name": "",
          "type": "uint256[]"
        }
      ],
      "payable": false,
      "stateMutability": "view",
      "type": "function"
    },
    {
      "constant": false,
      "inputs": [
        {
          "name": "_beneficiary",
          "type": "address"
        },
        {
          "name": "_isStraight",
          "type": "bool"
        },
        {
          "name": "_releaseTimes",
          "type": "uint256[]"
        },
        {
          "name": "_releaseRatios",
          "type": "uint256[]"
        }
      ],
      "name": "lock",
      "outputs": [],
      "payable": false,
      "stateMutability": "nonpayable",
      "type": "function"
    },
    {
      "constant": false,
      "inputs": [],
      "name": "release",
      "outputs": [],
      "payable": false,
      "stateMutability": "nonpayable",
      "type": "function"
    },
    {
      "constant": true,
      "inputs": [
        {
          "name": "numerator",
          "type": "uint256"
        },
        {
          "name": "denominator",
          "type": "uint256"
        },
        {
          "name": "target",
          "type": "uint256"
        }
      ],
      "name": "getPartialAmount",
      "outputs": [
        {
          "name": "",
          "type": "uint256"
        }
      ],
      "payable": false,
      "stateMutability": "pure",
      "type": "function"
    }
  ],
  "bytecode": "0x60806040523480156200001157600080fd5b5060405162001489380380620014898339810160409081528151602083015191830151606084015160008054600160a060020a0319163317815592949182019291019080600160a060020a03861615156200006b57600080fd5b82518451146200007a57600080fd5b5060028054600160a060020a031916600160a060020a0387161790556003849055825160095560005b600954811015620001625760008382815181101515620000bf57fe5b6020908102909101015111620000d457600080fd5b8281815181101515620000e357fe5b906020019060200201516006600086848151811015156200010057fe5b6020908102909101810151600160a060020a0316825281019190915260400160002055825162000157908490839081106200013757fe5b60209081029091010151839064010000000062000d716200017d82021704565b9150600101620000a3565b60035482146200017157600080fd5b50505050505062000191565b818101828110156200018b57fe5b92915050565b6112e880620001a16000396000f30060806040526004361061011c5763ffffffff7c01000000000000000000000000000000000000000000000000000000006000350416630156773981146101215780630f15f4c01461016257806318369a2a146101795780634a2d5b6b146101a0578063534844a21461021157806355828c16146102265780635de4c6fc1461025b57806386d1a69f1461029a57806387b261ad146102af5780638da5cb5b146102c457806398024a8b146102f5578063c19d93fb14610313578063cb22d41b1461034c578063cb8c478a14610361578063cbf9fe5f14610376578063d422cf5814610397578063d8018c42146103ac578063ec86e1d7146103cd578063f2fde38b146103ee578063fc0c546a1461040f578063ff42fd4114610424575b600080fd5b34801561012d57600080fd5b50610142600160a060020a0360043516610445565b604080519384526020840192909252151582820152519081900360600190f35b34801561016e57600080fd5b50610177610469565b005b34801561018557600080fd5b5061018e6105b0565b60408051918252519081900360200190f35b3480156101ac57600080fd5b506101c1600160a060020a03600435166105b6565b60408051602080825283518183015283519192839290830191858101910280838360005b838110156101fd5781810151838201526020016101e5565b505050509050019250505060405180910390f35b34801561021d57600080fd5b5061018e61064c565b34801561023257600080fd5b50610247600160a060020a0360043516610652565b604080519115158252519081900360200190f35b34801561026757600080fd5b5061017760048035600160a060020a03169060248035151591604435808301929082013591606435918201910135610667565b3480156102a657600080fd5b50610177610903565b3480156102bb57600080fd5b5061018e610b2e565b3480156102d057600080fd5b506102d9610b34565b60408051600160a060020a039092168252519081900360200190f35b34801561030157600080fd5b5061018e600435602435604435610b43565b34801561031f57600080fd5b50610328610b6d565b6040518082600381111561033857fe5b60ff16815260200191505060405180910390f35b34801561035857600080fd5b5061018e610b76565b34801561036d57600080fd5b5061018e610b7c565b34801561038257600080fd5b50610247600160a060020a0360043516610b82565b3480156103a357600080fd5b5061018e610b97565b3480156103b857600080fd5b506101c1600160a060020a0360043516610b9d565b3480156103d957600080fd5b50610247600160a060020a0360043516610c31565b3480156103fa57600080fd5b50610177600160a060020a0360043516610c77565b34801561041b57600080fd5b506102d9610d0b565b34801561043057600080fd5b5061018e600160a060020a0360043516610d1a565b60066020526000908152604090208054600182015460029092015490919060ff1683565b600054600160a060020a0316331461048057600080fd5b600180600b5460ff16600381111561049457fe5b1461049e57600080fd5b600954600a54146104ae57600080fd5b600254604080517f70a082310000000000000000000000000000000000000000000000000000000081523060048201529051600160a060020a03909216916370a08231916024808201926020929091908290030181600087803b15801561051457600080fd5b505af1158015610528573d6000803e3d6000fd5b505050506040513d602081101561053e57600080fd5b5051600481905560001061055157600080fd5b42600155600b805460ff1916600217908190556040517f551dc40198cc79684bb69e4931dba4ac16e4598792ee1c0a5000aeea366d7bb69160ff16908082600381111561059a57fe5b60ff16815260200191505060405180910390a150565b60045481565b600160a060020a0381166000908152600660205260408120546060918391116105de57600080fd5b600160a060020a0383166000908152600760209081526040918290206002018054835181840281018401909452808452909183018282801561063f57602002820191906000526020600020905b81548152602001906001019080831161062b575b5050505050915050919050565b60055481565b60076020526000908152604090205460ff1681565b600080548190600160a060020a0316331461068157600080fd5b600080600b5460ff16600381111561069557fe5b1461069f57600080fd5b600160a060020a0389166000908152600660205260408120548a91106106c457600080fd5b600160a060020a038a1660009081526008602052604090205460ff16156106ea57600080fd5b8415156106f657600080fd5b84871461070257600080fd5b6003548593508684600019810181811061071857fe5b9050602002013514151561072b57600080fd5b600093505b600183038410156107b45787876001860181811061074a57fe5b90506020020135888886818110151561075f57fe5b9050602002013510151561077257600080fd5b85856001860181811061078157fe5b90506020020135868686818110151561079657fe5b905060200201351015156107a957600080fd5b600190930192610730565b88156107c757600283146107c757600080fd5b600a546107db90600163ffffffff610d7116565b600a55600160a060020a038a166000908152600760205260409020805460ff19168a151517815561081090600101898961120c565b50600160a060020a038a16600090815260076020526040902061083790600201878761120c565b50600160a060020a038a16600081815260086020908152604091829020805460ff1916600117905581518c1515815291517fcaf46096bdd957e9271a7e46a00ff61870b80644805049e7ea814162a2b606bc9281900390910190a2600954600a5414156108f757600b805460ff1916600117908190556040517f551dc40198cc79684bb69e4931dba4ac16e4598792ee1c0a5000aeea366d7bb69160ff1690808260038111156108e357fe5b60ff16815260200191505060405180910390a15b50505050505050505050565b6000600280600b5460ff16600381111561091957fe5b1461092357600080fd5b336000818152600660205260408120541161093d57600080fd5b3360009081526006602052604090206002015460ff161561095d57600080fd5b61096633610d84565b3360009081526006602052604090206001015490935061098c908463ffffffff610d7116565b3360009081526006602052604090206001810191909155546003546004546109b5929190610b43565b33600090815260066020526040902060018101546002909101805460ff1916929091149190911790556005546109f1908463ffffffff610d7116565b60058190556004541415610a5a57600b805460ff19166003908117918290556040517f551dc40198cc79684bb69e4931dba4ac16e4598792ee1c0a5000aeea366d7bb69260ff169181908390811115610a4657fe5b60ff16815260200191505060405180910390a15b600254604080517fa9059cbb000000000000000000000000000000000000000000000000000000008152336004820152602481018690529051600160a060020a039092169163a9059cbb916044808201926020929091908290030181600087803b158015610ac757600080fd5b505af1158015610adb573d6000803e3d6000fd5b505050506040513d6020811015610af157600080fd5b505060408051848152905133917fb21fb52d5749b80f3182f8c6992236b5e5576681880914484d7f4c9b062e619e919081900360200190a2505050565b60035481565b600054600160a060020a031681565b6000610b6583610b59868563ffffffff610dc316565b9063ffffffff610dec16565b949350505050565b600b5460ff1681565b60095481565b60015481565b60086020526000908152604090205460ff1681565b600a5481565b600160a060020a038116600090815260066020526040812054606091839111610bc557600080fd5b600160a060020a0383166000908152600760209081526040918290206001018054835181840281018401909452808452909183018282801561063f576020028201919060005260206000209081548152602001906001019080831161062b575050505050915050919050565b600160a060020a03811660009081526006602052604081205482908210610c5757600080fd5b5050600160a060020a031660009081526007602052604090205460ff1690565b600054600160a060020a03163314610c8e57600080fd5b600160a060020a0381161515610ca357600080fd5b60008054604051600160a060020a03808516939216917f8be0079c531659141344cd1fd0a4f28419497f9722a3daafe3b4186f6b6457e091a36000805473ffffffffffffffffffffffffffffffffffffffff1916600160a060020a0392909216919091179055565b600254600160a060020a031681565b600160a060020a03811660009081526006602052604081205482908210610d4057600080fd5b600160a060020a038316600090815260066020526040902054600354600454610d6a929190610b43565b9392505050565b81810182811015610d7e57fe5b92915050565b600160a060020a03811660009081526007602052604081205460ff1615610db557610dae82610e01565b9050610dbe565b610dae8261102a565b919050565b6000821515610dd457506000610d7e565b50818102818382811515610de457fe5b0414610d7e57fe5b60008183811515610df957fe5b049392505050565b6000610e0b611257565b610e1361127b565b600160a060020a0384166000818152600660209081526040808320815160608181018452825482526001808401548387015260029093015460ff9081161515838601529686526007855283862084519182018552805490971615158152918601805484518187028101870190955280855291985094958695869586959293858201939291830182828015610ec657602002820191906000526020600020905b815481526020019060010190808311610eb2575b5050505050815260200160028201805480602002602001604051908101604052809291908181526020018280548015610f1e57602002820191906000526020600020905b815481526020019060010190808311610f0a575b5050505050815250509450610f3288610d1a565b935084602001516000815181101515610f4757fe5b90602001906020020151925084602001516001815181101515610f6657fe5b906020019060200201519150824210151515610f8157600080fd5b428211610f9057839650611008565b610fb985604001516000815181101515610fa657fe5b9060200190602002015160035486610b43565b9050610ff3610fce428563ffffffff6111fa16565b610fde848663ffffffff6111fa16565b610fee878563ffffffff6111fa16565b610b43565b9650611005878263ffffffff610d7116565b96505b602086015161101e90889063ffffffff6111fa16565b98975050505050505050565b6000611034611257565b61103c61127b565b600160a060020a0384166000818152600660209081526040808320815160608181018452825482526001808401548387015260029093015460ff908116151583860152968652600785528386208451918201855280549097161515815291860180548451818702810187019095528085529198509495869586959394919385810193908301828280156110ee57602002820191906000526020600020905b8154815260200190600101908083116110da575b505050505081526020016002820180548060200260200160405190810160405280929190818152602001828054801561114657602002820191906000526020600020905b815481526020019060010190808311611132575b505050505081525050935061115a87610d1a565b925060018460200151510390505b600081106111bc57602084015180518290811061118157fe5b6020908102909101015142106111b35760408401518051829081106111a257fe5b9060200190602002015191506111bc565b60001901611168565b600082116111c957600080fd5b6111d68260035485610b43565b95506111ef8560200151876111fa90919063ffffffff16565b979650505050505050565b60008282111561120657fe5b50900390565b828054828255906000526020600020908101928215611247579160200282015b8281111561124757823582559160200191906001019061122c565b5061125392915061129f565b5090565b60606040519081016040528060008152602001600081526020016000151581525090565b60606040519081016040528060001515815260200160608152602001606081525090565b6112b991905b8082111561125357600081556001016112a5565b905600a165627a7a72305820bf24340e571f72fcff2a0a86ceb098539436a6b5db2dd6acddc39a9d41dba47f0029",
  "source": "pragma solidity ^0.4.24;\n\nimport \"openzeppelin-solidity/contracts/math/SafeMath.sol\";\nimport \"openzeppelin-solidity/contracts/ownership/Ownable.sol\";\nimport \"openzeppelin-solidity/contracts/token/ERC20/SafeERC20.sol\";\n\n/**\n * @title Locker\n * @notice Locker holds tokens and releases them at a certain time.\n */\ncontract Locker is Ownable {\n  using SafeMath for uint;\n  using SafeERC20 for ERC20Basic;\n\n  /**\n   * It is init state only when adding release info is possible.\n   * beneficiary only can release tokens when Locker is active.\n   * After all tokens are released, locker is drawn.\n   */\n  enum State { Init, Ready, Active, Drawn }\n\n  struct Beneficiary {\n    uint ratio;             // ratio based on Locker's initial balance.\n    uint withdrawAmount;    // accumulated tokens beneficiary released\n    bool releaseAllTokens;\n  }\n\n  /**\n   * @notice Release has info to release tokens.\n   * If lock type is straight, only two release infos is required.\n   *\n   *     |\n   * 100 |                _______________\n   *     |              _/\n   *  50 |            _/\n   *     |         . |\n   *     |       .   |\n   *     |     .     |\n   *     +===+=======+----*----------> time\n   *     Locker  First    Last\n   *  Activated  Release  Release\n   *\n   *\n   * If lock type is variable, the release graph will be\n   *\n   *     |\n   * 100 |                                 _________\n   *     |                                |\n   *  70 |                      __________|\n   *     |                     |\n   *  30 |            _________|\n   *     |           |\n   *     +===+=======+---------+----------*------> time\n   *     Locker   First        Second     Last\n   *  Activated   Release      Release    Release\n   *\n   *\n   *\n   * For the first straight release graph, parameters would be\n   *   coeff: 100\n   *   releaseTimes: [\n   *     first release time,\n   *     second release time\n   *   ]\n   *   releaseRatios: [\n   *     50,\n   *     100,\n   *   ]\n   *\n   * For the second variable release graph, parameters would be\n   *   coeff: 100\n   *   releaseTimes: [\n   *     first release time,\n   *     second release time,\n   *     last release time\n   *   ]\n   *   releaseRatios: [\n   *     30,\n   *     70,\n   *     100,\n   *   ]\n   *\n   */\n  struct Release {\n    bool isStraight;        // lock type : straight or variable\n    uint[] releaseTimes;    //\n    uint[] releaseRatios;   //\n  }\n\n  uint public activeTime;\n\n  // ERC20 basic token contract being held\n  ERC20Basic public token;\n\n  uint public coeff;\n  uint public initialBalance;\n  uint public withdrawAmount; // total amount of tokens released\n\n  mapping (address => Beneficiary) public beneficiaries;\n  mapping (address => Release) public releases;  // beneficiary's lock\n  mapping (address => bool) public locked; // whether beneficiary's lock is instantiated\n\n  uint public numBeneficiaries;\n  uint public numLocks;\n\n  State public state;\n\n  modifier onlyState(State v) {\n    require(state == v);\n    _;\n  }\n\n  modifier onlyBeneficiary(address _addr) {\n    require(beneficiaries[_addr].ratio > 0);\n    _;\n  }\n\n  event StateChanged(State _state);\n  event Locked(address indexed _beneficiary, bool _isStraight);\n  event Released(address indexed _beneficiary, uint256 _amount);\n\n  function Locker(address _token, uint _coeff, address[] _beneficiaries, uint[] _ratios) public {\n    require(_token != address(0));\n    require(_beneficiaries.length == _ratios.length);\n\n    token = ERC20Basic(_token);\n    coeff = _coeff;\n    numBeneficiaries = _beneficiaries.length;\n\n    uint accRatio;\n\n    for(uint i = 0; i < numBeneficiaries; i++) {\n      require(_ratios[i] > 0);\n      beneficiaries[_beneficiaries[i]].ratio = _ratios[i];\n\n      accRatio = accRatio.add(_ratios[i]);\n    }\n\n    require(coeff == accRatio);\n  }\n\n  /**\n   * @notice beneficiary can release their tokens after activated\n   */\n  function activate() external onlyOwner onlyState(State.Ready) {\n    require(numLocks == numBeneficiaries); // double check : assert all releases are recorded\n\n    initialBalance = token.balanceOf(this);\n    require(initialBalance > 0);\n\n    activeTime = now; // solium-disable-line security/no-block-members\n\n    // set locker as active state\n    state = State.Active;\n    emit StateChanged(state);\n  }\n\n  function getReleaseType(address _beneficiary)\n    public\n    view\n    onlyBeneficiary(_beneficiary)\n    returns (bool)\n  {\n    return releases[_beneficiary].isStraight;\n  }\n\n  function getTotalLockedAmounts(address _beneficiary)\n    public\n    view\n    onlyBeneficiary(_beneficiary)\n    returns (uint)\n  {\n    return getPartialAmount(beneficiaries[_beneficiary].ratio, coeff, initialBalance);\n  }\n\n  function getReleaseTimes(address _beneficiary)\n    public\n    view\n    onlyBeneficiary(_beneficiary)\n    returns (uint[])\n  {\n    return releases[_beneficiary].releaseTimes;\n  }\n\n  function getReleaseRatios(address _beneficiary)\n    public\n    view\n    onlyBeneficiary(_beneficiary)\n    returns (uint[])\n  {\n    return releases[_beneficiary].releaseRatios;\n  }\n\n  /**\n   * @notice add new release record for beneficiary\n   */\n  function lock(address _beneficiary, bool _isStraight, uint[] _releaseTimes, uint[] _releaseRatios)\n    external\n    onlyOwner\n    onlyState(State.Init)\n    onlyBeneficiary(_beneficiary)\n  {\n    require(!locked[_beneficiary]);\n    require(_releaseRatios.length != 0);\n    require(_releaseRatios.length == _releaseTimes.length);\n\n    uint i;\n    uint len = _releaseRatios.length;\n\n    // finally should release all tokens\n    require(_releaseRatios[len - 1] == coeff);\n\n    // check two array are ascending sorted\n    for(i = 0; i < len - 1; i++) {\n      require(_releaseTimes[i] < _releaseTimes[i + 1]);\n      require(_releaseRatios[i] < _releaseRatios[i + 1]);\n    }\n\n    // 2 release times for straight locking type\n    if (_isStraight) {\n      require(len == 2);\n    }\n\n    numLocks = numLocks.add(1);\n\n    // create Release for the beneficiary\n    releases[_beneficiary].isStraight = _isStraight;\n\n    // copy array of uint\n    releases[_beneficiary].releaseTimes = _releaseTimes;\n    releases[_beneficiary].releaseRatios = _releaseRatios;\n\n    // lock beneficiary\n    locked[_beneficiary] = true;\n    emit Locked(_beneficiary, _isStraight);\n\n    //  if all beneficiaries locked, change Locker state to change\n    if (numLocks == numBeneficiaries) {\n      state = State.Ready;\n      emit StateChanged(state);\n    }\n  }\n\n  /**\n   * @notice transfer releasable tokens for beneficiary wrt the release graph\n   */\n  function release() external onlyState(State.Active) onlyBeneficiary(msg.sender) {\n    require(!beneficiaries[msg.sender].releaseAllTokens);\n\n    uint releasableAmount = getReleasableAmount(msg.sender);\n    beneficiaries[msg.sender].withdrawAmount = beneficiaries[msg.sender].withdrawAmount.add(releasableAmount);\n\n    beneficiaries[msg.sender].releaseAllTokens = beneficiaries[msg.sender].withdrawAmount == getPartialAmount(\n      beneficiaries[msg.sender].ratio,\n      coeff,\n      initialBalance);\n\n    withdrawAmount = withdrawAmount.add(releasableAmount);\n\n    if (withdrawAmount == initialBalance) {\n      state = State.Drawn;\n      emit StateChanged(state);\n    }\n\n    token.transfer(msg.sender, releasableAmount);\n    emit Released(msg.sender, releasableAmount);\n  }\n\n  function getReleasableAmount(address _beneficiary) internal view returns (uint) {\n    if (releases[_beneficiary].isStraight) {\n      return getStraightReleasableAmount(_beneficiary);\n    } else {\n      return getVariableReleasableAmount(_beneficiary);\n    }\n  }\n\n  /**\n   * @notice return releaseable amount for beneficiary in case of straight type of release\n   */\n  function getStraightReleasableAmount(address _beneficiary) internal view returns (uint releasableAmount) {\n    Beneficiary memory _b = beneficiaries[_beneficiary];\n    Release memory _r = releases[_beneficiary];\n\n    // total amount of tokens beneficiary can release\n    uint totalReleasableAmount = getTotalLockedAmounts(_beneficiary);\n\n    uint firstTime = _r.releaseTimes[0];\n    uint lastTime = _r.releaseTimes[1];\n\n    // solium-disable security/no-block-members\n    require(now >= firstTime); // pass if can release\n    // solium-enable security/no-block-members\n\n    if(now >= lastTime) { // inclusive to reduce calculation\n      releasableAmount = totalReleasableAmount;\n    } else {\n      // releasable amount at first time\n      uint firstAmount = getPartialAmount(\n        _r.releaseRatios[0],\n        coeff,\n        totalReleasableAmount);\n\n      // partial amount without first amount\n      releasableAmount = getPartialAmount(\n        now.sub(firstTime),\n        lastTime.sub(firstTime),\n        totalReleasableAmount.sub(firstAmount));\n      releasableAmount = releasableAmount.add(firstAmount);\n    }\n\n    // subtract already withdrawn amounts\n    releasableAmount = releasableAmount.sub(_b.withdrawAmount);\n  }\n\n  /**\n   * @notice return releaseable amount for beneficiary in case of variable type of release\n   */\n  function getVariableReleasableAmount(address _beneficiary) internal view returns (uint releasableAmount) {\n    Beneficiary memory _b = beneficiaries[_beneficiary];\n    Release memory _r = releases[_beneficiary];\n\n    // total amount of tokens beneficiary will receive\n    uint totalReleasableAmount = getTotalLockedAmounts(_beneficiary);\n\n    uint releaseRatio;\n\n    // reverse order for short curcit\n    for(uint i = _r.releaseTimes.length - 1; i >= 0; i--) {\n      if (now >= _r.releaseTimes[i]) {\n        releaseRatio = _r.releaseRatios[i];\n        break;\n      }\n    }\n\n    require(releaseRatio > 0);\n\n    releasableAmount = getPartialAmount(\n      releaseRatio,\n      coeff,\n      totalReleasableAmount);\n    releasableAmount = releasableAmount.sub(_b.withdrawAmount);\n  }\n\n  /// https://github.com/0xProject/0x.js/blob/05aae368132a81ddb9fd6a04ac5b0ff1cbb24691/packages/contracts/src/current/protocol/Exchange/Exchange.sol#L497\n  /// @notice Calculates partial value given a numerator and denominator.\n  /// @param numerator Numerator.\n  /// @param denominator Denominator.\n  /// @param target Value to calculate partial of.\n  /// @return Partial value of target.\n  function getPartialAmount(uint numerator, uint denominator, uint target) public pure returns (uint) {\n    return numerator.mul(target).div(denominator);\n  }\n}\n",
  "sourcePath": "/Users/pjh/workspace/rbg-crowdsale/project/contracts/base/locker/Locker.sol",
  "compiler": {
    "name": "solc",
    "version": "0.4.24+commit.e67f0147.Emscripten.clang"
  },
  "schemaVersion": "2.0.0",
  "updatedAt": "2018-06-07T12:04:22.589Z"
}