{
  "contractName": "MessageHelper",
  "abi": [
    {
      "anonymous": false,
      "inputs": [
        {
          "indexed": false,
          "name": "b32",
          "type": "bytes32"
        },
        {
          "indexed": false,
          "name": "number",
          "type": "uint256"
        },
        {
          "indexed": false,
          "name": "text",
          "type": "string"
        }
      ],
      "name": "Show",
      "type": "event"
    },
    {
      "constant": false,
      "inputs": [
        {
          "name": "message",
          "type": "bytes32"
        },
        {
          "name": "number",
          "type": "uint256"
        },
        {
          "name": "text",
          "type": "string"
        }
      ],
      "name": "showMessage",
      "outputs": [
        {
          "name": "",
          "type": "bool"
        }
      ],
      "payable": false,
      "stateMutability": "nonpayable",
      "type": "function"
    },
    {
      "constant": false,
      "inputs": [],
      "name": "fail",
      "outputs": [],
      "payable": false,
      "stateMutability": "nonpayable",
      "type": "function"
    },
    {
      "constant": false,
      "inputs": [
        {
          "name": "to",
          "type": "address"
        },
        {
          "name": "data",
          "type": "bytes"
        }
      ],
      "name": "call",
      "outputs": [
        {
          "name": "",
          "type": "bool"
        }
      ],
      "payable": false,
      "stateMutability": "nonpayable",
      "type": "function"
    }
  ],
  "bytecode": "0x608060405234801561001057600080fd5b506102e0806100206000396000f3006080604052600436106100565763ffffffff7c01000000000000000000000000000000000000000000000000000000006000350416631b8b921d811461005b5780636e2e2e4d146100e3578063a9cc471814610143575b600080fd5b34801561006757600080fd5b5060408051602060046024803582810135601f81018590048502860185019096528585526100cf95833573ffffffffffffffffffffffffffffffffffffffff1695369560449491939091019190819084018382808284375094975061015a9650505050505050565b604080519115158252519081900360200190f35b3480156100ef57600080fd5b50604080516020600460443581810135601f81018490048402850184019095528484526100cf9482359460248035953695946064949201919081908401838280828437509497506101f79650505050505050565b34801561014f57600080fd5b50610158610056565b005b60008273ffffffffffffffffffffffffffffffffffffffff168260405180828051906020019080838360005b8381101561019e578181015183820152602001610186565b50505050905090810190601f1680156101cb5780820380516001836020036101000a031916815260200191505b509150506000604051808303816000865af1915050156101ed575060016101f1565b5060005b92915050565b60007f53f52bd5d580b08520e25370d30be415b61c6ff8e378023685ca03eec817b10f84848460405180846000191660001916815260200183815260200180602001828103825283818151815260200191508051906020019080838360005b8381101561026e578181015183820152602001610256565b50505050905090810190601f16801561029b5780820380516001836020036101000a031916815260200191505b5094505050505060405180910390a150600193925050505600a165627a7a72305820e541914b4beef30f0d2045cd5b25e5ea6fc8571adc59e2bc550765f074c0db170029",
  "source": "pragma solidity ^0.4.11;\n\ncontract MessageHelper {\n\n  event Show(bytes32 b32, uint256 number, string text);\n\n  function showMessage( bytes32 message, uint256 number, string text ) public returns (bool) {\n    Show(message, number, text);\n    return true;\n  }\n\n  function fail() public {\n    require(false);\n  }\n\n  function call(address to, bytes data) public returns (bool) {\n    if (to.call(data))\n      return true;\n    else\n      return false;\n  }\n\n}\n",
  "sourcePath": "/Users/pjh/workspace/rbg-crowdsale/project/contracts/base/zeppelin/mocks/MessageHelper.sol",
  "compiler": {
    "name": "solc",
    "version": "0.4.24+commit.e67f0147.Emscripten.clang"
  },
  "schemaVersion": "2.0.0",
  "updatedAt": "2018-06-01T09:11:30.186Z"
}