{
  "contractName": "MultiHolderVault",
  "abi": [
    {
      "constant": true,
      "inputs": [],
      "name": "initialized",
      "outputs": [
        {
          "name": "",
          "type": "bool"
        }
      ],
      "payable": false,
      "stateMutability": "view",
      "type": "function"
    },
    {
      "constant": true,
      "inputs": [],
      "name": "MAX_HOLDERS",
      "outputs": [
        {
          "name": "",
          "type": "uint8"
        }
      ],
      "payable": false,
      "stateMutability": "view",
      "type": "function"
    },
    {
      "constant": true,
      "inputs": [
        {
          "name": "",
          "type": "uint256"
        }
      ],
      "name": "holders",
      "outputs": [
        {
          "name": "addr",
          "type": "address"
        },
        {
          "name": "ratio",
          "type": "uint96"
        }
      ],
      "payable": false,
      "stateMutability": "view",
      "type": "function"
    },
    {
      "constant": true,
      "inputs": [],
      "name": "wallet",
      "outputs": [
        {
          "name": "",
          "type": "address"
        }
      ],
      "payable": false,
      "stateMutability": "view",
      "type": "function"
    },
    {
      "constant": true,
      "inputs": [],
      "name": "getHolderCount",
      "outputs": [
        {
          "name": "",
          "type": "uint256"
        }
      ],
      "payable": false,
      "stateMutability": "view",
      "type": "function"
    },
    {
      "constant": true,
      "inputs": [],
      "name": "coeff",
      "outputs": [
        {
          "name": "",
          "type": "uint256"
        }
      ],
      "payable": false,
      "stateMutability": "view",
      "type": "function"
    },
    {
      "constant": false,
      "inputs": [],
      "name": "enableRefunds",
      "outputs": [],
      "payable": false,
      "stateMutability": "nonpayable",
      "type": "function"
    },
    {
      "constant": true,
      "inputs": [],
      "name": "owner",
      "outputs": [
        {
          "name": "",
          "type": "address"
        }
      ],
      "payable": false,
      "stateMutability": "view",
      "type": "function"
    },
    {
      "constant": true,
      "inputs": [],
      "name": "state",
      "outputs": [
        {
          "name": "",
          "type": "uint8"
        }
      ],
      "payable": false,
      "stateMutability": "view",
      "type": "function"
    },
    {
      "constant": true,
      "inputs": [
        {
          "name": "",
          "type": "address"
        }
      ],
      "name": "deposited",
      "outputs": [
        {
          "name": "",
          "type": "uint256"
        }
      ],
      "payable": false,
      "stateMutability": "view",
      "type": "function"
    },
    {
      "constant": false,
      "inputs": [
        {
          "name": "_addrs",
          "type": "address[]"
        },
        {
          "name": "_ratios",
          "type": "uint96[]"
        }
      ],
      "name": "initHolders",
      "outputs": [],
      "payable": false,
      "stateMutability": "nonpayable",
      "type": "function"
    },
    {
      "constant": false,
      "inputs": [
        {
          "name": "newOwner",
          "type": "address"
        }
      ],
      "name": "transferOwnership",
      "outputs": [],
      "payable": false,
      "stateMutability": "nonpayable",
      "type": "function"
    },
    {
      "constant": false,
      "inputs": [
        {
          "name": "investor",
          "type": "address"
        }
      ],
      "name": "deposit",
      "outputs": [],
      "payable": true,
      "stateMutability": "payable",
      "type": "function"
    },
    {
      "constant": true,
      "inputs": [],
      "name": "distributed",
      "outputs": [
        {
          "name": "",
          "type": "bool"
        }
      ],
      "payable": false,
      "stateMutability": "view",
      "type": "function"
    },
    {
      "constant": false,
      "inputs": [
        {
          "name": "investor",
          "type": "address"
        }
      ],
      "name": "refund",
      "outputs": [],
      "payable": false,
      "stateMutability": "nonpayable",
      "type": "function"
    },
    {
      "inputs": [
        {
          "name": "_wallet",
          "type": "address"
        },
        {
          "name": "_ratioCoeff",
          "type": "uint256"
        }
      ],
      "payable": false,
      "stateMutability": "nonpayable",
      "type": "constructor"
    },
    {
      "anonymous": false,
      "inputs": [],
      "name": "Closed",
      "type": "event"
    },
    {
      "anonymous": false,
      "inputs": [],
      "name": "RefundsEnabled",
      "type": "event"
    },
    {
      "anonymous": false,
      "inputs": [
        {
          "indexed": true,
          "name": "beneficiary",
          "type": "address"
        },
        {
          "indexed": false,
          "name": "weiAmount",
          "type": "uint256"
        }
      ],
      "name": "Refunded",
      "type": "event"
    },
    {
      "anonymous": false,
      "inputs": [],
      "name": "Distributed",
      "type": "event"
    },
    {
      "anonymous": false,
      "inputs": [
        {
          "indexed": true,
          "name": "previousOwner",
          "type": "address"
        },
        {
          "indexed": true,
          "name": "newOwner",
          "type": "address"
        }
      ],
      "name": "OwnershipTransferred",
      "type": "event"
    },
    {
      "constant": false,
      "inputs": [],
      "name": "close",
      "outputs": [],
      "payable": false,
      "stateMutability": "nonpayable",
      "type": "function"
    }
  ],
  "bytecode": "0x608060405234801561001057600080fd5b50604051604080610c7d83398101604052805160209091015160008054600160a060020a03191633179055818180151561004957600080fd5b600155600160a060020a038116151561006157600080fd5b60058054600160a060020a031916600160a060020a03929092169190911760a060020a60ff021916905550610be090508061009d6000396000f3006080604052600436106100e55763ffffffff7c0100000000000000000000000000000000000000000000000000000000600035041663158ef93e81146100ea57806322e12720146101135780632a11ced01461013e57806343d726d614610186578063521eb2731461019d5780637136982b146101ce57806387b261ad146101f55780638c52dc411461020a5780638da5cb5b1461021f578063c19d93fb14610234578063cb13cddb1461026d578063ec5dfaa21461028e578063f2fde38b1461031c578063f340fa011461033d578063f84b903e14610351578063fa89401a14610366575b600080fd5b3480156100f657600080fd5b506100ff610387565b604080519115158252519081900360200190f35b34801561011f57600080fd5b50610128610395565b6040805160ff9092168252519081900360200190f35b34801561014a57600080fd5b5061015660043561039a565b60408051600160a060020a0390931683526bffffffffffffffffffffffff90911660208301528051918290030190f35b34801561019257600080fd5b5061019b6103d8565b005b3480156101a957600080fd5b506101b261043b565b60408051600160a060020a039092168252519081900360200190f35b3480156101da57600080fd5b506101e361044a565b60408051918252519081900360200190f35b34801561020157600080fd5b506101e3610450565b34801561021657600080fd5b5061019b610456565b34801561022b57600080fd5b506101b26104e0565b34801561024057600080fd5b506102496104ef565b6040518082600281111561025957fe5b60ff16815260200191505060405180910390f35b34801561027957600080fd5b506101e3600160a060020a03600435166104ff565b34801561029a57600080fd5b506040805160206004803580820135838102808601850190965280855261019b95369593946024949385019291829185019084908082843750506040805187358901803560208181028481018201909552818452989b9a9989019892975090820195509350839250850190849080828437509497506105119650505050505050565b34801561032857600080fd5b5061019b600160a060020a03600435166106d3565b61019b600160a060020a0360043516610767565b34801561035d57600080fd5b506100ff6107e7565b34801561037257600080fd5b5061019b600160a060020a03600435166107f0565b600254610100900460ff1681565b604081565b60038054829081106103a857fe5b600091825260209091200154600160a060020a038116915060a060020a90046bffffffffffffffffffffffff1682565b600054600160a060020a031633146103ef57600080fd5b600060055460a060020a900460ff16600281111561040957fe5b1461041357600080fd5b600254610100900460ff16151561042957600080fd5b6104316108a5565b610439610a8d565b565b600554600160a060020a031681565b60035490565b60015481565b600054600160a060020a0316331461046d57600080fd5b600060055460a060020a900460ff16600281111561048757fe5b1461049157600080fd5b6005805474ff0000000000000000000000000000000000000000191660a060020a1790556040517f599d8e5a83cffb867d051598c4d70e805d59802d8081c1c7d6dffc5b6aca2b8990600090a1565b600054600160a060020a031681565b60055460a060020a900460ff1681565b60046020526000908152604090205481565b600080548190600160a060020a0316331461052b57600080fd5b600254610100900460ff161561054057600080fd5b6003541561054d57600080fd5b8351151561055a57600080fd5b83516040101561056957600080fd5b825184511461057757600080fd5b5060005b83518160ff1610156106af578351600090859060ff841690811061059b57fe5b60209081029091010151600160a060020a03161461066c5760036040805190810160405280868460ff168151811015156105d157fe5b90602001906020020151600160a060020a03168152602001858460ff168151811015156105fa57fe5b60209081029091018101516bffffffffffffffffffffffff9081169092528354600181018555600094855293819020835194018054939091015190911660a060020a02600160a060020a0393841673ffffffffffffffffffffffffffffffffffffffff19909316929092179092161790555b6106a5838260ff1681518110151561068057fe5b6020908102909101015183906bffffffffffffffffffffffff1663ffffffff610b6316565b915060010161057b565b6001548211156106be57600080fd5b50506002805461ff0019166101001790555050565b600054600160a060020a031633146106ea57600080fd5b600160a060020a03811615156106ff57600080fd5b60008054604051600160a060020a03808516939216917f8be0079c531659141344cd1fd0a4f28419497f9722a3daafe3b4186f6b6457e091a36000805473ffffffffffffffffffffffffffffffffffffffff1916600160a060020a0392909216919091179055565b600054600160a060020a0316331461077e57600080fd5b600060055460a060020a900460ff16600281111561079857fe5b146107a257600080fd5b600160a060020a0381166000908152600460205260409020546107cb903463ffffffff610b6316565b600160a060020a03909116600090815260046020526040902055565b60025460ff1681565b6000600160055460a060020a900460ff16600281111561080c57fe5b1461081657600080fd5b50600160a060020a038116600081815260046020526040808220805490839055905190929183156108fc02918491818181858888f19350505050158015610861573d6000803e3d6000fd5b50604080518281529051600160a060020a038416917fd7dee2702d63ad89917b6a4da9981c90c4d24f8c2bdfd64c604ecae57d8d0651919081900360200190a25050565b6002546000908190819060ff161561091e57604080517f08c379a000000000000000000000000000000000000000000000000000000000815260206004820152601360248201527f416c726561647920646973747269627574656400000000000000000000000000604482015290519081900360640190fd5b303192506000831161099157604080517f08c379a000000000000000000000000000000000000000000000000000000000815260206004820152601660248201527f4e6f20657468657220746f206469737472696275746500000000000000000000604482015290519081900360640190fd5b6002805460ff19166001179055600091505b60035460ff83161015610a5f576109ff6001546109f360038560ff168154811015156109cb57fe5b600091825260209091200154869060a060020a90046bffffffffffffffffffffffff16610b76565b9063ffffffff610b9f16565b905060038260ff16815481101515610a1357fe5b6000918252602082200154604051600160a060020a039091169183156108fc02918491818181858888f19350505050158015610a53573d6000803e3d6000fd5b506001909101906109a3565b6040517fb8b570f14eb44ed11fb6b2ac2ff61ceb5b29da5ae60d33184ae20b08f3a47c8990600090a1505050565b600054600160a060020a03163314610aa457600080fd5b600060055460a060020a900460ff166002811115610abe57fe5b14610ac857600080fd5b6005805474ff00000000000000000000000000000000000000001916740200000000000000000000000000000000000000001790556040517f1cdde67b72a90f19919ac732a437ac2f7a10fc128d28c2a6e525d89ce5cd9d3a90600090a1600554604051600160a060020a0390911690303180156108fc02916000818181858888f19350505050158015610b60573d6000803e3d6000fd5b50565b81810182811015610b7057fe5b92915050565b6000821515610b8757506000610b70565b50818102818382811515610b9757fe5b0414610b7057fe5b60008183811515610bac57fe5b0493925050505600a165627a7a72305820ca64f99371fe970c533c3f6f8bbf9f4f22c9fb72b631e9c41c555dbc3e9351de0029",
  "source": "pragma solidity ^0.4.24;\n\nimport \"openzeppelin-solidity/contracts/math/SafeMath.sol\";\nimport \"openzeppelin-solidity/contracts/crowdsale/distribution/utils/RefundVault.sol\";\nimport \"../common/HolderBase.sol\";\n\n/**\n * @title MultiHolderVault\n * @dev This contract distribute ether to multiple address.\n */\ncontract MultiHolderVault is HolderBase, RefundVault {\n  using SafeMath for uint256;\n\n  function MultiHolderVault(address _wallet, uint256 _ratioCoeff)\n    public\n    HolderBase(_ratioCoeff)\n    RefundVault(_wallet)\n  {}\n\n  function close() public onlyOwner {\n    require(state == State.Active);\n    require(initialized);\n\n    super.distribute(); // distribute ether to holders\n    super.close(); // transfer remaining ether to wallet\n  }\n}\n",
  "sourcePath": "/Users/pjh/workspace/rbg-crowdsale/project/contracts/base/vault/MultiHolderVault.sol",
  "compiler": {
    "name": "solc",
    "version": "0.4.24+commit.e67f0147.Emscripten.clang"
  },
  "schemaVersion": "2.0.0",
  "updatedAt": "2018-06-07T12:04:22.560Z"
}