{
  "contractName": "PausableMock",
  "abi": [
    {
      "constant": true,
      "inputs": [],
      "name": "count",
      "outputs": [
        {
          "name": "",
          "type": "uint256"
        }
      ],
      "payable": false,
      "stateMutability": "view",
      "type": "function"
    },
    {
      "constant": false,
      "inputs": [],
      "name": "unpause",
      "outputs": [],
      "payable": false,
      "stateMutability": "nonpayable",
      "type": "function"
    },
    {
      "constant": true,
      "inputs": [],
      "name": "paused",
      "outputs": [
        {
          "name": "",
          "type": "bool"
        }
      ],
      "payable": false,
      "stateMutability": "view",
      "type": "function"
    },
    {
      "constant": true,
      "inputs": [],
      "name": "drasticMeasureTaken",
      "outputs": [
        {
          "name": "",
          "type": "bool"
        }
      ],
      "payable": false,
      "stateMutability": "view",
      "type": "function"
    },
    {
      "constant": false,
      "inputs": [],
      "name": "pause",
      "outputs": [],
      "payable": false,
      "stateMutability": "nonpayable",
      "type": "function"
    },
    {
      "constant": true,
      "inputs": [],
      "name": "owner",
      "outputs": [
        {
          "name": "",
          "type": "address"
        }
      ],
      "payable": false,
      "stateMutability": "view",
      "type": "function"
    },
    {
      "constant": false,
      "inputs": [
        {
          "name": "newOwner",
          "type": "address"
        }
      ],
      "name": "transferOwnership",
      "outputs": [],
      "payable": false,
      "stateMutability": "nonpayable",
      "type": "function"
    },
    {
      "inputs": [],
      "payable": false,
      "stateMutability": "nonpayable",
      "type": "constructor"
    },
    {
      "anonymous": false,
      "inputs": [],
      "name": "Pause",
      "type": "event"
    },
    {
      "anonymous": false,
      "inputs": [],
      "name": "Unpause",
      "type": "event"
    },
    {
      "anonymous": false,
      "inputs": [
        {
          "indexed": true,
          "name": "previousOwner",
          "type": "address"
        },
        {
          "indexed": true,
          "name": "newOwner",
          "type": "address"
        }
      ],
      "name": "OwnershipTransferred",
      "type": "event"
    },
    {
      "constant": false,
      "inputs": [],
      "name": "normalProcess",
      "outputs": [],
      "payable": false,
      "stateMutability": "nonpayable",
      "type": "function"
    },
    {
      "constant": false,
      "inputs": [],
      "name": "drasticMeasure",
      "outputs": [],
      "payable": false,
      "stateMutability": "nonpayable",
      "type": "function"
    }
  ],
  "bytecode": "0x60806040526000805460a060020a60ff021916905534801561002057600080fd5b506000805460a860020a60ff0219600160a060020a03199091163317168155600155610414806100516000396000f3006080604052600436106100985763ffffffff7c010000000000000000000000000000000000000000000000000000000060003504166306661abd811461009d5780633f4ba83a146100c45780635c975abb146100db57806376657b8e146101045780638456cb59146101195780638da5cb5b1461012e5780639958f0451461015f578063e7651d7a14610174578063f2fde38b14610189575b600080fd5b3480156100a957600080fd5b506100b26101aa565b60408051918252519081900360200190f35b3480156100d057600080fd5b506100d96101b0565b005b3480156100e757600080fd5b506100f0610226565b604080519115158252519081900360200190f35b34801561011057600080fd5b506100f0610236565b34801561012557600080fd5b506100d9610258565b34801561013a57600080fd5b506101436102d3565b60408051600160a060020a039092168252519081900360200190f35b34801561016b57600080fd5b506100d96102e2565b34801561018057600080fd5b506100d9610333565b34801561019557600080fd5b506100d9600160a060020a0360043516610354565b60015481565b600054600160a060020a031633146101c757600080fd5b60005460a060020a900460ff1615156101df57600080fd5b6000805474ff0000000000000000000000000000000000000000191681556040517f7805862f689e2f13df9f062ff482ad3ad112aca9e0847911ed832e158c525b339190a1565b60005460a060020a900460ff1681565b6000547501000000000000000000000000000000000000000000900460ff1681565b600054600160a060020a0316331461026f57600080fd5b60005460a060020a900460ff161561028657600080fd5b6000805474ff0000000000000000000000000000000000000000191660a060020a1781556040517f6985a02210a168e66602d3235cb6db0e70f92b3ba4d376a33c0f3d9434bff6259190a1565b600054600160a060020a031681565b60005460a060020a900460ff1615156102fa57600080fd5b6000805475ff00000000000000000000000000000000000000000019167501000000000000000000000000000000000000000000179055565b60005460a060020a900460ff161561034a57600080fd5b6001805481019055565b600054600160a060020a0316331461036b57600080fd5b600160a060020a038116151561038057600080fd5b60008054604051600160a060020a03808516939216917f8be0079c531659141344cd1fd0a4f28419497f9722a3daafe3b4186f6b6457e091a36000805473ffffffffffffffffffffffffffffffffffffffff1916600160a060020a03929092169190911790555600a165627a7a72305820130972916ed13eff4a2263d5301f826eccba8e45cd0904d549b399f0c2db2f7b0029",
  "source": "pragma solidity ^0.4.18;\n\n\nimport \"../lifecycle/Pausable.sol\";\n\n\n// mock class using Pausable\ncontract PausableMock is Pausable {\n  bool public drasticMeasureTaken;\n  uint256 public count;\n\n  function PausableMock() public {\n    drasticMeasureTaken = false;\n    count = 0;\n  }\n\n  function normalProcess() external whenNotPaused {\n    count++;\n  }\n\n  function drasticMeasure() external whenPaused {\n    drasticMeasureTaken = true;\n  }\n\n}\n",
  "sourcePath": "/Users/pjh/workspace/rbg-crowdsale/project/contracts/base/zeppelin/mocks/PausableMock.sol",
  "compiler": {
    "name": "solc",
    "version": "0.4.24+commit.e67f0147.Emscripten.clang"
  },
  "schemaVersion": "2.0.0",
  "updatedAt": "2018-06-03T08:53:55.784Z"
}