{
  "contractName": "POSController",
  "abi": [
    {
      "constant": true,
      "inputs": [],
      "name": "initBlockNumber",
      "outputs": [
        {
          "name": "",
          "type": "uint256"
        }
      ],
      "payable": false,
      "stateMutability": "view",
      "type": "function"
    },
    {
      "constant": true,
      "inputs": [],
      "name": "posInterval",
      "outputs": [
        {
          "name": "",
          "type": "uint256"
        }
      ],
      "payable": false,
      "stateMutability": "view",
      "type": "function"
    },
    {
      "constant": true,
      "inputs": [],
      "name": "posCoeff",
      "outputs": [
        {
          "name": "",
          "type": "uint256"
        }
      ],
      "payable": false,
      "stateMutability": "view",
      "type": "function"
    },
    {
      "constant": true,
      "inputs": [],
      "name": "owner",
      "outputs": [
        {
          "name": "",
          "type": "address"
        }
      ],
      "payable": false,
      "stateMutability": "view",
      "type": "function"
    },
    {
      "constant": true,
      "inputs": [
        {
          "name": "",
          "type": "address"
        },
        {
          "name": "",
          "type": "uint256"
        }
      ],
      "name": "claims",
      "outputs": [
        {
          "name": "fromBlock",
          "type": "uint128"
        },
        {
          "name": "claimedValue",
          "type": "uint128"
        }
      ],
      "payable": false,
      "stateMutability": "view",
      "type": "function"
    },
    {
      "constant": true,
      "inputs": [],
      "name": "posRate",
      "outputs": [
        {
          "name": "",
          "type": "uint256"
        }
      ],
      "payable": false,
      "stateMutability": "view",
      "type": "function"
    },
    {
      "constant": false,
      "inputs": [
        {
          "name": "newOwner",
          "type": "address"
        }
      ],
      "name": "transferOwnership",
      "outputs": [],
      "payable": false,
      "stateMutability": "nonpayable",
      "type": "function"
    },
    {
      "constant": true,
      "inputs": [],
      "name": "token",
      "outputs": [
        {
          "name": "",
          "type": "address"
        }
      ],
      "payable": false,
      "stateMutability": "view",
      "type": "function"
    },
    {
      "inputs": [
        {
          "name": "_token",
          "type": "address"
        },
        {
          "name": "_posInterval",
          "type": "uint256"
        },
        {
          "name": "_initBlockNumber",
          "type": "uint256"
        },
        {
          "name": "_posRate",
          "type": "uint256"
        },
        {
          "name": "_posCoeff",
          "type": "uint256"
        }
      ],
      "payable": false,
      "stateMutability": "nonpayable",
      "type": "constructor"
    },
    {
      "anonymous": false,
      "inputs": [
        {
          "indexed": true,
          "name": "_owner",
          "type": "address"
        },
        {
          "indexed": false,
          "name": "_amount",
          "type": "uint256"
        }
      ],
      "name": "Claimed",
      "type": "event"
    },
    {
      "anonymous": false,
      "inputs": [
        {
          "indexed": true,
          "name": "previousOwner",
          "type": "address"
        },
        {
          "indexed": true,
          "name": "newOwner",
          "type": "address"
        }
      ],
      "name": "OwnershipTransferred",
      "type": "event"
    },
    {
      "constant": false,
      "inputs": [
        {
          "name": "_owner",
          "type": "address"
        }
      ],
      "name": "claimTokens",
      "outputs": [],
      "payable": false,
      "stateMutability": "nonpayable",
      "type": "function"
    },
    {
      "constant": false,
      "inputs": [
        {
          "name": "_to",
          "type": "address"
        }
      ],
      "name": "claimTokenOwnership",
      "outputs": [],
      "payable": false,
      "stateMutability": "nonpayable",
      "type": "function"
    },
    {
      "constant": false,
      "inputs": [
        {
          "name": "_owner",
          "type": "address"
        }
      ],
      "name": "proxyPayment",
      "outputs": [
        {
          "name": "",
          "type": "bool"
        }
      ],
      "payable": true,
      "stateMutability": "payable",
      "type": "function"
    },
    {
      "constant": false,
      "inputs": [
        {
          "name": "_from",
          "type": "address"
        },
        {
          "name": "_to",
          "type": "address"
        },
        {
          "name": "_amount",
          "type": "uint256"
        }
      ],
      "name": "onTransfer",
      "outputs": [
        {
          "name": "",
          "type": "bool"
        }
      ],
      "payable": false,
      "stateMutability": "nonpayable",
      "type": "function"
    },
    {
      "constant": false,
      "inputs": [
        {
          "name": "_owner",
          "type": "address"
        },
        {
          "name": "_spender",
          "type": "address"
        },
        {
          "name": "_amount",
          "type": "uint256"
        }
      ],
      "name": "onApprove",
      "outputs": [
        {
          "name": "",
          "type": "bool"
        }
      ],
      "payable": false,
      "stateMutability": "nonpayable",
      "type": "function"
    }
  ],
  "bytecode": "0x608060405234801561001057600080fd5b5060405160a080610d058339810160409081528151602083015191830151606084015160809094015160008054600160a060020a0319163317905591939091600160a060020a038516151561006457600080fd5b83151561007057600080fd5b81151561007c57600080fd5b80151561008857600080fd5b60018054600160a060020a031916600160a060020a0387161790556002849055600382905560048190558215156100c257436005556100c8565b60058390555b5050505050610c29806100dc6000396000f3006080604052600436106100c45763ffffffff7c010000000000000000000000000000000000000000000000000000000060003504166321615f6e81146100c957806331dde16e146100f05780634a393149146101055780638b048109146101435780638da5cb5b14610158578063ab541a8514610189578063da682aeb146101dc578063df8de3e714610206578063e229e47514610229578063e900604d1461023e578063f2fde38b1461025f578063f48c305414610280578063fc0c546a14610294575b600080fd5b3480156100d557600080fd5b506100de6102a9565b60408051918252519081900360200190f35b3480156100fc57600080fd5b506100de6102af565b34801561011157600080fd5b5061012f600160a060020a03600435811690602435166044356102b5565b604080519115158252519081900360200190f35b34801561014f57600080fd5b506100de6102d3565b34801561016457600080fd5b5061016d6102d9565b60408051600160a060020a039092168252519081900360200190f35b34801561019557600080fd5b506101ad600160a060020a03600435166024356102e8565b604080516fffffffffffffffffffffffffffffffff938416815291909216602082015281519081900390910190f35b3480156101e857600080fd5b5061012f600160a060020a0360043581169060243516604435610340565b34801561021257600080fd5b50610227600160a060020a0360043516610349565b005b34801561023557600080fd5b506100de61036f565b34801561024a57600080fd5b50610227600160a060020a0360043516610375565b34801561026b57600080fd5b50610227600160a060020a036004351661040e565b61012f600160a060020a03600435166104a2565b3480156102a057600080fd5b5061016d6104ae565b60055481565b60025481565b60006102c084610349565b6102c983610349565b5060019392505050565b60045481565b600054600160a060020a031681565b60066020528160005260406000208181548110151561030357fe5b6000918252602090912001546fffffffffffffffffffffffffffffffff808216935070010000000000000000000000000000000090910416905082565b60019392505050565b600160a060020a038116600090815260066020526040902061036c9082906104bd565b50565b60035481565b600054600160a060020a0316331461038c57600080fd5b600154604080517f52effe11000000000000000000000000000000000000000000000000000000008152600160a060020a038481166004830152915191909216916352effe1191602480830192600092919082900301818387803b1580156103f357600080fd5b505af1158015610407573d6000803e3d6000fd5b5050505050565b600054600160a060020a0316331461042557600080fd5b600160a060020a038116151561043a57600080fd5b60008054604051600160a060020a03808516939216917f8be0079c531659141344cd1fd0a4f28419497f9722a3daafe3b4186f6b6457e091a36000805473ffffffffffffffffffffffffffffffffffffffff1916600160a060020a0392909216919091179055565b6000806000fd5b919050565b600154600160a060020a031681565b6000806000806000858054905060001480156104dd57506104dd4361076b565b156104f3576104ec600061078e565b9450610579565b8554600010801561053857508554610538908790600019810190811061051557fe5b6000918252602090912001546fffffffffffffffffffffffffffffffff1661076b565b15610579578554610576908790600019810190811061055357fe5b6000918252602090912001546fffffffffffffffffffffffffffffffff1661078e565b94505b600085111561076257855486906105938260018301610bb3565b8154811061059d57fe5b60009182526020808320600154604080517f70a08231000000000000000000000000000000000000000000000000000000008152600160a060020a038e81166004830152915193909501995016936370a08231936024808201949392918390030190829087803b15801561061057600080fd5b505af1158015610624573d6000803e3d6000fd5b505050506040513d602081101561063a57600080fd5b5051925082151561064a57610762565b60045461067d90610671610664828963ffffffff61087116565b869063ffffffff61088416565b9063ffffffff6108ad16565b915061068f828463ffffffff6108c216565b8454436fffffffffffffffffffffffffffffffff908116818416700100000000000000000000000000000000908102938316939093176fffffffffffffffffffffffffffffffff1916178088559293506106ed928a929004166108d4565b15156106f857600080fd5b8354604080516fffffffffffffffffffffffffffffffff70010000000000000000000000000000000090930492909216825251600160a060020a038916917fd8138f8a3f377c5259ca548e70e4c2de94f129f5a11036a15b69513cba2b426a919081900360200190a25b50505050505050565b600060055482101561077f575060006104a9565b50600254600554909103101590565b600080808080808615156107a65760055494506107dc565b6002546005546107bd90899063ffffffff6108c216565b8115156107c657fe5b0693506107d9878563ffffffff6108c216565b94505b6002546107ef438763ffffffff6108c216565b8115156107f857fe5b04925082151561080b5760009550610867565b505060035460005b6001830381101561086357600354600454610859919061084d90610671610840828563ffffffff61087116565b879063ffffffff61088416565b9063ffffffff61087116565b9150600101610813565b8195505b5050505050919050565b8181018281101561087e57fe5b92915050565b60008215156108955750600061087e565b508181028183828115156108a557fe5b041461087e57fe5b600081838115156108ba57fe5b049392505050565b6000828211156108ce57fe5b50900390565b600154604080517f6d696e7428616464726573732c75696e74323536290000000000000000000000815281519081900360150181207f01ffc9a70000000000000000000000000000000000000000000000000000000082527bffffffffffffffffffffffffffffffffffffffffffffffffffffffff191660048201529051600092600160a060020a0316916301ffc9a791602480830192602092919082900301818787803b15801561098557600080fd5b505af1158015610999573d6000803e3d6000fd5b505050506040513d60208110156109af57600080fd5b505115610a5857600154604080517f40c10f19000000000000000000000000000000000000000000000000000000008152600160a060020a03868116600483015260248201869052915191909216916340c10f199160448083019260209291908290030181600087803b158015610a2557600080fd5b505af1158015610a39573d6000803e3d6000fd5b505050506040513d6020811015610a4f57600080fd5b5051905061087e565b600154604080517f67656e6572617465546f6b656e7328616464726573732c75696e7432353629008152815190819003601f0181207f01ffc9a70000000000000000000000000000000000000000000000000000000082527bffffffffffffffffffffffffffffffffffffffffffffffffffffffff191660048201529051600160a060020a03909216916301ffc9a7916024808201926020929091908290030181600087803b158015610b0a57600080fd5b505af1158015610b1e573d6000803e3d6000fd5b505050506040513d6020811015610b3457600080fd5b505115610baa57600154604080517f827f32c0000000000000000000000000000000000000000000000000000000008152600160a060020a038681166004830152602482018690529151919092169163827f32c09160448083019260209291908290030181600087803b158015610a2557600080fd5b50600092915050565b815481835581811115610bd757600083815260209020610bd7918101908301610bdc565b505050565b610bfa91905b80821115610bf65760008155600101610be2565b5090565b905600a165627a7a72305820e43c05d85c041aed39b1d20212362b7c425843b13393e24164db3d1d76c326a30029",
  "source": "pragma solidity ^0.4.18;\n\nimport \"openzeppelin-solidity/contracts/math/SafeMath.sol\";\nimport \"openzeppelin-solidity/contracts/ownership/Ownable.sol\";\nimport \"openzeppelin-solidity/contracts/token/ERC20/ERC20.sol\";\nimport \"minimetoken/contracts/TokenController.sol\";\nimport \"./interfaces/POSTokenI.sol\";\n\n\n/// @title POSController\n/// @dev POSController is a token controller that generate token interests.\n///  according to parameters(rate, coeff, interval blocks).\n///  It should be controller of `MiniMeToken` or owner of `MintableToken`.\ncontract POSController is Ownable, TokenController {\n  using SafeMath for uint256;\n\n  struct Claim {\n    uint128 fromBlock;\n    uint128 claimedValue;\n  }\n\n  address public token;\n\n  // POSController parameters\n  uint256 public posInterval;\n  uint256 public posRate;\n  uint256 public posCoeff;\n\n  uint256 public initBlockNumber;\n\n  mapping (address => Claim[]) public claims;\n\n  event Claimed(address indexed _owner, uint256 _amount);\n\n  /* Constructor */\n  function POSController(\n    address _token,\n    uint256 _posInterval,\n    uint256 _initBlockNumber,\n    uint256 _posRate,\n    uint256 _posCoeff\n  ) public {\n    require(_token != address(0));\n\n    require(_posInterval != 0);\n    require(_posRate != 0);\n    require(_posCoeff != 0);\n\n    token = _token;\n    posInterval = _posInterval;\n    posRate = _posRate;\n    posCoeff = _posCoeff;\n\n    if (_initBlockNumber == 0) {\n      initBlockNumber = block.number;\n    } else {\n      initBlockNumber = _initBlockNumber;\n    }\n  }\n\n  /* External */\n\n  /* Public */\n  /// @notice claim interests generated by POSController\n  function claimTokens(address _owner) public {\n    doClaim(_owner, claims[_owner]);\n  }\n\n  /// @notice transfer token ownerhsip\n  function claimTokenOwnership(address _to) public onlyOwner {\n    POSTokenI(token).transferOwnershipTo(_to);\n  }\n\n  /// @notice proxyPayment implements MiniMeToken Controller's proxyPayment\n  function proxyPayment(address _owner) public payable returns(bool) {\n    revert(); // reject ether transfer to token contract\n    return false;\n  }\n\n  /// @notice onTransfer implements MiniMeToken Controller's onTransfer\n  function onTransfer(address _from, address _to, uint _amount) public returns(bool) {\n    claimTokens(_from);\n    claimTokens(_to);\n    return true;\n  }\n\n  /// @notice onApprove implements MiniMeToken Controller's onApprove\n  function onApprove(address _owner, address _spender, uint _amount) public returns(bool) {\n    return true;\n  }\n\n  /* Internal */\n  function doClaim(address _owner, Claim[] storage c) internal {\n    uint256 claimRate;\n\n    if (c.length == 0 && claimable(block.number)) {\n      claimRate = getClaimRate(0);\n    } else if (c.length > 0 && claimable(c[c.length - 1].fromBlock)) {\n      claimRate = getClaimRate(c[c.length - 1].fromBlock);\n    }\n\n    if (claimRate > 0) {\n      Claim storage newClaim = c[c.length++];\n\n      uint256 balance = ERC20(token).balanceOf(_owner);\n\n      // Short cuircit if there is no token to claim\n      if (balance == 0) {\n        return;\n      }\n\n      // TODO: reduce variables into few statements\n      uint256 targetBalance = balance.mul(posCoeff.add(claimRate)).div(posCoeff);\n      uint256 claimedValue = targetBalance.sub(balance);\n\n      newClaim.claimedValue = uint128(claimedValue);\n      newClaim.fromBlock = uint128(block.number);\n\n      require(generateTokens(_owner, newClaim.claimedValue));\n\n      emit Claimed(_owner, newClaim.claimedValue);\n    }\n  }\n\n  function generateTokens(address _to, uint256 _value) internal returns (bool) {\n    if (POSTokenI(token).supportsInterface(bytes4(keccak256(\"mint(address,uint256)\")))) {\n      return MintableTokenI(token).mint(_to, _value);\n    } else if (POSTokenI(token).supportsInterface(bytes4(keccak256(\"generateTokens(address,uint256)\")))) {\n      return MiniMeTokenI(token).generateTokens(_to, _value);\n    }\n\n    return false;\n  }\n\n  function claimable(uint256 _blockNumber) internal view returns (bool) {\n    if (_blockNumber < initBlockNumber) return false;\n\n    return (_blockNumber - initBlockNumber) >= posInterval;\n  }\n\n  function getClaimRate(uint256 _fromBlock) internal view returns (uint256) {\n    // interval block number when token holder get interests.\n    // if holder didn't claim before, `initBlockNumber`\n    // otherwise, n-th interval block (`initBlockNumber` + k * `posInterval`)\n    uint256 lastIntervalBlock;\n\n    if (_fromBlock == 0) { // first claim\n      lastIntervalBlock = initBlockNumber;\n    } else { // second or further claim\n      uint256 offset = _fromBlock.sub(initBlockNumber) % posInterval;\n      lastIntervalBlock = _fromBlock.sub(offset);\n    }\n\n    // # of cumulative claims\n    uint256 pow = block.number.sub(lastIntervalBlock) / posInterval;\n\n    // no token to claim\n    if (pow == 0) {\n      return 0;\n    }\n\n    // assume 1 claim is given to reduce loop iteration\n    uint256 rate = posRate;\n\n    // if claim rate is 10%,\n    // 1st claim: 10%\n    // 2nd claim: 10% + 11%\n    // 3rd claim: 10% + (10% + 11%) * 110%\n    //\n    // ith claim: posRate + [i-1th claim] * (posCoeff + posRate) / posCoeff\n    for (uint256 i = 0; i < pow - 1; i++) {\n      rate = rate.mul(posCoeff.add(posRate)).div(posCoeff).add(posRate);\n    }\n\n    return rate;\n  }\n}\n",
  "sourcePath": "pos-controller/contracts/POSController.sol",
  "compiler": {
    "name": "solc",
    "version": "0.4.24+commit.e67f0147.Emscripten.clang"
  },
  "schemaVersion": "2.0.0",
  "updatedAt": "2018-06-07T12:04:18.381Z"
}