{
  "contractName": "PullPaymentMock",
  "abi": [
    {
      "constant": true,
      "inputs": [],
      "name": "totalPayments",
      "outputs": [
        {
          "name": "",
          "type": "uint256"
        }
      ],
      "payable": false,
      "stateMutability": "view",
      "type": "function"
    },
    {
      "constant": false,
      "inputs": [],
      "name": "withdrawPayments",
      "outputs": [],
      "payable": false,
      "stateMutability": "nonpayable",
      "type": "function"
    },
    {
      "constant": true,
      "inputs": [
        {
          "name": "",
          "type": "address"
        }
      ],
      "name": "payments",
      "outputs": [
        {
          "name": "",
          "type": "uint256"
        }
      ],
      "payable": false,
      "stateMutability": "view",
      "type": "function"
    },
    {
      "inputs": [],
      "payable": true,
      "stateMutability": "payable",
      "type": "constructor"
    },
    {
      "constant": false,
      "inputs": [
        {
          "name": "dest",
          "type": "address"
        },
        {
          "name": "amount",
          "type": "uint256"
        }
      ],
      "name": "callSend",
      "outputs": [],
      "payable": false,
      "stateMutability": "nonpayable",
      "type": "function"
    }
  ],
  "bytecode": "0x608060405261027a806100136000396000f3006080604052600436106100605763ffffffff7c01000000000000000000000000000000000000000000000000000000006000350416625b448781146100655780636103d70b1461008c578063752c5628146100a3578063e2982c21146100d4575b600080fd5b34801561007157600080fd5b5061007a610102565b60408051918252519081900360200190f35b34801561009857600080fd5b506100a1610108565b005b3480156100af57600080fd5b506100a173ffffffffffffffffffffffffffffffffffffffff60043516602435610194565b3480156100e057600080fd5b5061007a73ffffffffffffffffffffffffffffffffffffffff6004351661019e565b60015481565b3360008181526020819052604090205480151561012457600080fd5b303181111561013257600080fd5b600154610145908263ffffffff6101b016565b60015573ffffffffffffffffffffffffffffffffffffffff82166000818152602081905260408082208290555183156108fc0291849190818181858888f19350505050151561019057fe5b5050565b61019082826101c2565b60006020819052908152604090205481565b6000828211156101bc57fe5b50900390565b73ffffffffffffffffffffffffffffffffffffffff82166000908152602081905260409020546101f8908263ffffffff61023816565b73ffffffffffffffffffffffffffffffffffffffff8316600090815260208190526040902055600154610231908263ffffffff61023816565b6001555050565b60008282018381101561024757fe5b93925050505600a165627a7a723058205c29363b350346274148e101d0a0a1e906b0d544745d57385f6be8338216891c0029",
  "source": "pragma solidity ^0.4.18;\n\n\nimport \"../payment/PullPayment.sol\";\n\n\n// mock class using PullPayment\ncontract PullPaymentMock is PullPayment {\n\n  function PullPaymentMock() public payable { }\n\n  // test helper function to call asyncSend\n  function callSend(address dest, uint256 amount) public {\n    asyncSend(dest, amount);\n  }\n\n}\n",
  "sourcePath": "/Users/pjh/workspace/rbg-crowdsale/project/contracts/base/zeppelin/mocks/PullPaymentMock.sol",
  "compiler": {
    "name": "solc",
    "version": "0.4.24+commit.e67f0147.Emscripten.clang"
  },
  "schemaVersion": "2.0.0",
  "updatedAt": "2018-06-03T08:58:08.956Z"
}