{
  "contractName": "RankingBallGoldCustomToken",
  "abi": [
    {
      "constant": true,
      "inputs": [
        {
          "name": "interfaceID",
          "type": "bytes4"
        }
      ],
      "name": "supportsInterface",
      "outputs": [
        {
          "name": "",
          "type": "bool"
        }
      ],
      "payable": false,
      "stateMutability": "view",
      "type": "function"
    },
    {
      "constant": true,
      "inputs": [],
      "name": "name",
      "outputs": [
        {
          "name": "",
          "type": "string"
        }
      ],
      "payable": false,
      "stateMutability": "view",
      "type": "function"
    },
    {
      "constant": false,
      "inputs": [
        {
          "name": "_spender",
          "type": "address"
        },
        {
          "name": "_amount",
          "type": "uint256"
        }
      ],
      "name": "approve",
      "outputs": [
        {
          "name": "success",
          "type": "bool"
        }
      ],
      "payable": false,
      "stateMutability": "nonpayable",
      "type": "function"
    },
    {
      "constant": true,
      "inputs": [],
      "name": "creationBlock",
      "outputs": [
        {
          "name": "",
          "type": "uint256"
        }
      ],
      "payable": false,
      "stateMutability": "view",
      "type": "function"
    },
    {
      "constant": true,
      "inputs": [],
      "name": "totalSupply",
      "outputs": [
        {
          "name": "",
          "type": "uint256"
        }
      ],
      "payable": false,
      "stateMutability": "view",
      "type": "function"
    },
    {
      "constant": false,
      "inputs": [
        {
          "name": "_from",
          "type": "address"
        },
        {
          "name": "_to",
          "type": "address"
        },
        {
          "name": "_amount",
          "type": "uint256"
        }
      ],
      "name": "transferFrom",
      "outputs": [
        {
          "name": "success",
          "type": "bool"
        }
      ],
      "payable": false,
      "stateMutability": "nonpayable",
      "type": "function"
    },
    {
      "constant": true,
      "inputs": [],
      "name": "decimals",
      "outputs": [
        {
          "name": "",
          "type": "uint8"
        }
      ],
      "payable": false,
      "stateMutability": "view",
      "type": "function"
    },
    {
      "constant": false,
      "inputs": [
        {
          "name": "_newController",
          "type": "address"
        }
      ],
      "name": "changeController",
      "outputs": [],
      "payable": false,
      "stateMutability": "nonpayable",
      "type": "function"
    },
    {
      "constant": false,
      "inputs": [
        {
          "name": "_amount",
          "type": "uint256"
        }
      ],
      "name": "burn",
      "outputs": [
        {
          "name": "",
          "type": "bool"
        }
      ],
      "payable": false,
      "stateMutability": "nonpayable",
      "type": "function"
    },
    {
      "constant": true,
      "inputs": [
        {
          "name": "_owner",
          "type": "address"
        },
        {
          "name": "_blockNumber",
          "type": "uint256"
        }
      ],
      "name": "balanceOfAt",
      "outputs": [
        {
          "name": "",
          "type": "uint256"
        }
      ],
      "payable": false,
      "stateMutability": "view",
      "type": "function"
    },
    {
      "constant": false,
      "inputs": [
        {
          "name": "_to",
          "type": "address"
        }
      ],
      "name": "transferOwnershipTo",
      "outputs": [],
      "payable": false,
      "stateMutability": "nonpayable",
      "type": "function"
    },
    {
      "constant": true,
      "inputs": [],
      "name": "version",
      "outputs": [
        {
          "name": "",
          "type": "string"
        }
      ],
      "payable": false,
      "stateMutability": "view",
      "type": "function"
    },
    {
      "constant": false,
      "inputs": [
        {
          "name": "_cloneTokenName",
          "type": "string"
        },
        {
          "name": "_cloneDecimalUnits",
          "type": "uint8"
        },
        {
          "name": "_cloneTokenSymbol",
          "type": "string"
        },
        {
          "name": "_snapshotBlock",
          "type": "uint256"
        },
        {
          "name": "_transfersEnabled",
          "type": "bool"
        }
      ],
      "name": "createCloneToken",
      "outputs": [
        {
          "name": "",
          "type": "address"
        }
      ],
      "payable": false,
      "stateMutability": "nonpayable",
      "type": "function"
    },
    {
      "constant": true,
      "inputs": [
        {
          "name": "_owner",
          "type": "address"
        }
      ],
      "name": "balanceOf",
      "outputs": [
        {
          "name": "balance",
          "type": "uint256"
        }
      ],
      "payable": false,
      "stateMutability": "view",
      "type": "function"
    },
    {
      "constant": true,
      "inputs": [],
      "name": "parentToken",
      "outputs": [
        {
          "name": "",
          "type": "address"
        }
      ],
      "payable": false,
      "stateMutability": "view",
      "type": "function"
    },
    {
      "constant": false,
      "inputs": [
        {
          "name": "_owner",
          "type": "address"
        },
        {
          "name": "_amount",
          "type": "uint256"
        }
      ],
      "name": "generateTokens",
      "outputs": [
        {
          "name": "",
          "type": "bool"
        }
      ],
      "payable": false,
      "stateMutability": "nonpayable",
      "type": "function"
    },
    {
      "constant": true,
      "inputs": [],
      "name": "symbol",
      "outputs": [
        {
          "name": "",
          "type": "string"
        }
      ],
      "payable": false,
      "stateMutability": "view",
      "type": "function"
    },
    {
      "constant": true,
      "inputs": [
        {
          "name": "_blockNumber",
          "type": "uint256"
        }
      ],
      "name": "totalSupplyAt",
      "outputs": [
        {
          "name": "",
          "type": "uint256"
        }
      ],
      "payable": false,
      "stateMutability": "view",
      "type": "function"
    },
    {
      "constant": false,
      "inputs": [
        {
          "name": "_to",
          "type": "address"
        },
        {
          "name": "_amount",
          "type": "uint256"
        }
      ],
      "name": "transfer",
      "outputs": [
        {
          "name": "success",
          "type": "bool"
        }
      ],
      "payable": false,
      "stateMutability": "nonpayable",
      "type": "function"
    },
    {
      "constant": true,
      "inputs": [],
      "name": "transfersEnabled",
      "outputs": [
        {
          "name": "",
          "type": "bool"
        }
      ],
      "payable": false,
      "stateMutability": "view",
      "type": "function"
    },
    {
      "constant": true,
      "inputs": [],
      "name": "parentSnapShotBlock",
      "outputs": [
        {
          "name": "",
          "type": "uint256"
        }
      ],
      "payable": false,
      "stateMutability": "view",
      "type": "function"
    },
    {
      "constant": false,
      "inputs": [
        {
          "name": "_spender",
          "type": "address"
        },
        {
          "name": "_amount",
          "type": "uint256"
        },
        {
          "name": "_extraData",
          "type": "bytes"
        }
      ],
      "name": "approveAndCall",
      "outputs": [
        {
          "name": "success",
          "type": "bool"
        }
      ],
      "payable": false,
      "stateMutability": "nonpayable",
      "type": "function"
    },
    {
      "constant": false,
      "inputs": [
        {
          "name": "_owner",
          "type": "address"
        },
        {
          "name": "_amount",
          "type": "uint256"
        }
      ],
      "name": "destroyTokens",
      "outputs": [
        {
          "name": "",
          "type": "bool"
        }
      ],
      "payable": false,
      "stateMutability": "nonpayable",
      "type": "function"
    },
    {
      "constant": true,
      "inputs": [
        {
          "name": "_owner",
          "type": "address"
        },
        {
          "name": "_spender",
          "type": "address"
        }
      ],
      "name": "allowance",
      "outputs": [
        {
          "name": "remaining",
          "type": "uint256"
        }
      ],
      "payable": false,
      "stateMutability": "view",
      "type": "function"
    },
    {
      "constant": false,
      "inputs": [
        {
          "name": "_token",
          "type": "address"
        }
      ],
      "name": "claimTokens",
      "outputs": [],
      "payable": false,
      "stateMutability": "nonpayable",
      "type": "function"
    },
    {
      "constant": true,
      "inputs": [],
      "name": "tokenFactory",
      "outputs": [
        {
          "name": "",
          "type": "address"
        }
      ],
      "payable": false,
      "stateMutability": "view",
      "type": "function"
    },
    {
      "constant": false,
      "inputs": [
        {
          "name": "_transfersEnabled",
          "type": "bool"
        }
      ],
      "name": "enableTransfers",
      "outputs": [],
      "payable": false,
      "stateMutability": "nonpayable",
      "type": "function"
    },
    {
      "constant": true,
      "inputs": [],
      "name": "controller",
      "outputs": [
        {
          "name": "",
          "type": "address"
        }
      ],
      "payable": false,
      "stateMutability": "view",
      "type": "function"
    },
    {
      "inputs": [
        {
          "name": "_tokenFactory",
          "type": "address"
        }
      ],
      "payable": false,
      "stateMutability": "nonpayable",
      "type": "constructor"
    },
    {
      "payable": true,
      "stateMutability": "payable",
      "type": "fallback"
    },
    {
      "anonymous": false,
      "inputs": [
        {
          "indexed": true,
          "name": "burner",
          "type": "address"
        },
        {
          "indexed": false,
          "name": "value",
          "type": "uint256"
        }
      ],
      "name": "Burn",
      "type": "event"
    },
    {
      "anonymous": false,
      "inputs": [
        {
          "indexed": true,
          "name": "_token",
          "type": "address"
        },
        {
          "indexed": true,
          "name": "_controller",
          "type": "address"
        },
        {
          "indexed": false,
          "name": "_amount",
          "type": "uint256"
        }
      ],
      "name": "ClaimedTokens",
      "type": "event"
    },
    {
      "anonymous": false,
      "inputs": [
        {
          "indexed": true,
          "name": "_from",
          "type": "address"
        },
        {
          "indexed": true,
          "name": "_to",
          "type": "address"
        },
        {
          "indexed": false,
          "name": "_amount",
          "type": "uint256"
        }
      ],
      "name": "Transfer",
      "type": "event"
    },
    {
      "anonymous": false,
      "inputs": [
        {
          "indexed": true,
          "name": "_cloneToken",
          "type": "address"
        },
        {
          "indexed": false,
          "name": "_snapshotBlock",
          "type": "uint256"
        }
      ],
      "name": "NewCloneToken",
      "type": "event"
    },
    {
      "anonymous": false,
      "inputs": [
        {
          "indexed": true,
          "name": "_owner",
          "type": "address"
        },
        {
          "indexed": true,
          "name": "_spender",
          "type": "address"
        },
        {
          "indexed": false,
          "name": "_amount",
          "type": "uint256"
        }
      ],
      "name": "Approval",
      "type": "event"
    }
  ],
  "bytecode": "0x60c0604052600760808190527f4d4d545f302e320000000000000000000000000000000000000000000000000060a090815262000040916004919062000189565b503480156200004e57600080fd5b5060405160208062001ceb83398101604081815291518282018352601082527f52616e6b696e6742616c6c20476f6c640000000000000000000000000000000060208084019182528451808601909552600385527f52424700000000000000000000000000000000000000000000000000000000009085015260008054600160a060020a03191633178155600b8054600160a060020a0385166101000261010060a860020a0319909116179055835192948594859492938493919260129290916001916200011e91839162000189565b506002805460ff191660ff851617905581516200014390600390602085019062000189565b5060058054600160a060020a031916600160a060020a039790971696909617909555505050600655600b805460ff1916911515919091179055505043600755506200022e565b828054600181600116156101000203166002900490600052602060002090601f016020900481019282601f10620001cc57805160ff1916838001178555620001fc565b82800160010185558215620001fc579182015b82811115620001fc578251825591602001919060010190620001df565b506200020a9291506200020e565b5090565b6200022b91905b808211156200020a576000815560010162000215565b90565b611aad806200023e6000396000f3006080604052600436106101505763ffffffff60e060020a60003504166301ffc9a7811461021057806306fdde031461025b578063095ea7b3146102e5578063176345141461030957806318160ddd1461033057806323b872dd14610345578063313ce5671461036f5780633cebb8231461039a57806342966c68146103bb5780634ee2cd7e146103d357806352effe11146103f757806354fd4d50146104185780636638c0871461042d57806370a08231146104f057806380a5400114610511578063827f32c01461052657806395d89b411461054a578063981b24d01461055f578063a9059cbb14610577578063bef97c871461059b578063c5bcc4f1146105b0578063cae9ca51146105c5578063d3ce77fe1461062e578063dd62ed3e14610652578063df8de3e714610679578063e77772fe1461069a578063f41e60c5146106af578063f77c4791146106c9575b60005461016590600160a060020a03166106de565b151561017057600080fd5b600054604080517ff48c30540000000000000000000000000000000000000000000000000000000081523360048201529051600160a060020a039092169163f48c3054913491602480830192602092919082900301818588803b1580156101d657600080fd5b505af11580156101ea573d6000803e3d6000fd5b50505050506040513d602081101561020157600080fd5b5051151561020e57600080fd5b005b34801561021c57600080fd5b506102477bffffffffffffffffffffffffffffffffffffffffffffffffffffffff196004351661070b565b604080519115158252519081900360200190f35b34801561026757600080fd5b50610270610767565b6040805160208082528351818301528351919283929083019185019080838360005b838110156102aa578181015183820152602001610292565b50505050905090810190601f1680156102d75780820380516001836020036101000a031916815260200191505b509250505060405180910390f35b3480156102f157600080fd5b50610247600160a060020a03600435166024356107f4565b34801561031557600080fd5b5061031e610972565b60408051918252519081900360200190f35b34801561033c57600080fd5b5061031e610978565b34801561035157600080fd5b50610247600160a060020a0360043581169060243516604435610989565b34801561037b57600080fd5b50610384610a20565b6040805160ff9092168252519081900360200190f35b3480156103a657600080fd5b5061020e600160a060020a0360043516610a29565b3480156103c757600080fd5b50610247600435610a6f565b3480156103df57600080fd5b5061031e600160a060020a0360043516602435610afb565b34801561040357600080fd5b5061020e600160a060020a0360043516610c48565b34801561042457600080fd5b50610270610c54565b34801561043957600080fd5b506040805160206004803580820135601f81018490048402850184019095528484526104d494369492936024939284019190819084018382808284375050604080516020601f818a01358b0180359182018390048302840183018552818452989b60ff8b35169b909a909994019750919550918201935091508190840183828082843750949750508435955050505050602001351515610caf565b60408051600160a060020a039092168252519081900360200190f35b3480156104fc57600080fd5b5061031e600160a060020a0360043516610f09565b34801561051d57600080fd5b506104d4610f15565b34801561053257600080fd5b50610247600160a060020a0360043516602435610f24565b34801561055657600080fd5b50610270610fde565b34801561056b57600080fd5b5061031e600435611039565b34801561058357600080fd5b50610247600160a060020a036004351660243561112d565b3480156105a757600080fd5b5061024761114c565b3480156105bc57600080fd5b5061031e611155565b3480156105d157600080fd5b50604080516020600460443581810135601f8101849004840285018401909552848452610247948235600160a060020a031694602480359536959460649492019190819084018382808284375094975061115b9650505050505050565b34801561063a57600080fd5b50610247600160a060020a0360043516602435611276565b34801561065e57600080fd5b5061031e600160a060020a036004358116906024351661132c565b34801561068557600080fd5b5061020e600160a060020a0360043516611357565b3480156106a657600080fd5b506104d461153e565b3480156106bb57600080fd5b5061020e6004351515611552565b3480156106d557600080fd5b506104d461157c565b600080600160a060020a03831615156106fa5760009150610705565b823b90506000811191505b50919050565b604080517f67656e6572617465546f6b656e7328616464726573732c75696e7432353629008152905190819003601f0190207bffffffffffffffffffffffffffffffffffffffffffffffffffffffff198281169116145b919050565b60018054604080516020600284861615610100026000190190941693909304601f810184900484028201840190925281815292918301828280156107ec5780601f106107c1576101008083540402835291602001916107ec565b820191906000526020600020905b8154815290600101906020018083116107cf57829003601f168201915b505050505081565b600b5460009060ff16151561080857600080fd5b8115806108365750336000908152600960209081526040808320600160a060020a0387168452909152902054155b151561084157600080fd5b60005461085690600160a060020a03166106de565b1561090a5760008054604080517fda682aeb000000000000000000000000000000000000000000000000000000008152336004820152600160a060020a038781166024830152604482018790529151919092169263da682aeb92606480820193602093909283900390910190829087803b1580156108d357600080fd5b505af11580156108e7573d6000803e3d6000fd5b505050506040513d60208110156108fd57600080fd5b5051151561090a57600080fd5b336000818152600960209081526040808320600160a060020a03881680855290835292819020869055805186815290519293927f8c5be1e5ebec7d5bd14f71427d1e84f3dd0314c0f7b2291e5b200ac8c7c3b925929181900390910190a35060015b92915050565b60075481565b600061098343611039565b90505b90565b60008054600160a060020a03163314610a0b57600b5460ff1615156109ad57600080fd5b600160a060020a03841660009081526009602090815260408083203384529091529020548211156109e057506000610a19565b600160a060020a03841660009081526009602090815260408083203384529091529020805483900390555b610a1684848461158b565b90505b9392505050565b60025460ff1681565b600054600160a060020a03163314610a4057600080fd5b6000805473ffffffffffffffffffffffffffffffffffffffff1916600160a060020a0392909216919091179055565b6000806000610a7c610978565b915083821015610a8b57600080fd5b610a9433610f09565b905083811015610aa357600080fd5b610ab0600a8584036117b9565b336000908152600860205260409020610acb908583036117b9565b6040805185815290516000913391600080516020611a628339815191529181900360200190a35060019392505050565b600160a060020a0382166000908152600860205260408120541580610b575750600160a060020a038316600090815260086020526040812080548492908110610b4057fe5b6000918252602090912001546001608060020a0316115b15610c1f57600554600160a060020a031615610c1757600554600654600160a060020a0390911690634ee2cd7e908590610b929086906118af565b6040518363ffffffff1660e060020a0281526004018083600160a060020a0316600160a060020a0316815260200182815260200192505050602060405180830381600087803b158015610be457600080fd5b505af1158015610bf8573d6000803e3d6000fd5b505050506040513d6020811015610c0e57600080fd5b5051905061096c565b50600061096c565b600160a060020a0383166000908152600860205260409020610c4190836118c5565b905061096c565b610c5181610a29565b50565b6004805460408051602060026001851615610100026000190190941693909304601f810184900484028201840190925281815292918301828280156107ec5780601f106107c1576101008083540402835291602001916107ec565b600080831515610cbd574393505b600b546040517f5b7b72c100000000000000000000000000000000000000000000000000000000815230600482018181526024830188905260ff8a16606484015286151560a484015260c0604484019081528b5160c48501528b51610100909504600160a060020a031694635b7b72c1948a938e938e938e938d939291608482019160e40190602089019080838360005b83811015610d66578181015183820152602001610d4e565b50505050905090810190601f168015610d935780820380516001836020036101000a031916815260200191505b50838103825285518152855160209182019187019080838360005b83811015610dc6578181015183820152602001610dae565b50505050905090810190601f168015610df35780820380516001836020036101000a031916815260200191505b5098505050505050505050602060405180830381600087803b158015610e1857600080fd5b505af1158015610e2c573d6000803e3d6000fd5b505050506040513d6020811015610e4257600080fd5b5051604080517f3cebb8230000000000000000000000000000000000000000000000000000000081523360048201529051919250600160a060020a03831691633cebb8239160248082019260009290919082900301818387803b158015610ea857600080fd5b505af1158015610ebc573d6000803e3d6000fd5b5050604080518781529051600160a060020a03851693507f086c875b377f900b07ce03575813022f05dd10ed7640b5282cf6d3c3fc352ade92509081900360200190a29695505050505050565b600061096c8243610afb565b600554600160a060020a031681565b6000805481908190600160a060020a03163314610f4057600080fd5b610f48610978565b9150838201821115610f5957600080fd5b610f6285610f09565b9050838101811115610f7357600080fd5b610f80600a8584016117b9565b600160a060020a0385166000908152600860205260409020610fa4908286016117b9565b604080518581529051600160a060020a03871691600091600080516020611a628339815191529181900360200190a3506001949350505050565b6003805460408051602060026001851615610100026000190190941693909304601f810184900484028201840190925281815292918301828280156107ec5780601f106107c1576101008083540402835291602001916107ec565b600a54600090158061106e575081600a600081548110151561105757fe5b6000918252602090912001546001608060020a0316115b1561111b57600554600160a060020a03161561111357600554600654600160a060020a039091169063981b24d0906110a79085906118af565b6040518263ffffffff1660e060020a02815260040180828152602001915050602060405180830381600087803b1580156110e057600080fd5b505af11580156110f4573d6000803e3d6000fd5b505050506040513d602081101561110a57600080fd5b50519050610762565b506000610762565b611126600a836118c5565b9050610762565b600b5460009060ff16151561114157600080fd5b610a1933848461158b565b600b5460ff1681565b60065481565b600061116784846107f4565b151561117257600080fd5b6040517f8f4ffcb10000000000000000000000000000000000000000000000000000000081523360048201818152602483018690523060448401819052608060648501908152865160848601528651600160a060020a038a1695638f4ffcb195948a94938a939192909160a490910190602085019080838360005b838110156112055781810151838201526020016111ed565b50505050905090810190601f1680156112325780820380516001836020036101000a031916815260200191505b5095505050505050600060405180830381600087803b15801561125457600080fd5b505af1158015611268573d6000803e3d6000fd5b506001979650505050505050565b6000805481908190600160a060020a0316331461129257600080fd5b61129a610978565b9150838210156112a957600080fd5b6112b285610f09565b9050838110156112c157600080fd5b6112ce600a8584036117b9565b600160a060020a03851660009081526008602052604090206112f2908583036117b9565b604080518581529051600091600160a060020a03881691600080516020611a628339815191529181900360200190a3506001949350505050565b600160a060020a03918216600090815260096020908152604080832093909416825291909152205490565b600080548190600160a060020a0316331461137157600080fd5b600160a060020a03831615156113c25760008054604051600160a060020a0390911691303180156108fc02929091818181858888f193505050501580156113bc573d6000803e3d6000fd5b50611539565b604080517f70a082310000000000000000000000000000000000000000000000000000000081523060048201529051849350600160a060020a038416916370a082319160248083019260209291908290030181600087803b15801561142657600080fd5b505af115801561143a573d6000803e3d6000fd5b505050506040513d602081101561145057600080fd5b505160008054604080517fa9059cbb000000000000000000000000000000000000000000000000000000008152600160a060020a0392831660048201526024810185905290519394509085169263a9059cbb92604480840193602093929083900390910190829087803b1580156114c657600080fd5b505af11580156114da573d6000803e3d6000fd5b505050506040513d60208110156114f057600080fd5b5050600054604080518381529051600160a060020a03928316928616917ff931edb47c50b4b4104c187b5814a9aef5f709e17e2ecf9617e860cacade929c919081900360200190a35b505050565b600b546101009004600160a060020a031681565b600054600160a060020a0316331461156957600080fd5b600b805460ff1916911515919091179055565b600054600160a060020a031681565b600080808315156115d85784600160a060020a031686600160a060020a0316600080516020611a62833981519152866040518082815260200191505060405180910390a3600192506117b0565b60065443116115e657600080fd5b600160a060020a038516158015906116075750600160a060020a0385163014155b151561161257600080fd5b61161c8643610afb565b91508382101561162b57600080fd5b60005461164090600160a060020a03166106de565b1561170f5760008054604080517f4a393149000000000000000000000000000000000000000000000000000000008152600160a060020a038a8116600483015289811660248301526044820189905291519190921692634a39314992606480820193602093909283900390910190829087803b1580156116bf57600080fd5b505af11580156116d3573d6000803e3d6000fd5b505050506040513d60208110156116e957600080fd5b505115156116f657600080fd5b6117008643610afb565b91508382101561170f57600080fd5b600160a060020a0386166000908152600860205260409020611733908584036117b9565b61173d8543610afb565b905083810181111561174e57600080fd5b600160a060020a0385166000908152600860205260409020611772908286016117b9565b84600160a060020a031686600160a060020a0316600080516020611a62833981519152866040518082815260200191505060405180910390a3600192505b50509392505050565b8154600090819015806117f2575083544390859060001981019081106117db57fe5b6000918252602090912001546001608060020a0316105b1561186457835484906118088260018301611a24565b8154811061181257fe5b600091825260209091200180546001608060020a03858116700100000000000000000000000000000000024382166fffffffffffffffffffffffffffffffff19909316929092171617815591506118a9565b83548490600019810190811061187657fe5b600091825260209091200180546001608060020a0380861670010000000000000000000000000000000002911617815590505b50505050565b60008183106118be5781610a19565b5090919050565b6000806000808580549050600014156118e15760009350611a1b565b8554869060001981019081106118f357fe5b6000918252602090912001546001608060020a031685106119505785548690600019810190811061192057fe5b60009182526020909120015470010000000000000000000000000000000090046001608060020a03169350611a1b565b85600081548110151561195f57fe5b6000918252602090912001546001608060020a03168510156119845760009350611a1b565b8554600093506000190191505b828211156119e15760026001838501010490508486828154811015156119b357fe5b6000918252602090912001546001608060020a0316116119d5578092506119dc565b6001810391505b611991565b85838154811015156119ef57fe5b60009182526020909120015470010000000000000000000000000000000090046001608060020a031693505b50505092915050565b8154818355818111156115395760008381526020902061153991810190830161098691905b80821115611a5d5760008155600101611a49565b50905600ddf252ad1be2c89b69c2b068fc378daa952ba7f163c4a11628f55a4df523b3efa165627a7a723058206085dcb9ba7e0d8bbcb82d4982818be48b4664f42944424d3df1eeba65e96ee50029",
  "source": "pragma solidity ^0.4.24;\n\nimport \"pos-controller/contracts/POSMiniMeToken.sol\";\nimport \"./RankingBallGoldToken.sol\";\nimport \"./_import.sol\";\n\ncontract RankingBallGoldCustomToken is POSMiniMeToken, RankingBallGoldToken {\n  function RankingBallGoldCustomToken(address _tokenFactory)\n    RankingBallGoldToken(_tokenFactory)\n    public\n  {}\n}\n",
  "sourcePath": "/Users/pjh/workspace/rbg-crowdsale/project/contracts/RankingBallGoldCustomToken.sol",
  "compiler": {
    "name": "solc",
    "version": "0.4.24+commit.e67f0147.Emscripten.clang"
  },
  "schemaVersion": "2.0.0",
  "updatedAt": "2018-06-07T12:04:22.561Z"
}