{
  "contractName": "RankingBallGoldCrowdsale",
  "abi": [
    {
      "constant": false,
      "inputs": [
        {
          "name": "amounts",
          "type": "uint128[]"
        },
        {
          "name": "values",
          "type": "uint32[]"
        }
      ],
      "name": "setBonusesForAmounts",
      "outputs": [],
      "payable": false,
      "stateMutability": "nonpayable",
      "type": "function"
    },
    {
      "constant": true,
      "inputs": [],
      "name": "initialized",
      "outputs": [
        {
          "name": "",
          "type": "bool"
        }
      ],
      "payable": false,
      "stateMutability": "view",
      "type": "function"
    },
    {
      "constant": true,
      "inputs": [
        {
          "name": "",
          "type": "uint256"
        }
      ],
      "name": "BONUS_AMOUNTS",
      "outputs": [
        {
          "name": "",
          "type": "uint128"
        }
      ],
      "payable": false,
      "stateMutability": "view",
      "type": "function"
    },
    {
      "constant": false,
      "inputs": [
        {
          "name": "times",
          "type": "uint32[]"
        },
        {
          "name": "values",
          "type": "uint32[]"
        }
      ],
      "name": "setBonusesForTimes",
      "outputs": [],
      "payable": false,
      "stateMutability": "nonpayable",
      "type": "function"
    },
    {
      "constant": true,
      "inputs": [
        {
          "name": "",
          "type": "uint256"
        }
      ],
      "name": "BONUS_AMOUNTS_VALUES",
      "outputs": [
        {
          "name": "",
          "type": "uint32"
        }
      ],
      "payable": false,
      "stateMutability": "view",
      "type": "function"
    },
    {
      "constant": true,
      "inputs": [],
      "name": "bonusesForTimesCount",
      "outputs": [
        {
          "name": "",
          "type": "uint256"
        }
      ],
      "payable": false,
      "stateMutability": "view",
      "type": "function"
    },
    {
      "constant": true,
      "inputs": [],
      "name": "MAX_HOLDERS",
      "outputs": [
        {
          "name": "",
          "type": "uint8"
        }
      ],
      "payable": false,
      "stateMutability": "view",
      "type": "function"
    },
    {
      "constant": true,
      "inputs": [
        {
          "name": "",
          "type": "uint256"
        }
      ],
      "name": "holders",
      "outputs": [
        {
          "name": "addr",
          "type": "address"
        },
        {
          "name": "ratio",
          "type": "uint96"
        }
      ],
      "payable": false,
      "stateMutability": "view",
      "type": "function"
    },
    {
      "constant": true,
      "inputs": [],
      "name": "rate",
      "outputs": [
        {
          "name": "",
          "type": "uint256"
        }
      ],
      "payable": false,
      "stateMutability": "view",
      "type": "function"
    },
    {
      "constant": true,
      "inputs": [],
      "name": "endTime",
      "outputs": [
        {
          "name": "",
          "type": "uint256"
        }
      ],
      "payable": false,
      "stateMutability": "view",
      "type": "function"
    },
    {
      "constant": true,
      "inputs": [],
      "name": "cap",
      "outputs": [
        {
          "name": "",
          "type": "uint256"
        }
      ],
      "payable": false,
      "stateMutability": "view",
      "type": "function"
    },
    {
      "constant": true,
      "inputs": [],
      "name": "saleFinished",
      "outputs": [
        {
          "name": "",
          "type": "bool"
        }
      ],
      "payable": false,
      "stateMutability": "view",
      "type": "function"
    },
    {
      "constant": false,
      "inputs": [],
      "name": "unpause",
      "outputs": [],
      "payable": false,
      "stateMutability": "nonpayable",
      "type": "function"
    },
    {
      "constant": true,
      "inputs": [],
      "name": "goal",
      "outputs": [
        {
          "name": "",
          "type": "uint256"
        }
      ],
      "payable": false,
      "stateMutability": "view",
      "type": "function"
    },
    {
      "constant": true,
      "inputs": [],
      "name": "weiRaised",
      "outputs": [
        {
          "name": "",
          "type": "uint256"
        }
      ],
      "payable": false,
      "stateMutability": "view",
      "type": "function"
    },
    {
      "constant": false,
      "inputs": [],
      "name": "finalize",
      "outputs": [],
      "payable": false,
      "stateMutability": "nonpayable",
      "type": "function"
    },
    {
      "constant": true,
      "inputs": [],
      "name": "bonusesForAmountsCount",
      "outputs": [
        {
          "name": "",
          "type": "uint256"
        }
      ],
      "payable": false,
      "stateMutability": "view",
      "type": "function"
    },
    {
      "constant": true,
      "inputs": [
        {
          "name": "",
          "type": "uint256"
        }
      ],
      "name": "BONUS_TIMES",
      "outputs": [
        {
          "name": "",
          "type": "uint32"
        }
      ],
      "payable": false,
      "stateMutability": "view",
      "type": "function"
    },
    {
      "constant": true,
      "inputs": [
        {
          "name": "weiAmount",
          "type": "uint256"
        }
      ],
      "name": "computeBonus",
      "outputs": [
        {
          "name": "",
          "type": "uint256"
        }
      ],
      "payable": false,
      "stateMutability": "view",
      "type": "function"
    },
    {
      "constant": true,
      "inputs": [],
      "name": "nextTokenOwner",
      "outputs": [
        {
          "name": "",
          "type": "address"
        }
      ],
      "payable": false,
      "stateMutability": "view",
      "type": "function"
    },
    {
      "constant": true,
      "inputs": [],
      "name": "paused",
      "outputs": [
        {
          "name": "",
          "type": "bool"
        }
      ],
      "payable": false,
      "stateMutability": "view",
      "type": "function"
    },
    {
      "constant": true,
      "inputs": [
        {
          "name": "",
          "type": "address"
        }
      ],
      "name": "recentBlock",
      "outputs": [
        {
          "name": "",
          "type": "uint256"
        }
      ],
      "payable": false,
      "stateMutability": "view",
      "type": "function"
    },
    {
      "constant": true,
      "inputs": [],
      "name": "getHolderCount",
      "outputs": [
        {
          "name": "",
          "type": "uint256"
        }
      ],
      "payable": false,
      "stateMutability": "view",
      "type": "function"
    },
    {
      "constant": true,
      "inputs": [],
      "name": "computeTimeBonus",
      "outputs": [
        {
          "name": "",
          "type": "uint256"
        }
      ],
      "payable": false,
      "stateMutability": "view",
      "type": "function"
    },
    {
      "constant": true,
      "inputs": [],
      "name": "startTime",
      "outputs": [
        {
          "name": "",
          "type": "uint256"
        }
      ],
      "payable": false,
      "stateMutability": "view",
      "type": "function"
    },
    {
      "constant": true,
      "inputs": [],
      "name": "goalReached",
      "outputs": [
        {
          "name": "",
          "type": "bool"
        }
      ],
      "payable": false,
      "stateMutability": "view",
      "type": "function"
    },
    {
      "constant": true,
      "inputs": [
        {
          "name": "weiAmount",
          "type": "uint256"
        }
      ],
      "name": "computeAmountBonus",
      "outputs": [
        {
          "name": "",
          "type": "uint256"
        }
      ],
      "payable": false,
      "stateMutability": "view",
      "type": "function"
    },
    {
      "constant": false,
      "inputs": [],
      "name": "pause",
      "outputs": [],
      "payable": false,
      "stateMutability": "nonpayable",
      "type": "function"
    },
    {
      "constant": true,
      "inputs": [
        {
          "name": "",
          "type": "uint256"
        }
      ],
      "name": "stages",
      "outputs": [
        {
          "name": "cap",
          "type": "uint128"
        },
        {
          "name": "maxPurchaseLimit",
          "type": "uint128"
        },
        {
          "name": "minPurchaseLimit",
          "type": "uint128"
        },
        {
          "name": "weiRaised",
          "type": "uint128"
        },
        {
          "name": "startTime",
          "type": "uint32"
        },
        {
          "name": "endTime",
          "type": "uint32"
        },
        {
          "name": "kyc",
          "type": "bool"
        }
      ],
      "payable": false,
      "stateMutability": "view",
      "type": "function"
    },
    {
      "constant": false,
      "inputs": [
        {
          "name": "_startTimes",
          "type": "uint32[]"
        },
        {
          "name": "_endTimes",
          "type": "uint32[]"
        },
        {
          "name": "_capRatios",
          "type": "uint128[]"
        },
        {
          "name": "_maxPurchaseLimits",
          "type": "uint128[]"
        },
        {
          "name": "_minPurchaseLimits",
          "type": "uint128[]"
        },
        {
          "name": "_kycs",
          "type": "bool[]"
        }
      ],
      "name": "initStages",
      "outputs": [],
      "payable": false,
      "stateMutability": "nonpayable",
      "type": "function"
    },
    {
      "constant": true,
      "inputs": [],
      "name": "coeff",
      "outputs": [
        {
          "name": "",
          "type": "uint256"
        }
      ],
      "payable": false,
      "stateMutability": "view",
      "type": "function"
    },
    {
      "constant": true,
      "inputs": [],
      "name": "isFinalized",
      "outputs": [
        {
          "name": "",
          "type": "bool"
        }
      ],
      "payable": false,
      "stateMutability": "view",
      "type": "function"
    },
    {
      "constant": true,
      "inputs": [],
      "name": "owner",
      "outputs": [
        {
          "name": "",
          "type": "address"
        }
      ],
      "payable": false,
      "stateMutability": "view",
      "type": "function"
    },
    {
      "constant": true,
      "inputs": [],
      "name": "getStageIndex",
      "outputs": [
        {
          "name": "currentStage",
          "type": "uint8"
        },
        {
          "name": "onSale",
          "type": "bool"
        }
      ],
      "payable": false,
      "stateMutability": "view",
      "type": "function"
    },
    {
      "constant": true,
      "inputs": [],
      "name": "crowdsaleRatio",
      "outputs": [
        {
          "name": "",
          "type": "uint256"
        }
      ],
      "payable": false,
      "stateMutability": "view",
      "type": "function"
    },
    {
      "constant": true,
      "inputs": [
        {
          "name": "_addr",
          "type": "address"
        }
      ],
      "name": "registered",
      "outputs": [
        {
          "name": "",
          "type": "bool"
        }
      ],
      "payable": false,
      "stateMutability": "view",
      "type": "function"
    },
    {
      "constant": false,
      "inputs": [],
      "name": "claimRefund",
      "outputs": [],
      "payable": false,
      "stateMutability": "nonpayable",
      "type": "function"
    },
    {
      "constant": true,
      "inputs": [],
      "name": "blockInterval",
      "outputs": [
        {
          "name": "",
          "type": "uint256"
        }
      ],
      "payable": false,
      "stateMutability": "view",
      "type": "function"
    },
    {
      "constant": true,
      "inputs": [],
      "name": "locker",
      "outputs": [
        {
          "name": "",
          "type": "address"
        }
      ],
      "payable": false,
      "stateMutability": "view",
      "type": "function"
    },
    {
      "constant": true,
      "inputs": [],
      "name": "numPeriods",
      "outputs": [
        {
          "name": "",
          "type": "uint8"
        }
      ],
      "payable": false,
      "stateMutability": "view",
      "type": "function"
    },
    {
      "constant": false,
      "inputs": [
        {
          "name": "_token",
          "type": "address"
        }
      ],
      "name": "claimTokens",
      "outputs": [],
      "payable": false,
      "stateMutability": "nonpayable",
      "type": "function"
    },
    {
      "constant": true,
      "inputs": [
        {
          "name": "",
          "type": "uint256"
        }
      ],
      "name": "BONUS_TIMES_VALUES",
      "outputs": [
        {
          "name": "",
          "type": "uint32"
        }
      ],
      "payable": false,
      "stateMutability": "view",
      "type": "function"
    },
    {
      "constant": false,
      "inputs": [
        {
          "name": "_addrs",
          "type": "address[]"
        },
        {
          "name": "_ratios",
          "type": "uint96[]"
        }
      ],
      "name": "initHolders",
      "outputs": [],
      "payable": false,
      "stateMutability": "nonpayable",
      "type": "function"
    },
    {
      "constant": false,
      "inputs": [
        {
          "name": "beneficiary",
          "type": "address"
        }
      ],
      "name": "buyTokens",
      "outputs": [],
      "payable": true,
      "stateMutability": "payable",
      "type": "function"
    },
    {
      "constant": true,
      "inputs": [],
      "name": "hasEnded",
      "outputs": [
        {
          "name": "",
          "type": "bool"
        }
      ],
      "payable": false,
      "stateMutability": "view",
      "type": "function"
    },
    {
      "constant": false,
      "inputs": [
        {
          "name": "newOwner",
          "type": "address"
        }
      ],
      "name": "transferOwnership",
      "outputs": [],
      "payable": false,
      "stateMutability": "nonpayable",
      "type": "function"
    },
    {
      "constant": true,
      "inputs": [],
      "name": "distributed",
      "outputs": [
        {
          "name": "",
          "type": "bool"
        }
      ],
      "payable": false,
      "stateMutability": "view",
      "type": "function"
    },
    {
      "constant": true,
      "inputs": [],
      "name": "vault",
      "outputs": [
        {
          "name": "",
          "type": "address"
        }
      ],
      "payable": false,
      "stateMutability": "view",
      "type": "function"
    },
    {
      "inputs": [
        {
          "name": "args",
          "type": "bytes32[5]"
        }
      ],
      "payable": false,
      "stateMutability": "nonpayable",
      "type": "constructor"
    },
    {
      "payable": true,
      "stateMutability": "payable",
      "type": "fallback"
    },
    {
      "anonymous": false,
      "inputs": [
        {
          "indexed": true,
          "name": "purchaser",
          "type": "address"
        },
        {
          "indexed": true,
          "name": "beneficiary",
          "type": "address"
        },
        {
          "indexed": false,
          "name": "value",
          "type": "uint256"
        },
        {
          "indexed": false,
          "name": "amount",
          "type": "uint256"
        }
      ],
      "name": "TokenPurchase",
      "type": "event"
    },
    {
      "anonymous": false,
      "inputs": [],
      "name": "Finalized",
      "type": "event"
    },
    {
      "anonymous": false,
      "inputs": [
        {
          "indexed": true,
          "name": "_token",
          "type": "address"
        },
        {
          "indexed": false,
          "name": "_amount",
          "type": "uint256"
        }
      ],
      "name": "ClaimTokens",
      "type": "event"
    },
    {
      "anonymous": false,
      "inputs": [],
      "name": "Pause",
      "type": "event"
    },
    {
      "anonymous": false,
      "inputs": [],
      "name": "Unpause",
      "type": "event"
    },
    {
      "anonymous": false,
      "inputs": [],
      "name": "Distributed",
      "type": "event"
    },
    {
      "anonymous": false,
      "inputs": [
        {
          "indexed": true,
          "name": "previousOwner",
          "type": "address"
        },
        {
          "indexed": true,
          "name": "newOwner",
          "type": "address"
        }
      ],
      "name": "OwnershipTransferred",
      "type": "event"
    },
    {
      "constant": false,
      "inputs": [
        {
          "name": "args",
          "type": "bytes32[]"
        }
      ],
      "name": "init",
      "outputs": [],
      "payable": false,
      "stateMutability": "nonpayable",
      "type": "function"
    }
  ],
  "bytecode": "0x60806040526004805460ff19908116909155600a805490911690553480156200002757600080fd5b5060405160a08062002b6983398101604052620000558160045b60200201516401000000006200017d810204565b620000718260035b602002015164010000000062000180810204565b6200007e83600262000041565b6200008b8460016200005d565b6200009885600062000041565b60008054600160a060020a0319163317905580801515620000b857600080fd5b60015550600160a060020a0381161515620000d257600080fd5b600f8054600160a060020a031916600160a060020a0392909216919091179055801515620000ff57600080fd5b601455600160a060020a03811615156200011857600080fd5b60168054600160a060020a031916600160a060020a03929092169190911760a060020a60ff0219167401000000000000000000000000000000000000000060ff848116820292909217928390556000920416116200017557600080fd5b50506200018c565b90565b600160a060020a031690565b6129cd806200019c6000396000f3006080604052600436106102375763ffffffff60e060020a6000350416630a06f35e8114610242578063158ef93e146102d057806319a1f592146102f95780631d1eda5e1461032d5780631df0187b146103bb5780631e05e0c8146103ec57806322e12720146104135780632a11ced01461043e5780632c4e722e146104865780633197cbb61461049b5780633368e968146104b0578063355274ea14610505578063365b94ad1461051a5780633f4ba83a1461052f57806340193883146105445780634042b66f146105595780634bb278f31461056e57806353da0c7e146105835780635750abfa146105985780635ac5f82c146105b05780635b833f1e146105c85780635c975abb146105f95780636f65f2361461060e5780637136982b1461062f57806377c8d5a01461064457806378e97925146106595780637d3d65221461066e578063816273f6146106835780638456cb591461069b578063845ddcb2146106b0578063845f55931461071b57806387b261ad1461088d5780638d4e4083146108a25780638da5cb5b146108b757806398dc8b44146108cc578063a309f589146108fe578063b2dd5c0714610913578063b5545a3c14610934578063c4c22e9814610949578063d7b96d4e1461095e578063dcd6547914610973578063df8de3e714610988578063e0f74cde146109a9578063ec5dfaa2146109c1578063ec8ac4d814610a4f578063ecb70fb714610a63578063f2fde38b14610a78578063f84b903e14610a99578063fbfa77cf14610aae575b61024033610ac3565b005b34801561024e57600080fd5b506040805160206004803580820135838102808601850190965280855261024095369593946024949385019291829185019084908082843750506040805187358901803560208181028481018201909552818452989b9a998901989297509082019550935083925085019084908082843750949750610c039650505050505050565b3480156102dc57600080fd5b506102e5610cbd565b604080519115158252519081900360200190f35b34801561030557600080fd5b50610311600435610cc6565b604080516001608060020a039092168252519081900360200190f35b34801561033957600080fd5b506040805160206004803580820135838102808601850190965280855261024095369593946024949385019291829185019084908082843750506040805187358901803560208181028481018201909552818452989b9a998901989297509082019550935083925085019084908082843750949750610d019650505050505050565b3480156103c757600080fd5b506103d3600435610daf565b6040805163ffffffff9092168252519081900360200190f35b3480156103f857600080fd5b50610401610de7565b60408051918252519081900360200190f35b34801561041f57600080fd5b50610428610dee565b6040805160ff9092168252519081900360200190f35b34801561044a57600080fd5b50610456600435610df3565b60408051600160a060020a0390931683526bffffffffffffffffffffffff90911660208301528051918290030190f35b34801561049257600080fd5b50610401610e31565b3480156104a757600080fd5b50610401610e37565b3480156104bc57600080fd5b506040805160206004803580820135838102808601850190965280855261024095369593946024949385019291829185019084908082843750949750610e3d9650505050505050565b34801561051157600080fd5b50610401611057565b34801561052657600080fd5b506102e561105d565b34801561053b57600080fd5b506102406110b7565b34801561055057600080fd5b50610401611114565b34801561056557600080fd5b5061040161111a565b34801561057a57600080fd5b50610240611120565b34801561058f57600080fd5b5061040161119a565b3480156105a457600080fd5b506103d36004356111a0565b3480156105bc57600080fd5b506104016004356111ae565b3480156105d457600080fd5b506105dd6111d6565b60408051600160a060020a039092168252519081900360200190f35b34801561060557600080fd5b506102e56111e5565b34801561061a57600080fd5b50610401600160a060020a03600435166111ee565b34801561063b57600080fd5b50610401611200565b34801561065057600080fd5b50610401611206565b34801561066557600080fd5b506104016112aa565b34801561067a57600080fd5b506102e56112b0565b34801561068f57600080fd5b506104016004356112bb565b3480156106a757600080fd5b50610240611350565b3480156106bc57600080fd5b506106c86004356113af565b604080516001608060020a03988916815296881660208801529487168686015292909516606085015263ffffffff90811660808501529390931660a083015291151560c082015290519081900360e00190f35b34801561072757600080fd5b506040805160206004803580820135838102808601850190965280855261024095369593946024949385019291829185019084908082843750506040805187358901803560208181028481018201909552818452989b9a998901989297509082019550935083925085019084908082843750506040805187358901803560208181028481018201909552818452989b9a998901989297509082019550935083925085019084908082843750506040805187358901803560208181028481018201909552818452989b9a998901989297509082019550935083925085019084908082843750506040805187358901803560208181028481018201909552818452989b9a998901989297509082019550935083925085019084908082843750506040805187358901803560208181028481018201909552818452989b9a9989019892975090820195509350839250850190849080828437509497506114229650505050505050565b34801561089957600080fd5b50610401611739565b3480156108ae57600080fd5b506102e561173f565b3480156108c357600080fd5b506105dd611748565b3480156108d857600080fd5b506108e1611757565b6040805160ff909316835290151560208301528051918290030190f35b34801561090a57600080fd5b50610401611859565b34801561091f57600080fd5b506102e5600160a060020a036004351661185f565b34801561094057600080fd5b506102406118fc565b34801561095557600080fd5b50610401611998565b34801561096a57600080fd5b506105dd61199e565b34801561097f57600080fd5b506104286119b2565b34801561099457600080fd5b50610240600160a060020a03600435166119c2565b3480156109b557600080fd5b506103d3600435611b5b565b3480156109cd57600080fd5b506040805160206004803580820135838102808601850190965280855261024095369593946024949385019291829185019084908082843750506040805187358901803560208181028481018201909552818452989b9a998901989297509082019550935083925085019084908082843750949750611b699650505050505050565b610240600160a060020a0360043516610ac3565b348015610a6f57600080fd5b506102e5611d2b565b348015610a8457600080fd5b50610240600160a060020a0360043516611d49565b348015610aa557600080fd5b506102e5611ddd565b348015610aba57600080fd5b506105dd611de6565b60045460009081908190819060ff1615610adc57600080fd5b600160a060020a0385161515610af157600080fd5b610af9611df5565b1515610b0457600080fd5b349350610b118585611e31565b925060008311610b2057600080fd5b610b30848463ffffffff611ff716565b9150610b3c8584612009565b610b4583612094565b600854909150610b5b908463ffffffff6120e816565b6008556000821115610b9657604051339083156108fc029084906000818181858888f19350505050158015610b94573d6000803e3d6000fd5b505b610ba18582856120f5565b610bab85826120fa565b60408051848152602081018390528151600160a060020a0388169233927f623b3804fa71d67900d064613da8f94b9617215ee90799290593e1745087ad18929081900390910190a3610bfc83612193565b5050505050565b60008054600160a060020a03163314610c1b57600080fd5b8151835114610c2957600080fd5b5060005b8251816001011015610c90578281600101815181101515610c4a57fe5b906020019060200201516001608060020a03168382815181101515610c6b57fe5b602090810290910101516001608060020a031611610c8857600080fd5b600101610c2d565b8251610ca39060129060208601906127b8565b508151610cb790601390602085019061286c565b50505050565b60185460ff1681565b6012805482908110610cd457fe5b9060005260206000209060029182820401919006601002915054906101000a90046001608060020a031681565b60008054600160a060020a03163314610d1957600080fd5b8151835114610d2757600080fd5b5060005b8251816001011015610d88578281600101815181101515610d4857fe5b9060200190602002015163ffffffff168382815181101515610d6657fe5b6020908102909101015163ffffffff1610610d8057600080fd5b600101610d2b565b8251610d9b90601090602086019061286c565b508151610cb790601190602085019061286c565b6013805482908110610dbd57fe5b9060005260206000209060089182820401919006600402915054906101000a900463ffffffff1681565b6010545b90565b604081565b6003805482908110610e0157fe5b600091825260209091200154600160a060020a038116915060a060020a90046bffffffffffffffffffffffff1682565b60075481565b60065481565b6000806000806000806000806000896000815181101515610e5a57fe5b602090810290910101518a519099508a906001908110610e7657fe5b602090810290910101518a519098508a906002908110610e9257fe5b602090810290910101518a519097508a906003908110610eae57fe5b602090810290910101518a519096508a906004908110610eca57fe5b602090810290910101518a519095508a906005908110610ee657fe5b602090810290910101518a519094508a906006908110610f0257fe5b602090810290910101518a519093508a906007908110610f1e57fe5b602090810290910101518a519092508a906008908110610f3a57fe5b602090810290910101519050888811610f5257600080fd5b60008711610f5f57600080fd5b60008611610f6c57600080fd5b60008511610f7957600080fd5b848611610f8557600080fd5b60008411610f9257600080fd5b600160a060020a0383161515610fa757600080fd5b600160a060020a0382161515610fbc57600080fd5b600160a060020a0381161515610fd157600080fd5b600598909855600696909655600794909455600b92909255600c55600955600d8054600160a060020a0392831673ffffffffffffffffffffffffffffffffffffffff1991821617909155600480549383166101000274ffffffffffffffffffffffffffffffffffffffff001990941693909317909255600e805491909316911617905550565b600b5481565b60165460175460009160a060020a900460ff161461107a57600080fd5b60178054429190600019810190811061108f57fe5b6000918252602090912060039091020160020154640100000000900463ffffffff1610919050565b600054600160a060020a031633146110ce57600080fd5b60045460ff1615156110df57600080fd5b6004805460ff191690556040517f7805862f689e2f13df9f062ff482ad3ad112aca9e0847911ed832e158c525b3390600090a1565b600c5481565b60085481565b600054600160a060020a0316331461113757600080fd5b600a5460ff161561114757600080fd5b61114f611d2b565b151561115a57600080fd5b611162612215565b6040517f6823b073d48d6e3a7d385eeb601452d680e74bb46afe3255a7d778f3a9b1768190600090a1600a805460ff19166001179055565b60125490565b6010805482908110610dbd57fe5b60006111d06111bb611206565b6111c4846112bb565b9063ffffffff6120e816565b92915050565b600e54600160a060020a031681565b60045460ff1681565b60156020526000908152604090205481565b60035490565b600080600554421015151561121a57600080fd5b5060005b6010548110156112a157601080548290811061123657fe5b6000918252602090912060088204015460079091166004026101000a900463ffffffff16421161129957601180548290811061126e57fe5b6000918252602090912060088204015460079091166004026101000a900463ffffffff1691506112a6565b60010161121e565b600091505b5090565b60055481565b600c54600854101590565b6000805b6012548110156113455760128054829081106112d757fe5b6000918252602090912060028204015460019091166010026101000a90046001608060020a0316831061133d57601380548290811061131257fe5b6000918252602090912060088204015460079091166004026101000a900463ffffffff16915061134a565b6001016112bf565b600091505b50919050565b600054600160a060020a0316331461136757600080fd5b60045460ff161561137757600080fd5b6004805460ff191660011790556040517f6985a02210a168e66602d3235cb6db0e70f92b3ba4d376a33c0f3d9434bff62590600090a1565b60178054829081106113bd57fe5b60009182526020909120600390910201805460018201546002909201546001608060020a038083169450608060020a92839004811693818116939004169063ffffffff8082169164010000000081049091169068010000000000000000900460ff1687565b60165460175460a060020a90910460ff169060009081901561144357600080fd5b8851831480156114535750875183145b801561145f5750865183145b801561146b5750855183145b80156114775750845183145b80156114835750835183145b151561148e57600080fd5b600091505b8282101561171b5788828151811015156114a957fe5b9060200190602002015163ffffffff1688838151811015156114c757fe5b6020908102909101015163ffffffff1610156114e257600080fd5b86828151811015156114f057fe5b602090810290910101516001608060020a0316156115545761154d600154611541898581518110151561151f57fe5b60209081029091010151600b54906001608060020a031663ffffffff61223916565b9063ffffffff61226216565b9050611558565b5060005b601760e060405190810160405280836001608060020a03168152602001888581518110151561158357fe5b906020019060200201516001608060020a0316815260200187858151811015156115a957fe5b906020019060200201516001608060020a0316815260200160006001608060020a031681526020018b858151811015156115df57fe5b9060200190602002015163ffffffff1681526020018a8581518110151561160257fe5b9060200190602002015163ffffffff168152602001868581518110151561162557fe5b602090810291909101810151151590915282546001808201855560009485529382902083516003909202018054928401516fffffffffffffffffffffffffffffffff199384166001608060020a03938416178316608060020a91841682021782556040850151828701805460608801519616918516919091178416949093160292909217905560808201516002909101805460a084015160c09094015163ffffffff1990911663ffffffff9384161767ffffffff00000000191664010000000093909416929092029290921768ff0000000000000000191668010000000000000000911515919091021790559190910190611493565b611723612277565b151561172e57600080fd5b505050505050505050565b60015481565b600a5460ff1681565b600054600160a060020a031681565b600080611762612917565b60019150600092505b60175460ff8416101561184f576017805460ff851690811061178957fe5b60009182526020918290206040805160e08101825260039390930290910180546001608060020a038082168552608060020a91829004811695850195909552600182015480861693850193909352909104909216606082015260029091015463ffffffff80821660808401819052640100000000830490911660a08401526801000000000000000090910460ff16151560c0830152909150421080159061183a57508060a0015163ffffffff164211155b1561184457611854565b60019092019161176b565b600091505b509091565b60095481565b601654604080517fad1def42000000000000000000000000000000000000000000000000000000008152600160a060020a0384811660048301529151600093929092169163ad1def429160248082019260209290919082900301818787803b1580156118ca57600080fd5b505af11580156118de573d6000803e3d6000fd5b505050506040513d60208110156118f457600080fd5b505192915050565b600a5460ff16151561190d57600080fd5b6119156112b0565b1561191f57600080fd5b600d54604080517ffa89401a0000000000000000000000000000000000000000000000000000000081523360048201529051600160a060020a039092169163fa89401a9160248082019260009290919082900301818387803b15801561198457600080fd5b505af1158015610cb7573d6000803e3d6000fd5b60145481565b6004546101009004600160a060020a031681565b60165460a060020a900460ff1681565b60008054600160a060020a031633146119da57600080fd5b600a5460ff1615156119eb57600080fd5b604080517f70a082310000000000000000000000000000000000000000000000000000000081523060048201529051600160a060020a038416916370a082319160248083019260209291908290030181600087803b158015611a4c57600080fd5b505af1158015611a60573d6000803e3d6000fd5b505050506040513d6020811015611a7657600080fd5b505160008054604080517fa9059cbb000000000000000000000000000000000000000000000000000000008152600160a060020a0392831660048201526024810185905290519394509085169263a9059cbb92604480840193602093929083900390910190829087803b158015611aec57600080fd5b505af1158015611b00573d6000803e3d6000fd5b505050506040513d6020811015611b1657600080fd5b5050604080518281529051600160a060020a038416917f4d7f917f6b905f28ba5297e6c224a6cfec20ac6a3698a55b412d30b95ad25d2f919081900360200190a25050565b6011805482908110610dbd57fe5b600080548190600160a060020a03163314611b8357600080fd5b600254610100900460ff1615611b9857600080fd5b60035415611ba557600080fd5b83511515611bb257600080fd5b835160401015611bc157600080fd5b8251845114611bcf57600080fd5b5060005b83518160ff161015611d07578351600090859060ff8416908110611bf357fe5b60209081029091010151600160a060020a031614611cc45760036040805190810160405280868460ff16815181101515611c2957fe5b90602001906020020151600160a060020a03168152602001858460ff16815181101515611c5257fe5b60209081029091018101516bffffffffffffffffffffffff9081169092528354600181018555600094855293819020835194018054939091015190911660a060020a02600160a060020a0393841673ffffffffffffffffffffffffffffffffffffffff19909316929092179092161790555b611cfd838260ff16815181101515611cd857fe5b6020908102909101015183906bffffffffffffffffffffffff1663ffffffff6120e816565b9150600101611bd3565b600154821115611d1657600080fd5b50506002805461ff0019166101001790555050565b600b5460085460009111158080611d43575060065442115b91505090565b600054600160a060020a03163314611d6057600080fd5b600160a060020a0381161515611d7557600080fd5b60008054604051600160a060020a03808516939216917f8be0079c531659141344cd1fd0a4f28419497f9722a3daafe3b4186f6b6457e091a36000805473ffffffffffffffffffffffffffffffffffffffff1916600160a060020a0392909216919091179055565b60025460ff1681565b600d54600160a060020a031681565b60145433600090815260156020526040812054909182914391611e1e919063ffffffff6120e816565b109050808015611d435750611d43612332565b600080600080611e3f612917565b6000869450611e4c611757565b9094509250821515611e5d57600080fd5b6017805460ff8616908110611e6e57fe5b60009182526020918290206040805160e081018252600390930290910180546001608060020a038082168552608060020a91829004811695850195909552600182015480861693850193909352909104909216606082015260029091015463ffffffff808216608084015264010000000082041660a083015260ff680100000000000000009091041615801560c0830152909250611f1a57611f0f8861185f565b1515611f1a57600080fd5b60408201516001608060020a0316851015611f3457600080fd5b60208201516001608060020a031615801590611f5c575081602001516001608060020a031685115b15611f725781602001516001608060020a031694505b600082600001516001608060020a03161115611fe1576060820151611fa6906001608060020a03168663ffffffff6120e816565b82519091506001608060020a0316811115611fe15760608201518251611fde916001608060020a03918216911663ffffffff611ff716565b94505b611feb8886612362565b98975050505050505050565b60008282111561200357fe5b50900390565b6000806000612016611757565b909350915081151561202757600080fd5b6017805460ff851690811061203857fe5b60009182526020909120600390910201600181015490915061206b908590608060020a90046001608060020a03166120e8565b6001820180546001608060020a03928316608060020a029216919091179055610bfc85856123b0565b60008060006120a2846111ae565b6001549092506120ce906115416120bf828663ffffffff6120e816565b6007549063ffffffff61223916565b90506120e0848263ffffffff61223916565b949350505050565b818101828110156111d057fe5b505050565b600f54604080517f827f32c0000000000000000000000000000000000000000000000000000000008152600160a060020a038581166004830152602482018590529151919092169163827f32c09160448083019260209291908290030181600087803b15801561216957600080fd5b505af115801561217d573d6000803e3d6000fd5b505050506040513d6020811015610cb757600080fd5b600d54604080517ff340fa010000000000000000000000000000000000000000000000000000000081523360048201529051600160a060020a039092169163f340fa01918491602480830192600092919082900301818588803b1580156121f957600080fd5b505af115801561220d573d6000803e3d6000fd5b505050505050565b61221d6112b0565b1561222f5761222a6123ce565b612237565b6122376124fb565b565b600082151561224a575060006111d0565b5081810281838281151561225a57fe5b04146111d057fe5b6000818381151561226f57fe5b049392505050565b601654601754600091829160a060020a90910460ff161461229b57600091506112a6565b5060005b6017546000190160ff8216101561232a576017805460ff60018401169081106122c457fe5b60009182526020909120600260039092020101546017805463ffffffff9092169160ff84169081106122f257fe5b6000918252602090912060039091020160020154640100000000900463ffffffff161061232257600091506112a6565b60010161229f565b600191505090565b6000806000600554421015801561234b57506006544211155b91505034151581801561235b5750805b9250505090565b600080600061237c846008546120e890919063ffffffff16565b9050600b548111156123a457600854600b5461239d9163ffffffff611ff716565b91506123a8565b8391505b509392505050565b3360009081526015602052604090204390556123ca828282565b5050565b6000806123f16009546115416001546123e561254e565b9063ffffffff61223916565b91506123fb6125de565b905061240781836125ed565b61240f612237565b600460019054906101000a9004600160a060020a0316600160a060020a0316630f15f4c06040518163ffffffff1660e060020a028152600401600060405180830381600087803b15801561246257600080fd5b505af1158015612476573d6000803e3d6000fd5b50505050600d60009054906101000a9004600160a060020a0316600160a060020a03166343d726d66040518163ffffffff1660e060020a028152600401600060405180830381600087803b1580156124cd57600080fd5b505af11580156124e1573d6000803e3d6000fd5b5050600e546123ca9250600160a060020a03169050612733565b600d60009054906101000a9004600160a060020a0316600160a060020a0316638c52dc416040518163ffffffff1660e060020a028152600401600060405180830381600087803b15801561198457600080fd5b600f54604080517f18160ddd0000000000000000000000000000000000000000000000000000000081529051600092600160a060020a0316916318160ddd91600480830192602092919082900301818787803b1580156125ad57600080fd5b505af11580156125c1573d6000803e3d6000fd5b505050506040513d60208110156125d757600080fd5b5051905090565b600f54600160a060020a031690565b600254600090819060ff161561266457604080517f08c379a000000000000000000000000000000000000000000000000000000000815260206004820152601360248201527f416c726561647920646973747269627574656400000000000000000000000000604482015290519081900360640190fd5b6002805460ff19166001179055600091505b60035460ff83161015612704576126c660015461154160038560ff1681548110151561269e57fe5b600091825260209091200154869060a060020a90046bffffffffffffffffffffffff16612239565b90506126f98460038460ff168154811015156126de57fe5b600091825260209091200154600160a060020a0316836127ae565b600190910190612676565b6040517fb8b570f14eb44ed11fb6b2ac2ff61ceb5b29da5ae60d33184ae20b08f3a47c8990600090a150505050565b600f54604080517f3cebb823000000000000000000000000000000000000000000000000000000008152600160a060020a03848116600483015291519190921691633cebb82391602480830192600092919082900301818387803b15801561279a57600080fd5b505af1158015610bfc573d6000803e3d6000fd5b6120f582826120fa565b828054828255906000526020600020906001016002900481019282156128605791602002820160005b8382111561282b57835183826101000a8154816001608060020a0302191690836001608060020a031602179055509260200192601001602081600f010492830192600103026127e1565b801561285e5782816101000a8154906001608060020a030219169055601001602081600f0104928301926001030261282b565b505b506112a6929150612953565b8280548282559060005260206000209060070160089004810192821561290b5791602002820160005b838211156128d957835183826101000a81548163ffffffff021916908363ffffffff1602179055509260200192600401602081600301049283019260010302612895565b80156129095782816101000a81549063ffffffff02191690556004016020816003010492830192600103026128d9565b505b506112a6929150612980565b6040805160e081018252600080825260208201819052918101829052606081018290526080810182905260a0810182905260c081019190915290565b610deb91905b808211156112a65780546fffffffffffffffffffffffffffffffff19168155600101612959565b610deb91905b808211156112a657805463ffffffff191681556001016129865600a165627a7a7230582083b383a2eb50fc980b0cf5830735dcf86afdd8d1863ae5106a05c9d86ea919080029",
  "source": "pragma solidity^0.4.18;\n\nimport \"./base/crowdsale/BaseCrowdsale.sol\";\nimport \"./base/crowdsale/MiniMeBaseCrowdsale.sol\";\nimport \"./base/crowdsale/BonusCrowdsale.sol\";\nimport \"./base/crowdsale/BlockIntervalCrowdsale.sol\";\nimport \"./base/crowdsale/KYCCrowdsale.sol\";\nimport \"./base/crowdsale/StagedCrowdsale.sol\";\n\ncontract RankingBallGoldCrowdsale is BaseCrowdsale, MiniMeBaseCrowdsale, BonusCrowdsale, BlockIntervalCrowdsale, KYCCrowdsale, StagedCrowdsale {\n\n  bool public initialized;\n\n  // constructor parameters are left padded bytes32.\n\n  function RankingBallGoldCrowdsale(bytes32[5] args) \n    BaseCrowdsale(\n      parseUint(args[0]))\n    MiniMeBaseCrowdsale(\n      parseAddress(args[1]))\n    BonusCrowdsale()\n    BlockIntervalCrowdsale(\n      parseUint(args[2]))\n    KYCCrowdsale(\n      parseAddress(args[3]))\n    StagedCrowdsale(\n      parseUint(args[4])) public {}\n  \n\n  function parseBool(bytes32 b) internal pure returns (bool) {\n    return b == 0x1;\n  }\n\n  function parseUint(bytes32 b) internal pure returns (uint) {\n    return uint(b);\n  }\n\n  function parseAddress(bytes32 b) internal pure returns (address) {\n    return address(b & 0x000000000000000000000000ffffffffffffffffffffffffffffffffffffffff);\n  }\n\n  function init(bytes32[] args) public {\n    uint _startTime = uint(args[0]);\n    uint _endTime = uint(args[1]);\n    uint _rate = uint(args[2]);\n    uint _cap = uint(args[3]);\n    uint _goal = uint(args[4]);\n    uint _crowdsaleRatio = uint(args[5]);\n    address _vault = address(args[6]);\n    address _locker = address(args[7]);\n    address _nextTokenOwner = address(args[8]);\n\n    require(_endTime > _startTime);\n    require(_rate > 0);\n    require(_cap > 0);\n    require(_goal > 0);\n    require(_cap > _goal);\n    require(_crowdsaleRatio > 0);\n    require(_vault != address(0));\n    require(_locker != address(0));\n    require(_nextTokenOwner != address(0));\n    \n    startTime = _startTime;\n    endTime = _endTime;\n    rate = _rate;\n    cap = _cap;\n    goal = _goal;\n    crowdsaleRatio = _crowdsaleRatio;\n    vault = MultiHolderVault(_vault);\n    locker = Locker(_locker);\n    nextTokenOwner = _nextTokenOwner;\n  }\n}\n\n\n\n\n",
  "sourcePath": "/Users/pjh/workspace/rbg-crowdsale/project/contracts/RankingBallGoldCrowdsale.sol",
  "compiler": {
    "name": "solc",
    "version": "0.4.24+commit.e67f0147.Emscripten.clang"
  },
  "schemaVersion": "2.0.0",
  "updatedAt": "2018-06-07T12:04:22.569Z"
}