{
  "contractName": "RBACMock",
  "abi": [
    {
      "constant": true,
      "inputs": [
        {
          "name": "addr",
          "type": "address"
        },
        {
          "name": "roleName",
          "type": "string"
        }
      ],
      "name": "checkRole",
      "outputs": [],
      "payable": false,
      "stateMutability": "view",
      "type": "function"
    },
    {
      "constant": true,
      "inputs": [
        {
          "name": "addr",
          "type": "address"
        },
        {
          "name": "roleName",
          "type": "string"
        }
      ],
      "name": "hasRole",
      "outputs": [
        {
          "name": "",
          "type": "bool"
        }
      ],
      "payable": false,
      "stateMutability": "view",
      "type": "function"
    },
    {
      "constant": false,
      "inputs": [
        {
          "name": "addr",
          "type": "address"
        },
        {
          "name": "roleName",
          "type": "string"
        }
      ],
      "name": "adminRemoveRole",
      "outputs": [],
      "payable": false,
      "stateMutability": "nonpayable",
      "type": "function"
    },
    {
      "constant": false,
      "inputs": [
        {
          "name": "addr",
          "type": "address"
        },
        {
          "name": "roleName",
          "type": "string"
        }
      ],
      "name": "adminAddRole",
      "outputs": [],
      "payable": false,
      "stateMutability": "nonpayable",
      "type": "function"
    },
    {
      "constant": true,
      "inputs": [],
      "name": "ROLE_ADMIN",
      "outputs": [
        {
          "name": "",
          "type": "string"
        }
      ],
      "payable": false,
      "stateMutability": "view",
      "type": "function"
    },
    {
      "inputs": [
        {
          "name": "_advisors",
          "type": "address[]"
        }
      ],
      "payable": false,
      "stateMutability": "nonpayable",
      "type": "constructor"
    },
    {
      "anonymous": false,
      "inputs": [
        {
          "indexed": false,
          "name": "addr",
          "type": "address"
        },
        {
          "indexed": false,
          "name": "roleName",
          "type": "string"
        }
      ],
      "name": "RoleAdded",
      "type": "event"
    },
    {
      "anonymous": false,
      "inputs": [
        {
          "indexed": false,
          "name": "addr",
          "type": "address"
        },
        {
          "indexed": false,
          "name": "roleName",
          "type": "string"
        }
      ],
      "name": "RoleRemoved",
      "type": "event"
    },
    {
      "constant": true,
      "inputs": [],
      "name": "onlyAdminsCanDoThis",
      "outputs": [],
      "payable": false,
      "stateMutability": "view",
      "type": "function"
    },
    {
      "constant": true,
      "inputs": [],
      "name": "onlyAdvisorsCanDoThis",
      "outputs": [],
      "payable": false,
      "stateMutability": "view",
      "type": "function"
    },
    {
      "constant": true,
      "inputs": [],
      "name": "eitherAdminOrAdvisorCanDoThis",
      "outputs": [],
      "payable": false,
      "stateMutability": "view",
      "type": "function"
    },
    {
      "constant": true,
      "inputs": [],
      "name": "nobodyCanDoThis",
      "outputs": [],
      "payable": false,
      "stateMutability": "view",
      "type": "function"
    },
    {
      "constant": false,
      "inputs": [
        {
          "name": "_addr",
          "type": "address"
        }
      ],
      "name": "removeAdvisor",
      "outputs": [],
      "payable": false,
      "stateMutability": "nonpayable",
      "type": "function"
    }
  ],
  "bytecode": "0x608060405234801561001057600080fd5b50604051610bb6380380610bb68339810160408181528251818301909152600582527f61646d696e000000000000000000000000000000000000000000000000000000602083015290910190600090610073903390640100000000610142810204565b6100c1336040805190810160405280600781526020017f61647669736f7200000000000000000000000000000000000000000000000000815250610142640100000000026401000000009004565b5060005b815181101561013b5761013382828151811015156100df57fe5b906020019060200201516040805190810160405280600781526020017f61647669736f7200000000000000000000000000000000000000000000000000815250610142640100000000026401000000009004565b6001016100c5565b5050610295565b6101b9826000836040518082805190602001908083835b602083106101785780518252601f199092019160209182019101610159565b51815160209384036101000a600019018019909216911617905292019485525060405193849003019092209291505064010000000061027081026108a11704565b7fbfec83d64eaa953f2708271a023ab9ee82057f8f3578d548c1a4ba0b5b70048982826040518083600160a060020a0316600160a060020a0316815260200180602001828103825283818151815260200191508051906020019080838360005b83811015610231578181015183820152602001610219565b50505050905090810190601f16801561025e5780820380516001836020036101000a031916815260200191505b50935050505060405180910390a15050565b600160a060020a0316600090815260209190915260409020805460ff19166001179055565b610912806102a46000396000f3006080604052600436106100a35763ffffffff7c01000000000000000000000000000000000000000000000000000000006000350416630988ca8c81146100a85780630eeccb841461011157806316aabcbd14610132578063217fe6c614610147578063420d0ba4146101c25780634fd3d125146101d757806363a5bc71146101ec57806388cee87e14610201578063b25fa92c14610268578063d391014b146102cf575b600080fd5b3480156100b457600080fd5b5060408051602060046024803582810135601f810185900485028601850190965285855261010f958335600160a060020a03169536956044949193909101919081908401838280828437509497506103599650505050505050565b005b34801561011d57600080fd5b5061010f600160a060020a03600435166103c7565b34801561013e57600080fd5b5061010f61044e565b34801561015357600080fd5b5060408051602060046024803582810135601f81018590048502860185019096528585526101ae958335600160a060020a031695369560449491939091019190819084018382808284375094975061047a9650505050505050565b604080519115158252519081900360200190f35b3480156101ce57600080fd5b5061010f6104ed565b3480156101e357600080fd5b5061010f61052b565b3480156101f857600080fd5b5061010f610557565b34801561020d57600080fd5b5060408051602060046024803582810135601f810185900485028601850190965285855261010f958335600160a060020a03169536956044949193909101919081908401838280828437509497506105bf9650505050505050565b34801561027457600080fd5b5060408051602060046024803582810135601f810185900485028601850190965285855261010f958335600160a060020a03169536956044949193909101919081908401838280828437509497506105f39650505050505050565b3480156102db57600080fd5b506102e4610627565b6040805160208082528351818301528351919283929083019185019080838360005b8381101561031e578181015183820152602001610306565b50505050905090810190601f16801561034b5780820380516001836020036101000a031916815260200191505b509250505060405180910390f35b6103c3826000836040518082805190602001908083835b6020831061038f5780518252601f199092019160209182019101610370565b51815160209384036101000a6000190180199092169116179052920194855250604051938490030190922092915050610649565b5050565b6103f13360408051908101604052806005815260200160d960020a6430b236b4b702815250610359565b61041e816040805190810160405280600781526020016000805160206108c7833981519152815250610359565b61044b816040805190810160405280600781526020016000805160206108c783398151915281525061065e565b50565b60408051808201909152600781526000805160206108c7833981519152602082015261044b3382610359565b60006104e6836000846040518082805190602001908083835b602083106104b25780518252601f199092019160209182019101610493565b51815160209384036101000a600019018019909216911617905292019485525060405193849003019092209291505061077f565b9392505050565b60408051808201909152600781527f756e6b6e6f776e00000000000000000000000000000000000000000000000000602082015261044b3382610359565b6105553360408051908101604052806005815260200160d960020a6430b236b4b702815250610359565b565b6105813360408051908101604052806005815260200160d960020a6430b236b4b70281525061047a565b806105b457506105b4336040805190810160405280600781526020016000805160206108c783398151915281525061047a565b151561055557600080fd5b6105e93360408051908101604052806005815260200160d960020a6430b236b4b702815250610359565b6103c3828261065e565b61061d3360408051908101604052806005815260200160d960020a6430b236b4b702815250610359565b6103c3828261079e565b604080518082019091526005815260d960020a6430b236b4b702602082015281565b610653828261077f565b15156103c357600080fd5b6106c8826000836040518082805190602001908083835b602083106106945780518252601f199092019160209182019101610675565b51815160209384036101000a600019018019909216911617905292019485525060405193849003019092209291505061087f565b7fd211483f91fc6eff862467f8de606587a30c8fc9981056f051b897a418df803a82826040518083600160a060020a0316600160a060020a0316815260200180602001828103825283818151815260200191508051906020019080838360005b83811015610740578181015183820152602001610728565b50505050905090810190601f16801561076d5780820380516001836020036101000a031916815260200191505b50935050505060405180910390a15050565b600160a060020a03166000908152602091909152604090205460ff1690565b610808826000836040518082805190602001908083835b602083106107d45780518252601f1990920191602091820191016107b5565b51815160209384036101000a60001901801990921691161790529201948552506040519384900301909220929150506108a1565b7fbfec83d64eaa953f2708271a023ab9ee82057f8f3578d548c1a4ba0b5b70048982826040518083600160a060020a0316600160a060020a03168152602001806020018281038252838181518152602001915080519060200190808383600083811015610740578181015183820152602001610728565b600160a060020a0316600090815260209190915260409020805460ff19169055565b600160a060020a0316600090815260209190915260409020805460ff19166001179055560061647669736f7200000000000000000000000000000000000000000000000000a165627a7a7230582021e2b58453e85b2eb2e433282ff3bb8030d2535c558f547113d6d466e4e9e0960029",
  "source": "pragma solidity ^0.4.8;\n\nimport \"../ownership/rbac/RBAC.sol\";\n\n\ncontract RBACMock is RBAC {\n\n  string constant ROLE_ADVISOR = \"advisor\";\n\n  modifier onlyAdminOrAdvisor()\n  {\n    require(\n      hasRole(msg.sender, ROLE_ADMIN) ||\n      hasRole(msg.sender, ROLE_ADVISOR)\n    );\n    _;\n  }\n\n  function RBACMock(address[] _advisors)\n    public\n  {\n    addRole(msg.sender, ROLE_ADVISOR);\n\n    for (uint256 i = 0; i < _advisors.length; i++) {\n      addRole(_advisors[i], ROLE_ADVISOR);\n    }\n  }\n\n  function onlyAdminsCanDoThis()\n    onlyAdmin\n    view\n    external\n  {\n  }\n\n  function onlyAdvisorsCanDoThis()\n    onlyRole(ROLE_ADVISOR)\n    view\n    external\n  {\n  }\n\n  function eitherAdminOrAdvisorCanDoThis()\n    onlyAdminOrAdvisor\n    view\n    external\n  {\n  }\n\n  function nobodyCanDoThis()\n    onlyRole(\"unknown\")\n    view\n    external\n  {\n  }\n\n  // admins can remove advisor's role\n  function removeAdvisor(address _addr)\n    onlyAdmin\n    public\n  {\n    // revert if the user isn't an advisor\n    //  (perhaps you want to soft-fail here instead?)\n    checkRole(_addr, ROLE_ADVISOR);\n\n    // remove the advisor's role\n    removeRole(_addr, ROLE_ADVISOR);\n  }\n}\n",
  "sourcePath": "/Users/pjh/workspace/rbg-crowdsale/project/contracts/base/zeppelin/mocks/RBACMock.sol",
  "compiler": {
    "name": "solc",
    "version": "0.4.24+commit.e67f0147.Emscripten.clang"
  },
  "schemaVersion": "2.0.0",
  "updatedAt": "2018-06-01T09:11:30.195Z"
}