{
  "contractName": "ReentrancyMock",
  "abi": [
    {
      "constant": true,
      "inputs": [],
      "name": "counter",
      "outputs": [
        {
          "name": "",
          "type": "uint256"
        }
      ],
      "payable": false,
      "stateMutability": "view",
      "type": "function"
    },
    {
      "inputs": [],
      "payable": false,
      "stateMutability": "nonpayable",
      "type": "constructor"
    },
    {
      "constant": false,
      "inputs": [],
      "name": "callback",
      "outputs": [],
      "payable": false,
      "stateMutability": "nonpayable",
      "type": "function"
    },
    {
      "constant": false,
      "inputs": [
        {
          "name": "n",
          "type": "uint256"
        }
      ],
      "name": "countLocalRecursive",
      "outputs": [],
      "payable": false,
      "stateMutability": "nonpayable",
      "type": "function"
    },
    {
      "constant": false,
      "inputs": [
        {
          "name": "n",
          "type": "uint256"
        }
      ],
      "name": "countThisRecursive",
      "outputs": [],
      "payable": false,
      "stateMutability": "nonpayable",
      "type": "function"
    },
    {
      "constant": false,
      "inputs": [
        {
          "name": "attacker",
          "type": "address"
        }
      ],
      "name": "countAndCall",
      "outputs": [],
      "payable": false,
      "stateMutability": "nonpayable",
      "type": "function"
    }
  ],
  "bytecode": "0x60806040526000805460ff1916905534801561001a57600080fd5b5060006001556103868061002f6000396000f3006080604052600436106100535763ffffffff60e060020a600035041663083b2732811461005857806361bc221a1461006f5780638c5344fa1461009657806396ffa690146100ae578063b672ad8b146100c6575b600080fd5b34801561006457600080fd5b5061006d6100f4565b005b34801561007b57600080fd5b50610084610125565b60408051918252519081900360200190f35b3480156100a257600080fd5b5061006d60043561012b565b3480156100ba57600080fd5b5061006d600435610201565b3480156100d257600080fd5b5061006d73ffffffffffffffffffffffffffffffffffffffff60043516610246565b60005460ff161561010457600080fd5b6000805460ff19166001179055610119610350565b6000805460ff19169055565b60015481565b60008054819060ff161561013e57600080fd5b6000805460ff19166001178155604080517f636f756e74546869735265637572736976652875696e743235362900000000008152905190819003601b01902092508311156101f25761018e610350565b3073ffffffffffffffffffffffffffffffffffffffff168260e060020a9004600185036040518263ffffffff1660e060020a028152600401808281526020019150506000604051808303816000875af193505050508015156001146101f257600080fd5b50506000805460ff1916905550565b60005460ff161561021157600080fd5b6000805460ff191660011781558111156102395761022d610350565b61023960018203610201565b506000805460ff19169055565b6000805460ff161561025757600080fd5b6000805460ff1916600117905561026c610350565b50604080517f63616c6c6261636b2829000000000000000000000000000000000000000000008152815190819003600a0181207f0a2df1ed0000000000000000000000000000000000000000000000000000000082527fffffffff0000000000000000000000000000000000000000000000000000000081166004830152915173ffffffffffffffffffffffffffffffffffffffff841691630a2df1ed91602480830192600092919082900301818387803b15801561032a57600080fd5b505af115801561033e573d6000803e3d6000fd5b50506000805460ff1916905550505050565b60018054810190555600a165627a7a72305820028630e365a368c51652b67d8f830c20978cde98594ca97cfc1393fe859b58260029",
  "source": "pragma solidity ^0.4.18;\n\nimport \"../ReentrancyGuard.sol\";\nimport \"./ReentrancyAttack.sol\";\n\n\ncontract ReentrancyMock is ReentrancyGuard {\n\n  uint256 public counter;\n\n  function ReentrancyMock() public {\n    counter = 0;\n  }\n\n  function callback() external nonReentrant {\n    count();\n  }\n\n  function countLocalRecursive(uint256 n) public nonReentrant {\n    if (n > 0) {\n      count();\n      countLocalRecursive(n - 1);\n    }\n  }\n\n  function countThisRecursive(uint256 n) public nonReentrant {\n    bytes4 func = bytes4(keccak256(\"countThisRecursive(uint256)\"));\n    if (n > 0) {\n      count();\n      bool result = this.call(func, n - 1);\n      require(result == true);\n    }\n  }\n\n  function countAndCall(ReentrancyAttack attacker) public nonReentrant {\n    count();\n    bytes4 func = bytes4(keccak256(\"callback()\"));\n    attacker.callSender(func);\n  }\n\n  function count() private {\n    counter += 1;\n  }\n\n}\n",
  "sourcePath": "/Users/pjh/workspace/rbg-crowdsale/project/contracts/base/zeppelin/mocks/ReentrancyMock.sol",
  "compiler": {
    "name": "solc",
    "version": "0.4.24+commit.e67f0147.Emscripten.clang"
  },
  "schemaVersion": "2.0.0",
  "updatedAt": "2018-06-01T09:11:30.196Z"
}