{
  "contractName": "RefundableCrowdsaleImpl",
  "abi": [
    {
      "constant": true,
      "inputs": [],
      "name": "rate",
      "outputs": [
        {
          "name": "",
          "type": "uint256"
        }
      ],
      "payable": false,
      "stateMutability": "view",
      "type": "function"
    },
    {
      "constant": true,
      "inputs": [],
      "name": "endTime",
      "outputs": [
        {
          "name": "",
          "type": "uint256"
        }
      ],
      "payable": false,
      "stateMutability": "view",
      "type": "function"
    },
    {
      "constant": true,
      "inputs": [],
      "name": "goal",
      "outputs": [
        {
          "name": "",
          "type": "uint256"
        }
      ],
      "payable": false,
      "stateMutability": "view",
      "type": "function"
    },
    {
      "constant": true,
      "inputs": [],
      "name": "weiRaised",
      "outputs": [
        {
          "name": "",
          "type": "uint256"
        }
      ],
      "payable": false,
      "stateMutability": "view",
      "type": "function"
    },
    {
      "constant": false,
      "inputs": [],
      "name": "finalize",
      "outputs": [],
      "payable": false,
      "stateMutability": "nonpayable",
      "type": "function"
    },
    {
      "constant": true,
      "inputs": [],
      "name": "wallet",
      "outputs": [
        {
          "name": "",
          "type": "address"
        }
      ],
      "payable": false,
      "stateMutability": "view",
      "type": "function"
    },
    {
      "constant": true,
      "inputs": [],
      "name": "startTime",
      "outputs": [
        {
          "name": "",
          "type": "uint256"
        }
      ],
      "payable": false,
      "stateMutability": "view",
      "type": "function"
    },
    {
      "constant": true,
      "inputs": [],
      "name": "goalReached",
      "outputs": [
        {
          "name": "",
          "type": "bool"
        }
      ],
      "payable": false,
      "stateMutability": "view",
      "type": "function"
    },
    {
      "constant": true,
      "inputs": [],
      "name": "isFinalized",
      "outputs": [
        {
          "name": "",
          "type": "bool"
        }
      ],
      "payable": false,
      "stateMutability": "view",
      "type": "function"
    },
    {
      "constant": true,
      "inputs": [],
      "name": "owner",
      "outputs": [
        {
          "name": "",
          "type": "address"
        }
      ],
      "payable": false,
      "stateMutability": "view",
      "type": "function"
    },
    {
      "constant": false,
      "inputs": [],
      "name": "claimRefund",
      "outputs": [],
      "payable": false,
      "stateMutability": "nonpayable",
      "type": "function"
    },
    {
      "constant": false,
      "inputs": [
        {
          "name": "beneficiary",
          "type": "address"
        }
      ],
      "name": "buyTokens",
      "outputs": [],
      "payable": true,
      "stateMutability": "payable",
      "type": "function"
    },
    {
      "constant": true,
      "inputs": [],
      "name": "hasEnded",
      "outputs": [
        {
          "name": "",
          "type": "bool"
        }
      ],
      "payable": false,
      "stateMutability": "view",
      "type": "function"
    },
    {
      "constant": false,
      "inputs": [
        {
          "name": "newOwner",
          "type": "address"
        }
      ],
      "name": "transferOwnership",
      "outputs": [],
      "payable": false,
      "stateMutability": "nonpayable",
      "type": "function"
    },
    {
      "constant": true,
      "inputs": [],
      "name": "vault",
      "outputs": [
        {
          "name": "",
          "type": "address"
        }
      ],
      "payable": false,
      "stateMutability": "view",
      "type": "function"
    },
    {
      "constant": true,
      "inputs": [],
      "name": "token",
      "outputs": [
        {
          "name": "",
          "type": "address"
        }
      ],
      "payable": false,
      "stateMutability": "view",
      "type": "function"
    },
    {
      "inputs": [
        {
          "name": "_startTime",
          "type": "uint256"
        },
        {
          "name": "_endTime",
          "type": "uint256"
        },
        {
          "name": "_rate",
          "type": "uint256"
        },
        {
          "name": "_wallet",
          "type": "address"
        },
        {
          "name": "_goal",
          "type": "uint256"
        }
      ],
      "payable": false,
      "stateMutability": "nonpayable",
      "type": "constructor"
    },
    {
      "payable": true,
      "stateMutability": "payable",
      "type": "fallback"
    },
    {
      "anonymous": false,
      "inputs": [],
      "name": "Finalized",
      "type": "event"
    },
    {
      "anonymous": false,
      "inputs": [
        {
          "indexed": true,
          "name": "previousOwner",
          "type": "address"
        },
        {
          "indexed": true,
          "name": "newOwner",
          "type": "address"
        }
      ],
      "name": "OwnershipTransferred",
      "type": "event"
    },
    {
      "anonymous": false,
      "inputs": [
        {
          "indexed": true,
          "name": "purchaser",
          "type": "address"
        },
        {
          "indexed": true,
          "name": "beneficiary",
          "type": "address"
        },
        {
          "indexed": false,
          "name": "value",
          "type": "uint256"
        },
        {
          "indexed": false,
          "name": "amount",
          "type": "uint256"
        }
      ],
      "name": "TokenPurchase",
      "type": "event"
    }
  ],
  "bytecode": "0x60806040526006805460a060020a60ff021916905534801561002057600080fd5b5060405160a080611a73833981016040908152815160208301519183015160608401516080909401519193909180858585854284101561005f57600080fd5b8383101561006c57600080fd5b6000821161007957600080fd5b600160a060020a038116151561008e57600080fd5b61009f640100000000610164810204565b60008054600160a060020a03928316600160a060020a0319918216178255600196909655600294909455600492909255600380549190921690841617905560068054909216331790915581116100f457600080fd5b600354600160a060020a0316610108610190565b600160a060020a03909116815260405190819003602001906000f080158015610135573d6000803e3d6000fd5b5060088054600160a060020a031916600160a060020a0392909216919091179055600755506101b09350505050565b600061016e6101a0565b604051809103906000f08015801561018a573d6000803e3d6000fd5b50905090565b6040516105fe80610a3b83390190565b604051610a3a8061103983390190565b61087c806101bf6000396000f3006080604052600436106100cc5763ffffffff60e060020a6000350416632c4e722e81146100d75780633197cbb6146100fe57806340193883146101135780634042b66f146101285780634bb278f31461013d578063521eb2731461015257806378e97925146101835780637d3d6522146101985780638d4e4083146101c15780638da5cb5b146101d6578063b5545a3c146101eb578063ec8ac4d814610200578063ecb70fb714610214578063f2fde38b14610229578063fbfa77cf1461024a578063fc0c546a1461025f575b6100d533610274565b005b3480156100e357600080fd5b506100ec6103b7565b60408051918252519081900360200190f35b34801561010a57600080fd5b506100ec6103bd565b34801561011f57600080fd5b506100ec6103c3565b34801561013457600080fd5b506100ec6103c9565b34801561014957600080fd5b506100d56103cf565b34801561015e57600080fd5b50610167610489565b60408051600160a060020a039092168252519081900360200190f35b34801561018f57600080fd5b506100ec610498565b3480156101a457600080fd5b506101ad61049e565b604080519115158252519081900360200190f35b3480156101cd57600080fd5b506101ad6104a9565b3480156101e257600080fd5b506101676104ca565b3480156101f757600080fd5b506100d56104d9565b6100d5600160a060020a0360043516610274565b34801561022057600080fd5b506101ad610593565b34801561023557600080fd5b506100d5600160a060020a036004351661059b565b34801561025657600080fd5b50610167610630565b34801561026b57600080fd5b5061016761063f565b600080600160a060020a038316151561028c57600080fd5b61029461064e565b151561029f57600080fd5b3491506102ab8261067e565b6005549091506102c1908363ffffffff61069b16565b60055560008054604080517f40c10f19000000000000000000000000000000000000000000000000000000008152600160a060020a03878116600483015260248201869052915191909216926340c10f1992604480820193602093909283900390910190829087803b15801561033657600080fd5b505af115801561034a573d6000803e3d6000fd5b505050506040513d602081101561036057600080fd5b505060408051838152602081018390528151600160a060020a0386169233927f623b3804fa71d67900d064613da8f94b9617215ee90799290593e1745087ad18929081900390910190a36103b26106b5565b505050565b60045481565b60025481565b60075481565b60055481565b600654600160a060020a031633146103e657600080fd5b60065474010000000000000000000000000000000000000000900460ff161561040e57600080fd5b610416610593565b151561042157600080fd5b610429610736565b6040517f6823b073d48d6e3a7d385eeb601452d680e74bb46afe3255a7d778f3a9b1768190600090a16006805474ff0000000000000000000000000000000000000000191674010000000000000000000000000000000000000000179055565b600354600160a060020a031681565b60015481565b600754600554101590565b60065474010000000000000000000000000000000000000000900460ff1681565b600654600160a060020a031681565b60065474010000000000000000000000000000000000000000900460ff16151561050257600080fd5b61050a61049e565b1561051457600080fd5b600854604080517ffa89401a0000000000000000000000000000000000000000000000000000000081523360048201529051600160a060020a039092169163fa89401a9160248082019260009290919082900301818387803b15801561057957600080fd5b505af115801561058d573d6000803e3d6000fd5b50505050565b600254421190565b600654600160a060020a031633146105b257600080fd5b600160a060020a03811615156105c757600080fd5b600654604051600160a060020a038084169216907f8be0079c531659141344cd1fd0a4f28419497f9722a3daafe3b4186f6b6457e090600090a36006805473ffffffffffffffffffffffffffffffffffffffff1916600160a060020a0392909216919091179055565b600854600160a060020a031681565b600054600160a060020a031681565b6000806000600154421015801561066757506002544211155b9150503415158180156106775750805b9250505090565b60006106956004548361082590919063ffffffff16565b92915050565b6000828201838110156106aa57fe5b8091505b5092915050565b600854604080517ff340fa010000000000000000000000000000000000000000000000000000000081523360048201529051600160a060020a039092169163f340fa01913491602480830192600092919082900301818588803b15801561071b57600080fd5b505af115801561072f573d6000803e3d6000fd5b5050505050565b61073e61049e565b156107b357600860009054906101000a9004600160a060020a0316600160a060020a03166343d726d66040518163ffffffff1660e060020a028152600401600060405180830381600087803b15801561079657600080fd5b505af11580156107aa573d6000803e3d6000fd5b5050505061081f565b600860009054906101000a9004600160a060020a0316600160a060020a0316638c52dc416040518163ffffffff1660e060020a028152600401600060405180830381600087803b15801561080657600080fd5b505af115801561081a573d6000803e3d6000fd5b505050505b6108235b565b60008083151561083857600091506106ae565b5082820282848281151561084857fe5b04146106aa57fe00a165627a7a72305820f76457a7aaffe90851558616ffa1401bd3f3d2f8f3be7c9fa56eea24f36e5b5b0029608060405234801561001057600080fd5b506040516020806105fe833981016040525160008054600160a060020a03191633179055600160a060020a038116151561004957600080fd5b60028054600160a060020a031916600160a060020a03929092169190911760a060020a60ff021916905561057c806100826000396000f3006080604052600436106100985763ffffffff7c010000000000000000000000000000000000000000000000000000000060003504166343d726d6811461009d578063521eb273146100b45780638c52dc41146100e55780638da5cb5b146100fa578063c19d93fb1461010f578063cb13cddb14610148578063f2fde38b1461017b578063f340fa011461019c578063fa89401a146101b0575b600080fd5b3480156100a957600080fd5b506100b26101d1565b005b3480156100c057600080fd5b506100c96102a7565b60408051600160a060020a039092168252519081900360200190f35b3480156100f157600080fd5b506100b26102b6565b34801561010657600080fd5b506100c9610340565b34801561011b57600080fd5b5061012461034f565b6040518082600281111561013457fe5b60ff16815260200191505060405180910390f35b34801561015457600080fd5b50610169600160a060020a036004351661035f565b60408051918252519081900360200190f35b34801561018757600080fd5b506100b2600160a060020a0360043516610371565b6100b2600160a060020a0360043516610405565b3480156101bc57600080fd5b506100b2600160a060020a0360043516610485565b600054600160a060020a031633146101e857600080fd5b60006002805460a060020a900460ff169081111561020257fe5b1461020c57600080fd5b6002805474ff00000000000000000000000000000000000000001916740200000000000000000000000000000000000000001790556040517f1cdde67b72a90f19919ac732a437ac2f7a10fc128d28c2a6e525d89ce5cd9d3a90600090a1600254604051600160a060020a0390911690303180156108fc02916000818181858888f193505050501580156102a4573d6000803e3d6000fd5b50565b600254600160a060020a031681565b600054600160a060020a031633146102cd57600080fd5b60006002805460a060020a900460ff16908111156102e757fe5b146102f157600080fd5b6002805474ff0000000000000000000000000000000000000000191660a060020a1790556040517f599d8e5a83cffb867d051598c4d70e805d59802d8081c1c7d6dffc5b6aca2b8990600090a1565b600054600160a060020a031681565b60025460a060020a900460ff1681565b60016020526000908152604090205481565b600054600160a060020a0316331461038857600080fd5b600160a060020a038116151561039d57600080fd5b60008054604051600160a060020a03808516939216917f8be0079c531659141344cd1fd0a4f28419497f9722a3daafe3b4186f6b6457e091a36000805473ffffffffffffffffffffffffffffffffffffffff1916600160a060020a0392909216919091179055565b600054600160a060020a0316331461041c57600080fd5b60006002805460a060020a900460ff169081111561043657fe5b1461044057600080fd5b600160a060020a038116600090815260016020526040902054610469903463ffffffff61053a16565b600160a060020a03909116600090815260016020526040902055565b600060016002805460a060020a900460ff16908111156104a157fe5b146104ab57600080fd5b50600160a060020a038116600081815260016020526040808220805490839055905190929183156108fc02918491818181858888f193505050501580156104f6573d6000803e3d6000fd5b50604080518281529051600160a060020a038416917fd7dee2702d63ad89917b6a4da9981c90c4d24f8c2bdfd64c604ecae57d8d0651919081900360200190a25050565b60008282018381101561054957fe5b93925050505600a165627a7a7230582097169b521300d31f892b2d0fbe4f087c53dea9afa410ab4448feb388d6b33fb40029608060405260038054600160a860020a03191633179055610a15806100256000396000f3006080604052600436106100c45763ffffffff7c010000000000000000000000000000000000000000000000000000000060003504166305d2035b81146100c9578063095ea7b3146100f257806318160ddd1461011657806323b872dd1461013d57806340c10f1914610167578063661884631461018b57806370a08231146101af5780637d64bcb4146101d05780638da5cb5b146101e5578063a9059cbb14610216578063d73dd6231461023a578063dd62ed3e1461025e578063f2fde38b14610285575b600080fd5b3480156100d557600080fd5b506100de6102a8565b604080519115158252519081900360200190f35b3480156100fe57600080fd5b506100de600160a060020a03600435166024356102c9565b34801561012257600080fd5b5061012b61032f565b60408051918252519081900360200190f35b34801561014957600080fd5b506100de600160a060020a0360043581169060243516604435610335565b34801561017357600080fd5b506100de600160a060020a03600435166024356104ac565b34801561019757600080fd5b506100de600160a060020a03600435166024356105c7565b3480156101bb57600080fd5b5061012b600160a060020a03600435166106b7565b3480156101dc57600080fd5b506100de6106d2565b3480156101f157600080fd5b506101fa610778565b60408051600160a060020a039092168252519081900360200190f35b34801561022257600080fd5b506100de600160a060020a0360043516602435610787565b34801561024657600080fd5b506100de600160a060020a0360043516602435610868565b34801561026a57600080fd5b5061012b600160a060020a0360043581169060243516610901565b34801561029157600080fd5b506102a6600160a060020a036004351661092c565b005b60035474010000000000000000000000000000000000000000900460ff1681565b336000818152600260209081526040808320600160a060020a038716808552908352818420869055815186815291519394909390927f8c5be1e5ebec7d5bd14f71427d1e84f3dd0314c0f7b2291e5b200ac8c7c3b925928290030190a350600192915050565b60015490565b6000600160a060020a038316151561034c57600080fd5b600160a060020a03841660009081526020819052604090205482111561037157600080fd5b600160a060020a03841660009081526002602090815260408083203384529091529020548211156103a157600080fd5b600160a060020a0384166000908152602081905260409020546103ca908363ffffffff6109c116565b600160a060020a0380861660009081526020819052604080822093909355908516815220546103ff908363ffffffff6109d316565b600160a060020a03808516600090815260208181526040808320949094559187168152600282528281203382529091522054610441908363ffffffff6109c116565b600160a060020a03808616600081815260026020908152604080832033845282529182902094909455805186815290519287169391927fddf252ad1be2c89b69c2b068fc378daa952ba7f163c4a11628f55a4df523b3ef929181900390910190a35060019392505050565b600354600090600160a060020a031633146104c657600080fd5b60035474010000000000000000000000000000000000000000900460ff16156104ee57600080fd5b600154610501908363ffffffff6109d316565b600155600160a060020a03831660009081526020819052604090205461052d908363ffffffff6109d316565b600160a060020a03841660008181526020818152604091829020939093558051858152905191927f0f6798a560793a54c3bcfe86a93cde1e73087d944c0ea20544137d412139688592918290030190a2604080518381529051600160a060020a038516916000917fddf252ad1be2c89b69c2b068fc378daa952ba7f163c4a11628f55a4df523b3ef9181900360200190a350600192915050565b336000908152600260209081526040808320600160a060020a03861684529091528120548083111561061c57336000908152600260209081526040808320600160a060020a0388168452909152812055610651565b61062c818463ffffffff6109c116565b336000908152600260209081526040808320600160a060020a03891684529091529020555b336000818152600260209081526040808320600160a060020a0389168085529083529281902054815190815290519293927f8c5be1e5ebec7d5bd14f71427d1e84f3dd0314c0f7b2291e5b200ac8c7c3b925929181900390910190a35060019392505050565b600160a060020a031660009081526020819052604090205490565b600354600090600160a060020a031633146106ec57600080fd5b60035474010000000000000000000000000000000000000000900460ff161561071457600080fd5b6003805474ff00000000000000000000000000000000000000001916740100000000000000000000000000000000000000001790556040517fae5184fba832cb2b1f702aca6117b8d265eaf03ad33eb133f19dde0f5920fa0890600090a150600190565b600354600160a060020a031681565b6000600160a060020a038316151561079e57600080fd5b336000908152602081905260409020548211156107ba57600080fd5b336000908152602081905260409020546107da908363ffffffff6109c116565b3360009081526020819052604080822092909255600160a060020a0385168152205461080c908363ffffffff6109d316565b600160a060020a038416600081815260208181526040918290209390935580518581529051919233927fddf252ad1be2c89b69c2b068fc378daa952ba7f163c4a11628f55a4df523b3ef9281900390910190a350600192915050565b336000908152600260209081526040808320600160a060020a038616845290915281205461089c908363ffffffff6109d316565b336000818152600260209081526040808320600160a060020a0389168085529083529281902085905580519485525191937f8c5be1e5ebec7d5bd14f71427d1e84f3dd0314c0f7b2291e5b200ac8c7c3b925929081900390910190a350600192915050565b600160a060020a03918216600090815260026020908152604080832093909416825291909152205490565b600354600160a060020a0316331461094357600080fd5b600160a060020a038116151561095857600080fd5b600354604051600160a060020a038084169216907f8be0079c531659141344cd1fd0a4f28419497f9722a3daafe3b4186f6b6457e090600090a36003805473ffffffffffffffffffffffffffffffffffffffff1916600160a060020a0392909216919091179055565b6000828211156109cd57fe5b50900390565b6000828201838110156109e257fe5b93925050505600a165627a7a723058207aeee622b1a820936e678eaeeecf6cd8a95bbae667c8c94248a931692eb7b9920029",
  "source": "pragma solidity ^0.4.18;\n\n\nimport \"../crowdsale/RefundableCrowdsale.sol\";\n\n\ncontract RefundableCrowdsaleImpl is RefundableCrowdsale {\n\n  function RefundableCrowdsaleImpl (\n    uint256 _startTime,\n    uint256 _endTime,\n    uint256 _rate,\n    address _wallet,\n    uint256 _goal\n  ) public\n    Crowdsale(_startTime, _endTime, _rate, _wallet)\n    RefundableCrowdsale(_goal)\n  {\n  }\n\n}\n",
  "sourcePath": "/Users/pjh/workspace/rbg-crowdsale/project/contracts/base/zeppelin/mocks/RefundableCrowdsaleImpl.sol",
  "compiler": {
    "name": "solc",
    "version": "0.4.24+commit.e67f0147.Emscripten.clang"
  },
  "schemaVersion": "2.0.0",
  "updatedAt": "2018-06-03T08:53:55.785Z"
}