{
  "contractName": "SafeMathMock",
  "abi": [
    {
      "constant": true,
      "inputs": [],
      "name": "result",
      "outputs": [
        {
          "name": "",
          "type": "uint256"
        }
      ],
      "payable": false,
      "stateMutability": "view",
      "type": "function"
    },
    {
      "constant": false,
      "inputs": [
        {
          "name": "a",
          "type": "uint256"
        },
        {
          "name": "b",
          "type": "uint256"
        }
      ],
      "name": "multiply",
      "outputs": [],
      "payable": false,
      "stateMutability": "nonpayable",
      "type": "function"
    },
    {
      "constant": false,
      "inputs": [
        {
          "name": "a",
          "type": "uint256"
        },
        {
          "name": "b",
          "type": "uint256"
        }
      ],
      "name": "subtract",
      "outputs": [],
      "payable": false,
      "stateMutability": "nonpayable",
      "type": "function"
    },
    {
      "constant": false,
      "inputs": [
        {
          "name": "a",
          "type": "uint256"
        },
        {
          "name": "b",
          "type": "uint256"
        }
      ],
      "name": "add",
      "outputs": [],
      "payable": false,
      "stateMutability": "nonpayable",
      "type": "function"
    }
  ],
  "bytecode": "0x608060405234801561001057600080fd5b5061018e806100206000396000f3006080604052600436106100615763ffffffff7c0100000000000000000000000000000000000000000000000000000000600035041663165c4a1681146100665780633ef5e44514610083578063653721471461009e578063771602f7146100c5575b600080fd5b34801561007257600080fd5b506100816004356024356100e0565b005b34801561008f57600080fd5b506100816004356024356100f1565b3480156100aa57600080fd5b506100b36100fb565b60408051918252519081900360200190f35b3480156100d157600080fd5b50610081600435602435610101565b6100ea828261010b565b6000555050565b6100ea8282610141565b60005481565b6100ea8282610153565b60008083151561011e576000915061013a565b5082820282848281151561012e57fe5b041461013657fe5b8091505b5092915050565b60008282111561014d57fe5b50900390565b60008282018381101561013657fe00a165627a7a723058204147163c9e40889744de587291b915484b0dd1a5cb4aff15d77fb92c9ba33f390029",
  "source": "pragma solidity ^0.4.18;\n\n\nimport \"../math/SafeMath.sol\";\n\n\ncontract SafeMathMock {\n  uint256 public result;\n\n  function multiply(uint256 a, uint256 b) public {\n    result = SafeMath.mul(a, b);\n  }\n\n  function subtract(uint256 a, uint256 b) public {\n    result = SafeMath.sub(a, b);\n  }\n\n  function add(uint256 a, uint256 b) public {\n    result = SafeMath.add(a, b);\n  }\n}\n",
  "sourcePath": "/Users/pjh/workspace/rbg-crowdsale/project/contracts/base/zeppelin/mocks/SafeMathMock.sol",
  "compiler": {
    "name": "solc",
    "version": "0.4.24+commit.e67f0147.Emscripten.clang"
  },
  "schemaVersion": "2.0.0",
  "updatedAt": "2018-06-03T08:58:08.957Z"
}