{
  "contractName": "SafeERC20Helper",
  "abi": [
    {
      "inputs": [],
      "payable": false,
      "stateMutability": "nonpayable",
      "type": "constructor"
    },
    {
      "constant": false,
      "inputs": [],
      "name": "doFailingTransfer",
      "outputs": [],
      "payable": false,
      "stateMutability": "nonpayable",
      "type": "function"
    },
    {
      "constant": false,
      "inputs": [],
      "name": "doFailingTransferFrom",
      "outputs": [],
      "payable": false,
      "stateMutability": "nonpayable",
      "type": "function"
    },
    {
      "constant": false,
      "inputs": [],
      "name": "doFailingApprove",
      "outputs": [],
      "payable": false,
      "stateMutability": "nonpayable",
      "type": "function"
    },
    {
      "constant": false,
      "inputs": [],
      "name": "doSucceedingTransfer",
      "outputs": [],
      "payable": false,
      "stateMutability": "nonpayable",
      "type": "function"
    },
    {
      "constant": false,
      "inputs": [],
      "name": "doSucceedingTransferFrom",
      "outputs": [],
      "payable": false,
      "stateMutability": "nonpayable",
      "type": "function"
    },
    {
      "constant": false,
      "inputs": [],
      "name": "doSucceedingApprove",
      "outputs": [],
      "payable": false,
      "stateMutability": "nonpayable",
      "type": "function"
    }
  ],
  "bytecode": "0x608060405234801561001057600080fd5b506100196100a0565b604051809103906000f080158015610035573d6000803e3d6000fd5b5060008054600160a060020a031916600160a060020a039290921691909117905561005e6100b0565b604051809103906000f08015801561007a573d6000803e3d6000fd5b5060018054600160a060020a031916600160a060020a03929092169190911790556100c0565b6040516101e58061044983390190565b6040516101f18061062e83390190565b61037a806100cf6000396000f30060806040526004361061005e5763ffffffff60e060020a60003504166350930ca5811461006357806356b2c5bb1461007a5780636573ee1e1461008f578063afa03ac9146100a4578063b19faed8146100b9578063d7228bb5146100ce575b600080fd5b34801561006f57600080fd5b506100786100e3565b005b34801561008657600080fd5b50610078610106565b34801561009b57600080fd5b50610078610124565b3480156100b057600080fd5b50610078610144565b3480156100c557600080fd5b50610078610164565b3480156100da57600080fd5b50610078610182565b6000805461010491600160a060020a0390911690808063ffffffff6101a116565b565b60015461010490600160a060020a031660008063ffffffff61024f16565b6000805461010491600160a060020a03909116908063ffffffff6102eb16565b6000805461010491600160a060020a03909116908063ffffffff61024f16565b60015461010490600160a060020a031660008063ffffffff6102eb16565b60015461010490600160a060020a03166000808063ffffffff6101a116565b604080517f23b872dd000000000000000000000000000000000000000000000000000000008152600160a060020a0385811660048301528481166024830152604482018490529151918616916323b872dd916064808201926020929091908290030181600087803b15801561021557600080fd5b505af1158015610229573d6000803e3d6000fd5b505050506040513d602081101561023f57600080fd5b5051151561024957fe5b50505050565b82600160a060020a031663a9059cbb83836040518363ffffffff1660e060020a0281526004018083600160a060020a0316600160a060020a0316815260200182815260200192505050602060405180830381600087803b1580156102b257600080fd5b505af11580156102c6573d6000803e3d6000fd5b505050506040513d60208110156102dc57600080fd5b505115156102e657fe5b505050565b82600160a060020a031663095ea7b383836040518363ffffffff1660e060020a0281526004018083600160a060020a0316600160a060020a0316815260200182815260200192505050602060405180830381600087803b1580156102b257600080fd00a165627a7a72305820df2f4498d0f94e8e3cc6780f60703993a59668c596a7f0c865a7a6cf0b7fc92f0029608060405234801561001057600080fd5b506101c5806100206000396000f3006080604052600436106100775763ffffffff7c0100000000000000000000000000000000000000000000000000000000600035041663095ea7b3811461007c57806318160ddd146100c157806323b872dd146100e857806370a082311461011f578063a9059cbb1461007c578063dd62ed3e1461014d575b600080fd5b34801561008857600080fd5b506100ad73ffffffffffffffffffffffffffffffffffffffff6004351660243561017d565b604080519115158252519081900360200190f35b3480156100cd57600080fd5b506100d6610185565b60408051918252519081900360200190f35b3480156100f457600080fd5b506100ad73ffffffffffffffffffffffffffffffffffffffff6004358116906024351660443561018a565b34801561012b57600080fd5b506100d673ffffffffffffffffffffffffffffffffffffffff60043516610193565b34801561015957600080fd5b506100d673ffffffffffffffffffffffffffffffffffffffff600435811690602435165b600092915050565b600090565b60009392505050565b506000905600a165627a7a723058203d08247a934f9e2e7cf614ecd2f17b0ec46589faf283d2397f1464a84bffa5c80029608060405234801561001057600080fd5b506101d1806100206000396000f3006080604052600436106100775763ffffffff7c0100000000000000000000000000000000000000000000000000000000600035041663095ea7b3811461007c57806318160ddd146100c157806323b872dd146100e857806370a082311461011f578063a9059cbb1461007c578063dd62ed3e1461014d575b600080fd5b34801561008857600080fd5b506100ad73ffffffffffffffffffffffffffffffffffffffff60043516602435610181565b604080519115158252519081900360200190f35b3480156100cd57600080fd5b506100d6610189565b60408051918252519081900360200190f35b3480156100f457600080fd5b506100ad73ffffffffffffffffffffffffffffffffffffffff6004358116906024351660443561018e565b34801561012b57600080fd5b506100d673ffffffffffffffffffffffffffffffffffffffff60043516610197565b34801561015957600080fd5b506100d673ffffffffffffffffffffffffffffffffffffffff6004358116906024351661019d565b600192915050565b600090565b60019392505050565b50600090565b6000929150505600a165627a7a723058207b0a134d3e70a3001566bdd220ad96ad6764e80cda053c25f4fae96a1a5424800029",
  "source": "pragma solidity ^0.4.18;\n\nimport \"../token/ERC20/ERC20.sol\";\nimport \"../token/ERC20/SafeERC20.sol\";\n\n\ncontract ERC20FailingMock is ERC20 {\n  function totalSupply() public view returns (uint256) {\n    return 0;\n  }\n\n  function transfer(address, uint256) public returns (bool) {\n    return false;\n  }\n\n  function transferFrom(address, address, uint256) public returns (bool) {\n    return false;\n  }\n\n  function approve(address, uint256) public returns (bool) {\n    return false;\n  }\n\n  function balanceOf(address) public constant returns (uint256) {\n    return 0;\n  }\n\n  function allowance(address, address) public constant returns (uint256) {\n    return 0;\n  }\n}\n\n\ncontract ERC20SucceedingMock is ERC20 {\n  function totalSupply() public view returns (uint256) {\n    return 0;\n  }\n  \n  function transfer(address, uint256) public returns (bool) {\n    return true;\n  }\n\n  function transferFrom(address, address, uint256) public returns (bool) {\n    return true;\n  }\n\n  function approve(address, uint256) public returns (bool) {\n    return true;\n  }\n\n  function balanceOf(address) public constant returns (uint256) {\n    return 0;\n  }\n\n  function allowance(address, address) public constant returns (uint256) {\n    return 0;\n  }\n}\n\n\ncontract SafeERC20Helper {\n  using SafeERC20 for ERC20;\n\n  ERC20 failing;\n  ERC20 succeeding;\n\n  function SafeERC20Helper() public {\n    failing = new ERC20FailingMock();\n    succeeding = new ERC20SucceedingMock();\n  }\n\n  function doFailingTransfer() public {\n    failing.safeTransfer(0, 0);\n  }\n\n  function doFailingTransferFrom() public {\n    failing.safeTransferFrom(0, 0, 0);\n  }\n\n  function doFailingApprove() public {\n    failing.safeApprove(0, 0);\n  }\n\n  function doSucceedingTransfer() public {\n    succeeding.safeTransfer(0, 0);\n  }\n\n  function doSucceedingTransferFrom() public {\n    succeeding.safeTransferFrom(0, 0, 0);\n  }\n\n  function doSucceedingApprove() public {\n    succeeding.safeApprove(0, 0);\n  }\n}\n",
  "sourcePath": "/Users/pjh/workspace/rbg-crowdsale/project/contracts/base/zeppelin/mocks/SafeERC20Helper.sol",
  "compiler": {
    "name": "solc",
    "version": "0.4.24+commit.e67f0147.Emscripten.clang"
  },
  "schemaVersion": "2.0.0",
  "updatedAt": "2018-06-03T08:53:55.802Z"
}