{
  "contractName": "SampleCrowdsale",
  "abi": [
    {
      "constant": true,
      "inputs": [],
      "name": "rate",
      "outputs": [
        {
          "name": "",
          "type": "uint256"
        }
      ],
      "payable": false,
      "stateMutability": "view",
      "type": "function"
    },
    {
      "constant": true,
      "inputs": [],
      "name": "endTime",
      "outputs": [
        {
          "name": "",
          "type": "uint256"
        }
      ],
      "payable": false,
      "stateMutability": "view",
      "type": "function"
    },
    {
      "constant": true,
      "inputs": [],
      "name": "cap",
      "outputs": [
        {
          "name": "",
          "type": "uint256"
        }
      ],
      "payable": false,
      "stateMutability": "view",
      "type": "function"
    },
    {
      "constant": true,
      "inputs": [],
      "name": "goal",
      "outputs": [
        {
          "name": "",
          "type": "uint256"
        }
      ],
      "payable": false,
      "stateMutability": "view",
      "type": "function"
    },
    {
      "constant": true,
      "inputs": [],
      "name": "weiRaised",
      "outputs": [
        {
          "name": "",
          "type": "uint256"
        }
      ],
      "payable": false,
      "stateMutability": "view",
      "type": "function"
    },
    {
      "constant": false,
      "inputs": [],
      "name": "finalize",
      "outputs": [],
      "payable": false,
      "stateMutability": "nonpayable",
      "type": "function"
    },
    {
      "constant": true,
      "inputs": [],
      "name": "wallet",
      "outputs": [
        {
          "name": "",
          "type": "address"
        }
      ],
      "payable": false,
      "stateMutability": "view",
      "type": "function"
    },
    {
      "constant": true,
      "inputs": [],
      "name": "startTime",
      "outputs": [
        {
          "name": "",
          "type": "uint256"
        }
      ],
      "payable": false,
      "stateMutability": "view",
      "type": "function"
    },
    {
      "constant": true,
      "inputs": [],
      "name": "goalReached",
      "outputs": [
        {
          "name": "",
          "type": "bool"
        }
      ],
      "payable": false,
      "stateMutability": "view",
      "type": "function"
    },
    {
      "constant": true,
      "inputs": [],
      "name": "isFinalized",
      "outputs": [
        {
          "name": "",
          "type": "bool"
        }
      ],
      "payable": false,
      "stateMutability": "view",
      "type": "function"
    },
    {
      "constant": true,
      "inputs": [],
      "name": "owner",
      "outputs": [
        {
          "name": "",
          "type": "address"
        }
      ],
      "payable": false,
      "stateMutability": "view",
      "type": "function"
    },
    {
      "constant": false,
      "inputs": [],
      "name": "claimRefund",
      "outputs": [],
      "payable": false,
      "stateMutability": "nonpayable",
      "type": "function"
    },
    {
      "constant": false,
      "inputs": [
        {
          "name": "beneficiary",
          "type": "address"
        }
      ],
      "name": "buyTokens",
      "outputs": [],
      "payable": true,
      "stateMutability": "payable",
      "type": "function"
    },
    {
      "constant": true,
      "inputs": [],
      "name": "hasEnded",
      "outputs": [
        {
          "name": "",
          "type": "bool"
        }
      ],
      "payable": false,
      "stateMutability": "view",
      "type": "function"
    },
    {
      "constant": false,
      "inputs": [
        {
          "name": "newOwner",
          "type": "address"
        }
      ],
      "name": "transferOwnership",
      "outputs": [],
      "payable": false,
      "stateMutability": "nonpayable",
      "type": "function"
    },
    {
      "constant": true,
      "inputs": [],
      "name": "vault",
      "outputs": [
        {
          "name": "",
          "type": "address"
        }
      ],
      "payable": false,
      "stateMutability": "view",
      "type": "function"
    },
    {
      "constant": true,
      "inputs": [],
      "name": "token",
      "outputs": [
        {
          "name": "",
          "type": "address"
        }
      ],
      "payable": false,
      "stateMutability": "view",
      "type": "function"
    },
    {
      "inputs": [
        {
          "name": "_startTime",
          "type": "uint256"
        },
        {
          "name": "_endTime",
          "type": "uint256"
        },
        {
          "name": "_rate",
          "type": "uint256"
        },
        {
          "name": "_goal",
          "type": "uint256"
        },
        {
          "name": "_cap",
          "type": "uint256"
        },
        {
          "name": "_wallet",
          "type": "address"
        }
      ],
      "payable": false,
      "stateMutability": "nonpayable",
      "type": "constructor"
    },
    {
      "payable": true,
      "stateMutability": "payable",
      "type": "fallback"
    },
    {
      "anonymous": false,
      "inputs": [],
      "name": "Finalized",
      "type": "event"
    },
    {
      "anonymous": false,
      "inputs": [
        {
          "indexed": true,
          "name": "previousOwner",
          "type": "address"
        },
        {
          "indexed": true,
          "name": "newOwner",
          "type": "address"
        }
      ],
      "name": "OwnershipTransferred",
      "type": "event"
    },
    {
      "anonymous": false,
      "inputs": [
        {
          "indexed": true,
          "name": "purchaser",
          "type": "address"
        },
        {
          "indexed": true,
          "name": "beneficiary",
          "type": "address"
        },
        {
          "indexed": false,
          "name": "value",
          "type": "uint256"
        },
        {
          "indexed": false,
          "name": "amount",
          "type": "uint256"
        }
      ],
      "name": "TokenPurchase",
      "type": "event"
    }
  ],
  "bytecode": "0x60806040526007805460a060020a60ff021916905534801561002057600080fd5b5060405160c080611c7183398101604090815281516020830151918301516060840151608085015160a090950151929491929091908282878787854284101561006857600080fd5b8383101561007557600080fd5b6000821161008257600080fd5b600160a060020a038116151561009757600080fd5b6100a864010000000061018f810204565b60008054600160a060020a0319908116600160a060020a039384161782556001969096556002949094556004929092556003805490941691161790915581116100f057600080fd5b60065560078054600160a060020a031916331790556000811161011257600080fd5b600354600160a060020a03166101266101bb565b600160a060020a03909116815260405190819003602001906000f080158015610153573d6000803e3d6000fd5b5060098054600160a060020a031916600160a060020a03929092169190911790556008558183111561018457600080fd5b5050505050506101db565b60006101996101cb565b604051809103906000f0801580156101b5573d6000803e3d6000fd5b50905090565b6040516105fe80610adb83390190565b604051610b98806110d983390190565b6108f1806101ea6000396000f3006080604052600436106100d75763ffffffff60e060020a6000350416632c4e722e81146100e25780633197cbb614610109578063355274ea1461011e57806340193883146101335780634042b66f146101485780634bb278f31461015d578063521eb2731461017257806378e97925146101a35780637d3d6522146101b85780638d4e4083146101e15780638da5cb5b146101f6578063b5545a3c1461020b578063ec8ac4d814610220578063ecb70fb714610234578063f2fde38b14610249578063fbfa77cf1461026a578063fc0c546a1461027f575b6100e033610294565b005b3480156100ee57600080fd5b506100f76103d7565b60408051918252519081900360200190f35b34801561011557600080fd5b506100f76103dd565b34801561012a57600080fd5b506100f76103e3565b34801561013f57600080fd5b506100f76103e9565b34801561015457600080fd5b506100f76103ef565b34801561016957600080fd5b506100e06103f5565b34801561017e57600080fd5b506101876104af565b60408051600160a060020a039092168252519081900360200190f35b3480156101af57600080fd5b506100f76104be565b3480156101c457600080fd5b506101cd6104c4565b604080519115158252519081900360200190f35b3480156101ed57600080fd5b506101cd6104cf565b34801561020257600080fd5b506101876104f0565b34801561021757600080fd5b506100e06104ff565b6100e0600160a060020a0360043516610294565b34801561024057600080fd5b506101cd6105b9565b34801561025557600080fd5b506100e0600160a060020a03600435166105d9565b34801561027657600080fd5b5061018761066e565b34801561028b57600080fd5b5061018761067d565b600080600160a060020a03831615156102ac57600080fd5b6102b461068c565b15156102bf57600080fd5b3491506102cb826106bb565b6005549091506102e1908363ffffffff6106d816565b60055560008054604080517f40c10f19000000000000000000000000000000000000000000000000000000008152600160a060020a03878116600483015260248201869052915191909216926340c10f1992604480820193602093909283900390910190829087803b15801561035657600080fd5b505af115801561036a573d6000803e3d6000fd5b505050506040513d602081101561038057600080fd5b505060408051838152602081018390528151600160a060020a0386169233927f623b3804fa71d67900d064613da8f94b9617215ee90799290593e1745087ad18929081900390910190a36103d26106f2565b505050565b60045481565b60025481565b60065481565b60085481565b60055481565b600754600160a060020a0316331461040c57600080fd5b60075474010000000000000000000000000000000000000000900460ff161561043457600080fd5b61043c6105b9565b151561044757600080fd5b61044f610773565b6040517f6823b073d48d6e3a7d385eeb601452d680e74bb46afe3255a7d778f3a9b1768190600090a16007805474ff0000000000000000000000000000000000000000191674010000000000000000000000000000000000000000179055565b600354600160a060020a031681565b60015481565b600854600554101590565b60075474010000000000000000000000000000000000000000900460ff1681565b600754600160a060020a031681565b60075474010000000000000000000000000000000000000000900460ff16151561052857600080fd5b6105306104c4565b1561053a57600080fd5b600954604080517ffa89401a0000000000000000000000000000000000000000000000000000000081523360048201529051600160a060020a039092169163fa89401a9160248082019260009290919082900301818387803b15801561059f57600080fd5b505af11580156105b3573d6000803e3d6000fd5b50505050565b600654600554600091111580806105d357506105d3610862565b91505090565b600754600160a060020a031633146105f057600080fd5b600160a060020a038116151561060557600080fd5b600754604051600160a060020a038084169216907f8be0079c531659141344cd1fd0a4f28419497f9722a3daafe3b4186f6b6457e090600090a36007805473ffffffffffffffffffffffffffffffffffffffff1916600160a060020a0392909216919091179055565b600954600160a060020a031681565b600054600160a060020a031681565b6000806006546106a7346005546106d890919063ffffffff16565b111590508080156105d357506105d361086a565b60006106d26004548361089a90919063ffffffff16565b92915050565b6000828201838110156106e757fe5b8091505b5092915050565b600954604080517ff340fa010000000000000000000000000000000000000000000000000000000081523360048201529051600160a060020a039092169163f340fa01913491602480830192600092919082900301818588803b15801561075857600080fd5b505af115801561076c573d6000803e3d6000fd5b5050505050565b61077b6104c4565b156107f057600960009054906101000a9004600160a060020a0316600160a060020a03166343d726d66040518163ffffffff1660e060020a028152600401600060405180830381600087803b1580156107d357600080fd5b505af11580156107e7573d6000803e3d6000fd5b5050505061085c565b600960009054906101000a9004600160a060020a0316600160a060020a0316638c52dc416040518163ffffffff1660e060020a028152600401600060405180830381600087803b15801561084357600080fd5b505af1158015610857573d6000803e3d6000fd5b505050505b6108605b565b600254421190565b6000806000600154421015801561088357506002544211155b9150503415158180156108935750805b9250505090565b6000808315156108ad57600091506106eb565b508282028284828115156108bd57fe5b04146106e757fe00a165627a7a723058206e90061e6f340155944e5f80c8e41a7634d004da0a1c2357a3cf4c38d54210270029608060405234801561001057600080fd5b506040516020806105fe833981016040525160008054600160a060020a03191633179055600160a060020a038116151561004957600080fd5b60028054600160a060020a031916600160a060020a03929092169190911760a060020a60ff021916905561057c806100826000396000f3006080604052600436106100985763ffffffff7c010000000000000000000000000000000000000000000000000000000060003504166343d726d6811461009d578063521eb273146100b45780638c52dc41146100e55780638da5cb5b146100fa578063c19d93fb1461010f578063cb13cddb14610148578063f2fde38b1461017b578063f340fa011461019c578063fa89401a146101b0575b600080fd5b3480156100a957600080fd5b506100b26101d1565b005b3480156100c057600080fd5b506100c96102a7565b60408051600160a060020a039092168252519081900360200190f35b3480156100f157600080fd5b506100b26102b6565b34801561010657600080fd5b506100c9610340565b34801561011b57600080fd5b5061012461034f565b6040518082600281111561013457fe5b60ff16815260200191505060405180910390f35b34801561015457600080fd5b50610169600160a060020a036004351661035f565b60408051918252519081900360200190f35b34801561018757600080fd5b506100b2600160a060020a0360043516610371565b6100b2600160a060020a0360043516610405565b3480156101bc57600080fd5b506100b2600160a060020a0360043516610485565b600054600160a060020a031633146101e857600080fd5b60006002805460a060020a900460ff169081111561020257fe5b1461020c57600080fd5b6002805474ff00000000000000000000000000000000000000001916740200000000000000000000000000000000000000001790556040517f1cdde67b72a90f19919ac732a437ac2f7a10fc128d28c2a6e525d89ce5cd9d3a90600090a1600254604051600160a060020a0390911690303180156108fc02916000818181858888f193505050501580156102a4573d6000803e3d6000fd5b50565b600254600160a060020a031681565b600054600160a060020a031633146102cd57600080fd5b60006002805460a060020a900460ff16908111156102e757fe5b146102f157600080fd5b6002805474ff0000000000000000000000000000000000000000191660a060020a1790556040517f599d8e5a83cffb867d051598c4d70e805d59802d8081c1c7d6dffc5b6aca2b8990600090a1565b600054600160a060020a031681565b60025460a060020a900460ff1681565b60016020526000908152604090205481565b600054600160a060020a0316331461038857600080fd5b600160a060020a038116151561039d57600080fd5b60008054604051600160a060020a03808516939216917f8be0079c531659141344cd1fd0a4f28419497f9722a3daafe3b4186f6b6457e091a36000805473ffffffffffffffffffffffffffffffffffffffff1916600160a060020a0392909216919091179055565b600054600160a060020a0316331461041c57600080fd5b60006002805460a060020a900460ff169081111561043657fe5b1461044057600080fd5b600160a060020a038116600090815260016020526040902054610469903463ffffffff61053a16565b600160a060020a03909116600090815260016020526040902055565b600060016002805460a060020a900460ff16908111156104a157fe5b146104ab57600080fd5b50600160a060020a038116600081815260016020526040808220805490839055905190929183156108fc02918491818181858888f193505050501580156104f6573d6000803e3d6000fd5b50604080518281529051600160a060020a038416917fd7dee2702d63ad89917b6a4da9981c90c4d24f8c2bdfd64c604ecae57d8d0651919081900360200190a25050565b60008282018381101561054957fe5b93925050505600a165627a7a7230582097169b521300d31f892b2d0fbe4f087c53dea9afa410ab4448feb388d6b33fb40029608060405260038054600160a860020a03191633179055610b73806100256000396000f3006080604052600436106100e55763ffffffff7c010000000000000000000000000000000000000000000000000000000060003504166305d2035b81146100ea57806306fdde0314610113578063095ea7b31461019d57806318160ddd146101c157806323b872dd146101e8578063313ce5671461021257806340c10f191461023d578063661884631461026157806370a08231146102855780637d64bcb4146102a65780638da5cb5b146102bb57806395d89b41146102ec578063a9059cbb14610301578063d73dd62314610325578063dd62ed3e14610349578063f2fde38b14610370575b600080fd5b3480156100f657600080fd5b506100ff610393565b604080519115158252519081900360200190f35b34801561011f57600080fd5b506101286103b4565b6040805160208082528351818301528351919283929083019185019080838360005b8381101561016257818101518382015260200161014a565b50505050905090810190601f16801561018f5780820380516001836020036101000a031916815260200191505b509250505060405180910390f35b3480156101a957600080fd5b506100ff600160a060020a03600435166024356103eb565b3480156101cd57600080fd5b506101d6610451565b60408051918252519081900360200190f35b3480156101f457600080fd5b506100ff600160a060020a0360043581169060243516604435610457565b34801561021e57600080fd5b506102276105ce565b6040805160ff9092168252519081900360200190f35b34801561024957600080fd5b506100ff600160a060020a03600435166024356105d3565b34801561026d57600080fd5b506100ff600160a060020a03600435166024356106ee565b34801561029157600080fd5b506101d6600160a060020a03600435166107de565b3480156102b257600080fd5b506100ff6107f9565b3480156102c757600080fd5b506102d061089f565b60408051600160a060020a039092168252519081900360200190f35b3480156102f857600080fd5b506101286108ae565b34801561030d57600080fd5b506100ff600160a060020a03600435166024356108e5565b34801561033157600080fd5b506100ff600160a060020a03600435166024356109c6565b34801561035557600080fd5b506101d6600160a060020a0360043581169060243516610a5f565b34801561037c57600080fd5b50610391600160a060020a0360043516610a8a565b005b60035474010000000000000000000000000000000000000000900460ff1681565b60408051808201909152601681527f53616d706c652043726f776473616c6520546f6b656e00000000000000000000602082015281565b336000818152600260209081526040808320600160a060020a038716808552908352818420869055815186815291519394909390927f8c5be1e5ebec7d5bd14f71427d1e84f3dd0314c0f7b2291e5b200ac8c7c3b925928290030190a350600192915050565b60015490565b6000600160a060020a038316151561046e57600080fd5b600160a060020a03841660009081526020819052604090205482111561049357600080fd5b600160a060020a03841660009081526002602090815260408083203384529091529020548211156104c357600080fd5b600160a060020a0384166000908152602081905260409020546104ec908363ffffffff610b1f16565b600160a060020a038086166000908152602081905260408082209390935590851681522054610521908363ffffffff610b3116565b600160a060020a03808516600090815260208181526040808320949094559187168152600282528281203382529091522054610563908363ffffffff610b1f16565b600160a060020a03808616600081815260026020908152604080832033845282529182902094909455805186815290519287169391927fddf252ad1be2c89b69c2b068fc378daa952ba7f163c4a11628f55a4df523b3ef929181900390910190a35060019392505050565b601281565b600354600090600160a060020a031633146105ed57600080fd5b60035474010000000000000000000000000000000000000000900460ff161561061557600080fd5b600154610628908363ffffffff610b3116565b600155600160a060020a038316600090815260208190526040902054610654908363ffffffff610b3116565b600160a060020a03841660008181526020818152604091829020939093558051858152905191927f0f6798a560793a54c3bcfe86a93cde1e73087d944c0ea20544137d412139688592918290030190a2604080518381529051600160a060020a038516916000917fddf252ad1be2c89b69c2b068fc378daa952ba7f163c4a11628f55a4df523b3ef9181900360200190a350600192915050565b336000908152600260209081526040808320600160a060020a03861684529091528120548083111561074357336000908152600260209081526040808320600160a060020a0388168452909152812055610778565b610753818463ffffffff610b1f16565b336000908152600260209081526040808320600160a060020a03891684529091529020555b336000818152600260209081526040808320600160a060020a0389168085529083529281902054815190815290519293927f8c5be1e5ebec7d5bd14f71427d1e84f3dd0314c0f7b2291e5b200ac8c7c3b925929181900390910190a35060019392505050565b600160a060020a031660009081526020819052604090205490565b600354600090600160a060020a0316331461081357600080fd5b60035474010000000000000000000000000000000000000000900460ff161561083b57600080fd5b6003805474ff00000000000000000000000000000000000000001916740100000000000000000000000000000000000000001790556040517fae5184fba832cb2b1f702aca6117b8d265eaf03ad33eb133f19dde0f5920fa0890600090a150600190565b600354600160a060020a031681565b60408051808201909152600381527f5343540000000000000000000000000000000000000000000000000000000000602082015281565b6000600160a060020a03831615156108fc57600080fd5b3360009081526020819052604090205482111561091857600080fd5b33600090815260208190526040902054610938908363ffffffff610b1f16565b3360009081526020819052604080822092909255600160a060020a0385168152205461096a908363ffffffff610b3116565b600160a060020a038416600081815260208181526040918290209390935580518581529051919233927fddf252ad1be2c89b69c2b068fc378daa952ba7f163c4a11628f55a4df523b3ef9281900390910190a350600192915050565b336000908152600260209081526040808320600160a060020a03861684529091528120546109fa908363ffffffff610b3116565b336000818152600260209081526040808320600160a060020a0389168085529083529281902085905580519485525191937f8c5be1e5ebec7d5bd14f71427d1e84f3dd0314c0f7b2291e5b200ac8c7c3b925929081900390910190a350600192915050565b600160a060020a03918216600090815260026020908152604080832093909416825291909152205490565b600354600160a060020a03163314610aa157600080fd5b600160a060020a0381161515610ab657600080fd5b600354604051600160a060020a038084169216907f8be0079c531659141344cd1fd0a4f28419497f9722a3daafe3b4186f6b6457e090600090a36003805473ffffffffffffffffffffffffffffffffffffffff1916600160a060020a0392909216919091179055565b600082821115610b2b57fe5b50900390565b600082820183811015610b4057fe5b93925050505600a165627a7a723058208b5c2cbb09e204307898bce3f16339d40b0515ee069f769a49dcb036e32763870029",
  "source": "pragma solidity ^0.4.18;\n\nimport \"../crowdsale/CappedCrowdsale.sol\";\nimport \"../crowdsale/RefundableCrowdsale.sol\";\nimport \"../token/MintableToken.sol\";\n\n\n/**\n * @title SampleCrowdsaleToken\n * @dev Very simple ERC20 Token that can be minted.\n * It is meant to be used in a crowdsale contract.\n */\ncontract SampleCrowdsaleToken is MintableToken {\n\n  string public constant name = \"Sample Crowdsale Token\"; // solium-disable-line uppercase\n  string public constant symbol = \"SCT\"; // solium-disable-line uppercase\n  uint8 public constant decimals = 18; // solium-disable-line uppercase\n\n}\n\n\n/**\n * @title SampleCrowdsale\n * @dev This is an example of a fully fledged crowdsale.\n * The way to add new features to a base crowdsale is by multiple inheritance.\n * In this example we are providing following extensions:\n * CappedCrowdsale - sets a max boundary for raised funds\n * RefundableCrowdsale - set a min goal to be reached and returns funds if it's not met\n *\n * After adding multiple features it's good practice to run integration tests\n * to ensure that subcontracts works together as intended.\n */\ncontract SampleCrowdsale is CappedCrowdsale, RefundableCrowdsale {\n\n  function SampleCrowdsale(uint256 _startTime, uint256 _endTime, uint256 _rate, uint256 _goal, uint256 _cap, address _wallet) public\n    CappedCrowdsale(_cap)\n    FinalizableCrowdsale()\n    RefundableCrowdsale(_goal)\n    Crowdsale(_startTime, _endTime, _rate, _wallet)\n  {\n    //As goal needs to be met for a successful crowdsale\n    //the value needs to less or equal than a cap which is limit for accepted funds\n    require(_goal <= _cap);\n  }\n\n  function createTokenContract() internal returns (MintableToken) {\n    return new SampleCrowdsaleToken();\n  }\n\n}\n",
  "sourcePath": "/Users/pjh/workspace/rbg-crowdsale/project/contracts/base/zeppelin/examples/SampleCrowdsale.sol",
  "compiler": {
    "name": "solc",
    "version": "0.4.24+commit.e67f0147.Emscripten.clang"
  },
  "schemaVersion": "2.0.0",
  "updatedAt": "2018-06-03T08:58:08.953Z"
}