{
  "contractName": "SampleProjectToken",
  "abi": [
    {
      "constant": true,
      "inputs": [],
      "name": "name",
      "outputs": [
        {
          "name": "",
          "type": "string"
        }
      ],
      "payable": false,
      "stateMutability": "view",
      "type": "function"
    },
    {
      "constant": false,
      "inputs": [
        {
          "name": "_spender",
          "type": "address"
        },
        {
          "name": "_amount",
          "type": "uint256"
        }
      ],
      "name": "approve",
      "outputs": [
        {
          "name": "success",
          "type": "bool"
        }
      ],
      "payable": false,
      "stateMutability": "nonpayable",
      "type": "function"
    },
    {
      "constant": true,
      "inputs": [],
      "name": "creationBlock",
      "outputs": [
        {
          "name": "",
          "type": "uint256"
        }
      ],
      "payable": false,
      "stateMutability": "view",
      "type": "function"
    },
    {
      "constant": true,
      "inputs": [],
      "name": "totalSupply",
      "outputs": [
        {
          "name": "",
          "type": "uint256"
        }
      ],
      "payable": false,
      "stateMutability": "view",
      "type": "function"
    },
    {
      "constant": false,
      "inputs": [
        {
          "name": "_from",
          "type": "address"
        },
        {
          "name": "_to",
          "type": "address"
        },
        {
          "name": "_amount",
          "type": "uint256"
        }
      ],
      "name": "transferFrom",
      "outputs": [
        {
          "name": "success",
          "type": "bool"
        }
      ],
      "payable": false,
      "stateMutability": "nonpayable",
      "type": "function"
    },
    {
      "constant": true,
      "inputs": [],
      "name": "decimals",
      "outputs": [
        {
          "name": "",
          "type": "uint8"
        }
      ],
      "payable": false,
      "stateMutability": "view",
      "type": "function"
    },
    {
      "constant": false,
      "inputs": [
        {
          "name": "_newController",
          "type": "address"
        }
      ],
      "name": "changeController",
      "outputs": [],
      "payable": false,
      "stateMutability": "nonpayable",
      "type": "function"
    },
    {
      "constant": false,
      "inputs": [
        {
          "name": "_amount",
          "type": "uint256"
        }
      ],
      "name": "burn",
      "outputs": [
        {
          "name": "",
          "type": "bool"
        }
      ],
      "payable": false,
      "stateMutability": "nonpayable",
      "type": "function"
    },
    {
      "constant": true,
      "inputs": [
        {
          "name": "_owner",
          "type": "address"
        },
        {
          "name": "_blockNumber",
          "type": "uint256"
        }
      ],
      "name": "balanceOfAt",
      "outputs": [
        {
          "name": "",
          "type": "uint256"
        }
      ],
      "payable": false,
      "stateMutability": "view",
      "type": "function"
    },
    {
      "constant": true,
      "inputs": [],
      "name": "version",
      "outputs": [
        {
          "name": "",
          "type": "string"
        }
      ],
      "payable": false,
      "stateMutability": "view",
      "type": "function"
    },
    {
      "constant": false,
      "inputs": [
        {
          "name": "_cloneTokenName",
          "type": "string"
        },
        {
          "name": "_cloneDecimalUnits",
          "type": "uint8"
        },
        {
          "name": "_cloneTokenSymbol",
          "type": "string"
        },
        {
          "name": "_snapshotBlock",
          "type": "uint256"
        },
        {
          "name": "_transfersEnabled",
          "type": "bool"
        }
      ],
      "name": "createCloneToken",
      "outputs": [
        {
          "name": "",
          "type": "address"
        }
      ],
      "payable": false,
      "stateMutability": "nonpayable",
      "type": "function"
    },
    {
      "constant": true,
      "inputs": [
        {
          "name": "_owner",
          "type": "address"
        }
      ],
      "name": "balanceOf",
      "outputs": [
        {
          "name": "balance",
          "type": "uint256"
        }
      ],
      "payable": false,
      "stateMutability": "view",
      "type": "function"
    },
    {
      "constant": true,
      "inputs": [],
      "name": "parentToken",
      "outputs": [
        {
          "name": "",
          "type": "address"
        }
      ],
      "payable": false,
      "stateMutability": "view",
      "type": "function"
    },
    {
      "constant": false,
      "inputs": [
        {
          "name": "_owner",
          "type": "address"
        },
        {
          "name": "_amount",
          "type": "uint256"
        }
      ],
      "name": "generateTokens",
      "outputs": [
        {
          "name": "",
          "type": "bool"
        }
      ],
      "payable": false,
      "stateMutability": "nonpayable",
      "type": "function"
    },
    {
      "constant": true,
      "inputs": [],
      "name": "symbol",
      "outputs": [
        {
          "name": "",
          "type": "string"
        }
      ],
      "payable": false,
      "stateMutability": "view",
      "type": "function"
    },
    {
      "constant": true,
      "inputs": [
        {
          "name": "_blockNumber",
          "type": "uint256"
        }
      ],
      "name": "totalSupplyAt",
      "outputs": [
        {
          "name": "",
          "type": "uint256"
        }
      ],
      "payable": false,
      "stateMutability": "view",
      "type": "function"
    },
    {
      "constant": false,
      "inputs": [
        {
          "name": "_to",
          "type": "address"
        },
        {
          "name": "_amount",
          "type": "uint256"
        }
      ],
      "name": "transfer",
      "outputs": [
        {
          "name": "success",
          "type": "bool"
        }
      ],
      "payable": false,
      "stateMutability": "nonpayable",
      "type": "function"
    },
    {
      "constant": true,
      "inputs": [],
      "name": "transfersEnabled",
      "outputs": [
        {
          "name": "",
          "type": "bool"
        }
      ],
      "payable": false,
      "stateMutability": "view",
      "type": "function"
    },
    {
      "constant": true,
      "inputs": [],
      "name": "parentSnapShotBlock",
      "outputs": [
        {
          "name": "",
          "type": "uint256"
        }
      ],
      "payable": false,
      "stateMutability": "view",
      "type": "function"
    },
    {
      "constant": false,
      "inputs": [
        {
          "name": "_spender",
          "type": "address"
        },
        {
          "name": "_amount",
          "type": "uint256"
        },
        {
          "name": "_extraData",
          "type": "bytes"
        }
      ],
      "name": "approveAndCall",
      "outputs": [
        {
          "name": "success",
          "type": "bool"
        }
      ],
      "payable": false,
      "stateMutability": "nonpayable",
      "type": "function"
    },
    {
      "constant": false,
      "inputs": [
        {
          "name": "_owner",
          "type": "address"
        },
        {
          "name": "_amount",
          "type": "uint256"
        }
      ],
      "name": "destroyTokens",
      "outputs": [
        {
          "name": "",
          "type": "bool"
        }
      ],
      "payable": false,
      "stateMutability": "nonpayable",
      "type": "function"
    },
    {
      "constant": true,
      "inputs": [
        {
          "name": "_owner",
          "type": "address"
        },
        {
          "name": "_spender",
          "type": "address"
        }
      ],
      "name": "allowance",
      "outputs": [
        {
          "name": "remaining",
          "type": "uint256"
        }
      ],
      "payable": false,
      "stateMutability": "view",
      "type": "function"
    },
    {
      "constant": false,
      "inputs": [
        {
          "name": "_token",
          "type": "address"
        }
      ],
      "name": "claimTokens",
      "outputs": [],
      "payable": false,
      "stateMutability": "nonpayable",
      "type": "function"
    },
    {
      "constant": true,
      "inputs": [],
      "name": "tokenFactory",
      "outputs": [
        {
          "name": "",
          "type": "address"
        }
      ],
      "payable": false,
      "stateMutability": "view",
      "type": "function"
    },
    {
      "constant": false,
      "inputs": [
        {
          "name": "_transfersEnabled",
          "type": "bool"
        }
      ],
      "name": "enableTransfers",
      "outputs": [],
      "payable": false,
      "stateMutability": "nonpayable",
      "type": "function"
    },
    {
      "constant": true,
      "inputs": [],
      "name": "controller",
      "outputs": [
        {
          "name": "",
          "type": "address"
        }
      ],
      "payable": false,
      "stateMutability": "view",
      "type": "function"
    },
    {
      "inputs": [
        {
          "name": "_tokenFactory",
          "type": "address"
        }
      ],
      "payable": false,
      "stateMutability": "nonpayable",
      "type": "constructor"
    },
    {
      "payable": true,
      "stateMutability": "payable",
      "type": "fallback"
    },
    {
      "anonymous": false,
      "inputs": [
        {
          "indexed": true,
          "name": "burner",
          "type": "address"
        },
        {
          "indexed": false,
          "name": "value",
          "type": "uint256"
        }
      ],
      "name": "Burn",
      "type": "event"
    },
    {
      "anonymous": false,
      "inputs": [
        {
          "indexed": true,
          "name": "_token",
          "type": "address"
        },
        {
          "indexed": true,
          "name": "_controller",
          "type": "address"
        },
        {
          "indexed": false,
          "name": "_amount",
          "type": "uint256"
        }
      ],
      "name": "ClaimedTokens",
      "type": "event"
    },
    {
      "anonymous": false,
      "inputs": [
        {
          "indexed": true,
          "name": "_from",
          "type": "address"
        },
        {
          "indexed": true,
          "name": "_to",
          "type": "address"
        },
        {
          "indexed": false,
          "name": "_amount",
          "type": "uint256"
        }
      ],
      "name": "Transfer",
      "type": "event"
    },
    {
      "anonymous": false,
      "inputs": [
        {
          "indexed": true,
          "name": "_cloneToken",
          "type": "address"
        },
        {
          "indexed": false,
          "name": "_snapshotBlock",
          "type": "uint256"
        }
      ],
      "name": "NewCloneToken",
      "type": "event"
    },
    {
      "anonymous": false,
      "inputs": [
        {
          "indexed": true,
          "name": "_owner",
          "type": "address"
        },
        {
          "indexed": true,
          "name": "_spender",
          "type": "address"
        },
        {
          "indexed": false,
          "name": "_amount",
          "type": "uint256"
        }
      ],
      "name": "Approval",
      "type": "event"
    }
  ],
  "bytecode": "0x60c0604052600760808190527f4d4d545f302e320000000000000000000000000000000000000000000000000060a090815262000040916004919062000184565b503480156200004e57600080fd5b5060405160208062001bca83398101604081815291518282018352600d82527f53616d706c6520537472696e670000000000000000000000000000000000000060208084019182528451808601909552600285527f53530000000000000000000000000000000000000000000000000000000000009085015260008054600160a060020a03191633178155600b8054600160a060020a0385166101000261010060a860020a031990911617905583519294859491938493601292916001916200011a9183919062000184565b506002805460ff191660ff851617905581516200013f90600390602085019062000184565b5060058054600160a060020a031916600160a060020a039790971696909617909555505050600655600b805460ff191691151591909117905550504360075562000229565b828054600181600116156101000203166002900490600052602060002090601f016020900481019282601f10620001c757805160ff1916838001178555620001f7565b82800160010185558215620001f7579182015b82811115620001f7578251825591602001919060010190620001da565b506200020592915062000209565b5090565b6200022691905b8082111562000205576000815560010162000210565b90565b61199180620002396000396000f30060806040526004361061013a5763ffffffff60e060020a60003504166306fdde0381146101fa578063095ea7b31461028457806317634514146102bc57806318160ddd146102e357806323b872dd146102f8578063313ce567146103225780633cebb8231461034d57806342966c681461036e5780634ee2cd7e1461038657806354fd4d50146103aa5780636638c087146103bf57806370a082311461048257806380a54001146104a3578063827f32c0146104b857806395d89b41146104dc578063981b24d0146104f1578063a9059cbb14610509578063bef97c871461052d578063c5bcc4f114610542578063cae9ca5114610557578063d3ce77fe146105c0578063dd62ed3e146105e4578063df8de3e71461060b578063e77772fe1461062c578063f41e60c514610641578063f77c47911461065b575b60005461014f90600160a060020a0316610670565b151561015a57600080fd5b600054604080517ff48c30540000000000000000000000000000000000000000000000000000000081523360048201529051600160a060020a039092169163f48c3054913491602480830192602092919082900301818588803b1580156101c057600080fd5b505af11580156101d4573d6000803e3d6000fd5b50505050506040513d60208110156101eb57600080fd5b505115156101f857600080fd5b005b34801561020657600080fd5b5061020f61069d565b6040805160208082528351818301528351919283929083019185019080838360005b83811015610249578181015183820152602001610231565b50505050905090810190601f1680156102765780820380516001836020036101000a031916815260200191505b509250505060405180910390f35b34801561029057600080fd5b506102a8600160a060020a036004351660243561072a565b604080519115158252519081900360200190f35b3480156102c857600080fd5b506102d16108a8565b60408051918252519081900360200190f35b3480156102ef57600080fd5b506102d16108ae565b34801561030457600080fd5b506102a8600160a060020a03600435811690602435166044356108bf565b34801561032e57600080fd5b50610337610956565b6040805160ff9092168252519081900360200190f35b34801561035957600080fd5b506101f8600160a060020a036004351661095f565b34801561037a57600080fd5b506102a86004356109a5565b34801561039257600080fd5b506102d1600160a060020a0360043516602435610a31565b3480156103b657600080fd5b5061020f610b7e565b3480156103cb57600080fd5b506040805160206004803580820135601f810184900484028501840190955284845261046694369492936024939284019190819084018382808284375050604080516020601f818a01358b0180359182018390048302840183018552818452989b60ff8b35169b909a909994019750919550918201935091508190840183828082843750949750508435955050505050602001351515610bd9565b60408051600160a060020a039092168252519081900360200190f35b34801561048e57600080fd5b506102d1600160a060020a0360043516610e33565b3480156104af57600080fd5b50610466610e47565b3480156104c457600080fd5b506102a8600160a060020a0360043516602435610e56565b3480156104e857600080fd5b5061020f610f10565b3480156104fd57600080fd5b506102d1600435610f6b565b34801561051557600080fd5b506102a8600160a060020a036004351660243561105f565b34801561053957600080fd5b506102a861107e565b34801561054e57600080fd5b506102d1611087565b34801561056357600080fd5b50604080516020600460443581810135601f81018490048402850184019095528484526102a8948235600160a060020a031694602480359536959460649492019190819084018382808284375094975061108d9650505050505050565b3480156105cc57600080fd5b506102a8600160a060020a03600435166024356111a8565b3480156105f057600080fd5b506102d1600160a060020a036004358116906024351661125e565b34801561061757600080fd5b506101f8600160a060020a0360043516611289565b34801561063857600080fd5b50610466611470565b34801561064d57600080fd5b506101f86004351515611484565b34801561066757600080fd5b506104666114ae565b600080600160a060020a038316151561068c5760009150610697565b823b90506000811191505b50919050565b60018054604080516020600284861615610100026000190190941693909304601f810184900484028201840190925281815292918301828280156107225780601f106106f757610100808354040283529160200191610722565b820191906000526020600020905b81548152906001019060200180831161070557829003601f168201915b505050505081565b600b5460009060ff16151561073e57600080fd5b81158061076c5750336000908152600960209081526040808320600160a060020a0387168452909152902054155b151561077757600080fd5b60005461078c90600160a060020a0316610670565b156108405760008054604080517fda682aeb000000000000000000000000000000000000000000000000000000008152336004820152600160a060020a038781166024830152604482018790529151919092169263da682aeb92606480820193602093909283900390910190829087803b15801561080957600080fd5b505af115801561081d573d6000803e3d6000fd5b505050506040513d602081101561083357600080fd5b5051151561084057600080fd5b336000818152600960209081526040808320600160a060020a03881680855290835292819020869055805186815290519293927f8c5be1e5ebec7d5bd14f71427d1e84f3dd0314c0f7b2291e5b200ac8c7c3b925929181900390910190a35060015b92915050565b60075481565b60006108b943610f6b565b90505b90565b60008054600160a060020a0316331461094157600b5460ff1615156108e357600080fd5b600160a060020a03841660009081526009602090815260408083203384529091529020548211156109165750600061094f565b600160a060020a03841660009081526009602090815260408083203384529091529020805483900390555b61094c8484846114bd565b90505b9392505050565b60025460ff1681565b600054600160a060020a0316331461097657600080fd5b6000805473ffffffffffffffffffffffffffffffffffffffff1916600160a060020a0392909216919091179055565b60008060006109b26108ae565b9150838210156109c157600080fd5b6109ca33610e33565b9050838110156109d957600080fd5b6109e6600a85840361169d565b336000908152600860205260409020610a019085830361169d565b60408051858152905160009133916000805160206119468339815191529181900360200190a35060019392505050565b600160a060020a0382166000908152600860205260408120541580610a8d5750600160a060020a038316600090815260086020526040812080548492908110610a7657fe5b6000918252602090912001546001608060020a0316115b15610b5557600554600160a060020a031615610b4d57600554600654600160a060020a0390911690634ee2cd7e908590610ac8908690611793565b6040518363ffffffff1660e060020a0281526004018083600160a060020a0316600160a060020a0316815260200182815260200192505050602060405180830381600087803b158015610b1a57600080fd5b505af1158015610b2e573d6000803e3d6000fd5b505050506040513d6020811015610b4457600080fd5b505190506108a2565b5060006108a2565b600160a060020a0383166000908152600860205260409020610b7790836117a9565b90506108a2565b6004805460408051602060026001851615610100026000190190941693909304601f810184900484028201840190925281815292918301828280156107225780601f106106f757610100808354040283529160200191610722565b600080831515610be7574393505b600b546040517f5b7b72c100000000000000000000000000000000000000000000000000000000815230600482018181526024830188905260ff8a16606484015286151560a484015260c0604484019081528b5160c48501528b51610100909504600160a060020a031694635b7b72c1948a938e938e938e938d939291608482019160e40190602089019080838360005b83811015610c90578181015183820152602001610c78565b50505050905090810190601f168015610cbd5780820380516001836020036101000a031916815260200191505b50838103825285518152855160209182019187019080838360005b83811015610cf0578181015183820152602001610cd8565b50505050905090810190601f168015610d1d5780820380516001836020036101000a031916815260200191505b5098505050505050505050602060405180830381600087803b158015610d4257600080fd5b505af1158015610d56573d6000803e3d6000fd5b505050506040513d6020811015610d6c57600080fd5b5051604080517f3cebb8230000000000000000000000000000000000000000000000000000000081523360048201529051919250600160a060020a03831691633cebb8239160248082019260009290919082900301818387803b158015610dd257600080fd5b505af1158015610de6573d6000803e3d6000fd5b5050604080518781529051600160a060020a03851693507f086c875b377f900b07ce03575813022f05dd10ed7640b5282cf6d3c3fc352ade92509081900360200190a29695505050505050565b6000610e3f8243610a31565b90505b919050565b600554600160a060020a031681565b6000805481908190600160a060020a03163314610e7257600080fd5b610e7a6108ae565b9150838201821115610e8b57600080fd5b610e9485610e33565b9050838101811115610ea557600080fd5b610eb2600a85840161169d565b600160a060020a0385166000908152600860205260409020610ed69082860161169d565b604080518581529051600160a060020a038716916000916000805160206119468339815191529181900360200190a3506001949350505050565b6003805460408051602060026001851615610100026000190190941693909304601f810184900484028201840190925281815292918301828280156107225780601f106106f757610100808354040283529160200191610722565b600a546000901580610fa0575081600a6000815481101515610f8957fe5b6000918252602090912001546001608060020a0316115b1561104d57600554600160a060020a03161561104557600554600654600160a060020a039091169063981b24d090610fd9908590611793565b6040518263ffffffff1660e060020a02815260040180828152602001915050602060405180830381600087803b15801561101257600080fd5b505af1158015611026573d6000803e3d6000fd5b505050506040513d602081101561103c57600080fd5b50519050610e42565b506000610e42565b611058600a836117a9565b9050610e42565b600b5460009060ff16151561107357600080fd5b61094f3384846114bd565b600b5460ff1681565b60065481565b6000611099848461072a565b15156110a457600080fd5b6040517f8f4ffcb10000000000000000000000000000000000000000000000000000000081523360048201818152602483018690523060448401819052608060648501908152865160848601528651600160a060020a038a1695638f4ffcb195948a94938a939192909160a490910190602085019080838360005b8381101561113757818101518382015260200161111f565b50505050905090810190601f1680156111645780820380516001836020036101000a031916815260200191505b5095505050505050600060405180830381600087803b15801561118657600080fd5b505af115801561119a573d6000803e3d6000fd5b506001979650505050505050565b6000805481908190600160a060020a031633146111c457600080fd5b6111cc6108ae565b9150838210156111db57600080fd5b6111e485610e33565b9050838110156111f357600080fd5b611200600a85840361169d565b600160a060020a03851660009081526008602052604090206112249085830361169d565b604080518581529051600091600160a060020a038816916000805160206119468339815191529181900360200190a3506001949350505050565b600160a060020a03918216600090815260096020908152604080832093909416825291909152205490565b600080548190600160a060020a031633146112a357600080fd5b600160a060020a03831615156112f45760008054604051600160a060020a0390911691303180156108fc02929091818181858888f193505050501580156112ee573d6000803e3d6000fd5b5061146b565b604080517f70a082310000000000000000000000000000000000000000000000000000000081523060048201529051849350600160a060020a038416916370a082319160248083019260209291908290030181600087803b15801561135857600080fd5b505af115801561136c573d6000803e3d6000fd5b505050506040513d602081101561138257600080fd5b505160008054604080517fa9059cbb000000000000000000000000000000000000000000000000000000008152600160a060020a0392831660048201526024810185905290519394509085169263a9059cbb92604480840193602093929083900390910190829087803b1580156113f857600080fd5b505af115801561140c573d6000803e3d6000fd5b505050506040513d602081101561142257600080fd5b5050600054604080518381529051600160a060020a03928316928616917ff931edb47c50b4b4104c187b5814a9aef5f709e17e2ecf9617e860cacade929c919081900360200190a35b505050565b600b546101009004600160a060020a031681565b600054600160a060020a0316331461149b57600080fd5b600b805460ff1916911515919091179055565b600054600160a060020a031681565b600080808315156114d15760019250611694565b60065443116114df57600080fd5b600160a060020a038516158015906115005750600160a060020a0385163014155b151561150b57600080fd5b6115158643610a31565b9150838210156115285760009250611694565b60005461153d90600160a060020a0316610670565b156115f35760008054604080517f4a393149000000000000000000000000000000000000000000000000000000008152600160a060020a038a8116600483015289811660248301526044820189905291519190921692634a39314992606480820193602093909283900390910190829087803b1580156115bc57600080fd5b505af11580156115d0573d6000803e3d6000fd5b505050506040513d60208110156115e657600080fd5b505115156115f357600080fd5b600160a060020a03861660009081526008602052604090206116179085840361169d565b6116218543610a31565b905083810181111561163257600080fd5b600160a060020a03851660009081526008602052604090206116569082860161169d565b84600160a060020a031686600160a060020a0316600080516020611946833981519152866040518082815260200191505060405180910390a3600192505b50509392505050565b8154600090819015806116d6575083544390859060001981019081106116bf57fe5b6000918252602090912001546001608060020a0316105b1561174857835484906116ec8260018301611908565b815481106116f657fe5b600091825260209091200180546001608060020a03858116700100000000000000000000000000000000024382166fffffffffffffffffffffffffffffffff199093169290921716178155915061178d565b83548490600019810190811061175a57fe5b600091825260209091200180546001608060020a0380861670010000000000000000000000000000000002911617815590505b50505050565b60008183106117a2578161094f565b5090919050565b6000806000808580549050600014156117c557600093506118ff565b8554869060001981019081106117d757fe5b6000918252602090912001546001608060020a031685106118345785548690600019810190811061180457fe5b60009182526020909120015470010000000000000000000000000000000090046001608060020a031693506118ff565b85600081548110151561184357fe5b6000918252602090912001546001608060020a031685101561186857600093506118ff565b8554600093506000190191505b828211156118c557600260018385010104905084868281548110151561189757fe5b6000918252602090912001546001608060020a0316116118b9578092506118c0565b6001810391505b611875565b85838154811015156118d357fe5b60009182526020909120015470010000000000000000000000000000000090046001608060020a031693505b50505092915050565b81548183558181111561146b5760008381526020902061146b9181019083016108bc91905b80821115611941576000815560010161192d565b50905600ddf252ad1be2c89b69c2b068fc378daa952ba7f163c4a11628f55a4df523b3efa165627a7a7230582054dedc6b65cb1833505b6e4239449c52359e56a4625e2f816b41dca8732db9a40029",
  "source": "pragma solidity^0.4.18;\n\nimport \"minimetoken/contracts/MiniMeToken.sol\";\nimport \"../token/BurnableMiniMeToken.sol\";\n\ncontract SampleProjectToken is MiniMeToken, BurnableMiniMeToken {\n  function SampleProjectToken(address _tokenFactory)\n    MiniMeToken(\n      _tokenFactory,\n      0x0,               // no parent token\n      0,                 // no snapshot block number from parent\n      \"Sample String\",   // Token name\n      18,                // Decimals\n      \"SS\",              // Symbol\n      true)              // Enable transfers\n    public\n  {}\n}\n",
  "sourcePath": "/Users/pjh/workspace/rbg-crowdsale/project/contracts/base/mock/SampleProjectToken.sol",
  "compiler": {
    "name": "solc",
    "version": "0.4.24+commit.e67f0147.Emscripten.clang"
  },
  "schemaVersion": "2.0.0",
  "updatedAt": "2018-06-07T12:04:18.298Z"
}