{
  "contractName": "SampleProjectCrowdsale",
  "abi": [
    {
      "constant": false,
      "inputs": [
        {
          "name": "amounts",
          "type": "uint128[]"
        },
        {
          "name": "values",
          "type": "uint32[]"
        }
      ],
      "name": "setBonusesForAmounts",
      "outputs": [],
      "payable": false,
      "stateMutability": "nonpayable",
      "type": "function"
    },
    {
      "constant": true,
      "inputs": [
        {
          "name": "",
          "type": "address"
        }
      ],
      "name": "purchaseFunded",
      "outputs": [
        {
          "name": "",
          "type": "uint256"
        }
      ],
      "payable": false,
      "stateMutability": "view",
      "type": "function"
    },
    {
      "constant": true,
      "inputs": [],
      "name": "initialized",
      "outputs": [
        {
          "name": "",
          "type": "bool"
        }
      ],
      "payable": false,
      "stateMutability": "view",
      "type": "function"
    },
    {
      "constant": true,
      "inputs": [],
      "name": "purchaseLimit",
      "outputs": [
        {
          "name": "",
          "type": "uint256"
        }
      ],
      "payable": false,
      "stateMutability": "view",
      "type": "function"
    },
    {
      "constant": true,
      "inputs": [
        {
          "name": "",
          "type": "uint256"
        }
      ],
      "name": "BONUS_AMOUNTS",
      "outputs": [
        {
          "name": "",
          "type": "uint128"
        }
      ],
      "payable": false,
      "stateMutability": "view",
      "type": "function"
    },
    {
      "constant": false,
      "inputs": [
        {
          "name": "times",
          "type": "uint32[]"
        },
        {
          "name": "values",
          "type": "uint32[]"
        }
      ],
      "name": "setBonusesForTimes",
      "outputs": [],
      "payable": false,
      "stateMutability": "nonpayable",
      "type": "function"
    },
    {
      "constant": true,
      "inputs": [
        {
          "name": "",
          "type": "uint256"
        }
      ],
      "name": "BONUS_AMOUNTS_VALUES",
      "outputs": [
        {
          "name": "",
          "type": "uint32"
        }
      ],
      "payable": false,
      "stateMutability": "view",
      "type": "function"
    },
    {
      "constant": true,
      "inputs": [],
      "name": "bonusesForTimesCount",
      "outputs": [
        {
          "name": "",
          "type": "uint256"
        }
      ],
      "payable": false,
      "stateMutability": "view",
      "type": "function"
    },
    {
      "constant": true,
      "inputs": [],
      "name": "MAX_HOLDERS",
      "outputs": [
        {
          "name": "",
          "type": "uint8"
        }
      ],
      "payable": false,
      "stateMutability": "view",
      "type": "function"
    },
    {
      "constant": true,
      "inputs": [
        {
          "name": "",
          "type": "uint256"
        }
      ],
      "name": "holders",
      "outputs": [
        {
          "name": "addr",
          "type": "address"
        },
        {
          "name": "ratio",
          "type": "uint96"
        }
      ],
      "payable": false,
      "stateMutability": "view",
      "type": "function"
    },
    {
      "constant": true,
      "inputs": [],
      "name": "rate",
      "outputs": [
        {
          "name": "",
          "type": "uint256"
        }
      ],
      "payable": false,
      "stateMutability": "view",
      "type": "function"
    },
    {
      "constant": true,
      "inputs": [],
      "name": "minPayment",
      "outputs": [
        {
          "name": "",
          "type": "uint256"
        }
      ],
      "payable": false,
      "stateMutability": "view",
      "type": "function"
    },
    {
      "constant": true,
      "inputs": [],
      "name": "endTime",
      "outputs": [
        {
          "name": "",
          "type": "uint256"
        }
      ],
      "payable": false,
      "stateMutability": "view",
      "type": "function"
    },
    {
      "constant": true,
      "inputs": [],
      "name": "cap",
      "outputs": [
        {
          "name": "",
          "type": "uint256"
        }
      ],
      "payable": false,
      "stateMutability": "view",
      "type": "function"
    },
    {
      "constant": true,
      "inputs": [],
      "name": "saleFinished",
      "outputs": [
        {
          "name": "",
          "type": "bool"
        }
      ],
      "payable": false,
      "stateMutability": "view",
      "type": "function"
    },
    {
      "constant": false,
      "inputs": [],
      "name": "unpause",
      "outputs": [],
      "payable": false,
      "stateMutability": "nonpayable",
      "type": "function"
    },
    {
      "constant": true,
      "inputs": [],
      "name": "goal",
      "outputs": [
        {
          "name": "",
          "type": "uint256"
        }
      ],
      "payable": false,
      "stateMutability": "view",
      "type": "function"
    },
    {
      "constant": true,
      "inputs": [],
      "name": "weiRaised",
      "outputs": [
        {
          "name": "",
          "type": "uint256"
        }
      ],
      "payable": false,
      "stateMutability": "view",
      "type": "function"
    },
    {
      "constant": false,
      "inputs": [],
      "name": "finalize",
      "outputs": [],
      "payable": false,
      "stateMutability": "nonpayable",
      "type": "function"
    },
    {
      "constant": true,
      "inputs": [],
      "name": "bonusesForAmountsCount",
      "outputs": [
        {
          "name": "",
          "type": "uint256"
        }
      ],
      "payable": false,
      "stateMutability": "view",
      "type": "function"
    },
    {
      "constant": true,
      "inputs": [
        {
          "name": "",
          "type": "uint256"
        }
      ],
      "name": "BONUS_TIMES",
      "outputs": [
        {
          "name": "",
          "type": "uint32"
        }
      ],
      "payable": false,
      "stateMutability": "view",
      "type": "function"
    },
    {
      "constant": true,
      "inputs": [
        {
          "name": "weiAmount",
          "type": "uint256"
        }
      ],
      "name": "computeBonus",
      "outputs": [
        {
          "name": "",
          "type": "uint256"
        }
      ],
      "payable": false,
      "stateMutability": "view",
      "type": "function"
    },
    {
      "constant": true,
      "inputs": [],
      "name": "nextTokenOwner",
      "outputs": [
        {
          "name": "",
          "type": "address"
        }
      ],
      "payable": false,
      "stateMutability": "view",
      "type": "function"
    },
    {
      "constant": true,
      "inputs": [],
      "name": "paused",
      "outputs": [
        {
          "name": "",
          "type": "bool"
        }
      ],
      "payable": false,
      "stateMutability": "view",
      "type": "function"
    },
    {
      "constant": true,
      "inputs": [
        {
          "name": "",
          "type": "address"
        }
      ],
      "name": "recentBlock",
      "outputs": [
        {
          "name": "",
          "type": "uint256"
        }
      ],
      "payable": false,
      "stateMutability": "view",
      "type": "function"
    },
    {
      "constant": true,
      "inputs": [],
      "name": "getHolderCount",
      "outputs": [
        {
          "name": "",
          "type": "uint256"
        }
      ],
      "payable": false,
      "stateMutability": "view",
      "type": "function"
    },
    {
      "constant": true,
      "inputs": [],
      "name": "computeTimeBonus",
      "outputs": [
        {
          "name": "",
          "type": "uint256"
        }
      ],
      "payable": false,
      "stateMutability": "view",
      "type": "function"
    },
    {
      "constant": true,
      "inputs": [],
      "name": "startTime",
      "outputs": [
        {
          "name": "",
          "type": "uint256"
        }
      ],
      "payable": false,
      "stateMutability": "view",
      "type": "function"
    },
    {
      "constant": true,
      "inputs": [],
      "name": "goalReached",
      "outputs": [
        {
          "name": "",
          "type": "bool"
        }
      ],
      "payable": false,
      "stateMutability": "view",
      "type": "function"
    },
    {
      "constant": true,
      "inputs": [
        {
          "name": "weiAmount",
          "type": "uint256"
        }
      ],
      "name": "computeAmountBonus",
      "outputs": [
        {
          "name": "",
          "type": "uint256"
        }
      ],
      "payable": false,
      "stateMutability": "view",
      "type": "function"
    },
    {
      "constant": false,
      "inputs": [],
      "name": "pause",
      "outputs": [],
      "payable": false,
      "stateMutability": "nonpayable",
      "type": "function"
    },
    {
      "constant": true,
      "inputs": [
        {
          "name": "",
          "type": "uint256"
        }
      ],
      "name": "stages",
      "outputs": [
        {
          "name": "cap",
          "type": "uint128"
        },
        {
          "name": "maxPurchaseLimit",
          "type": "uint128"
        },
        {
          "name": "minPurchaseLimit",
          "type": "uint128"
        },
        {
          "name": "weiRaised",
          "type": "uint128"
        },
        {
          "name": "startTime",
          "type": "uint32"
        },
        {
          "name": "endTime",
          "type": "uint32"
        },
        {
          "name": "kyc",
          "type": "bool"
        }
      ],
      "payable": false,
      "stateMutability": "view",
      "type": "function"
    },
    {
      "constant": false,
      "inputs": [
        {
          "name": "_startTimes",
          "type": "uint32[]"
        },
        {
          "name": "_endTimes",
          "type": "uint32[]"
        },
        {
          "name": "_capRatios",
          "type": "uint128[]"
        },
        {
          "name": "_maxPurchaseLimits",
          "type": "uint128[]"
        },
        {
          "name": "_minPurchaseLimits",
          "type": "uint128[]"
        },
        {
          "name": "_kycs",
          "type": "bool[]"
        }
      ],
      "name": "initStages",
      "outputs": [],
      "payable": false,
      "stateMutability": "nonpayable",
      "type": "function"
    },
    {
      "constant": true,
      "inputs": [],
      "name": "coeff",
      "outputs": [
        {
          "name": "",
          "type": "uint256"
        }
      ],
      "payable": false,
      "stateMutability": "view",
      "type": "function"
    },
    {
      "constant": true,
      "inputs": [],
      "name": "isFinalized",
      "outputs": [
        {
          "name": "",
          "type": "bool"
        }
      ],
      "payable": false,
      "stateMutability": "view",
      "type": "function"
    },
    {
      "constant": true,
      "inputs": [],
      "name": "owner",
      "outputs": [
        {
          "name": "",
          "type": "address"
        }
      ],
      "payable": false,
      "stateMutability": "view",
      "type": "function"
    },
    {
      "constant": true,
      "inputs": [],
      "name": "getStageIndex",
      "outputs": [
        {
          "name": "currentStage",
          "type": "uint8"
        },
        {
          "name": "onSale",
          "type": "bool"
        }
      ],
      "payable": false,
      "stateMutability": "view",
      "type": "function"
    },
    {
      "constant": true,
      "inputs": [],
      "name": "crowdsaleRatio",
      "outputs": [
        {
          "name": "",
          "type": "uint256"
        }
      ],
      "payable": false,
      "stateMutability": "view",
      "type": "function"
    },
    {
      "constant": true,
      "inputs": [
        {
          "name": "_addr",
          "type": "address"
        }
      ],
      "name": "registered",
      "outputs": [
        {
          "name": "",
          "type": "bool"
        }
      ],
      "payable": false,
      "stateMutability": "view",
      "type": "function"
    },
    {
      "constant": false,
      "inputs": [],
      "name": "claimRefund",
      "outputs": [],
      "payable": false,
      "stateMutability": "nonpayable",
      "type": "function"
    },
    {
      "constant": true,
      "inputs": [],
      "name": "blockInterval",
      "outputs": [
        {
          "name": "",
          "type": "uint256"
        }
      ],
      "payable": false,
      "stateMutability": "view",
      "type": "function"
    },
    {
      "constant": true,
      "inputs": [],
      "name": "locker",
      "outputs": [
        {
          "name": "",
          "type": "address"
        }
      ],
      "payable": false,
      "stateMutability": "view",
      "type": "function"
    },
    {
      "constant": true,
      "inputs": [],
      "name": "numPeriods",
      "outputs": [
        {
          "name": "",
          "type": "uint8"
        }
      ],
      "payable": false,
      "stateMutability": "view",
      "type": "function"
    },
    {
      "constant": false,
      "inputs": [
        {
          "name": "_token",
          "type": "address"
        }
      ],
      "name": "claimTokens",
      "outputs": [],
      "payable": false,
      "stateMutability": "nonpayable",
      "type": "function"
    },
    {
      "constant": true,
      "inputs": [
        {
          "name": "",
          "type": "uint256"
        }
      ],
      "name": "BONUS_TIMES_VALUES",
      "outputs": [
        {
          "name": "",
          "type": "uint32"
        }
      ],
      "payable": false,
      "stateMutability": "view",
      "type": "function"
    },
    {
      "constant": false,
      "inputs": [
        {
          "name": "_addrs",
          "type": "address[]"
        },
        {
          "name": "_ratios",
          "type": "uint96[]"
        }
      ],
      "name": "initHolders",
      "outputs": [],
      "payable": false,
      "stateMutability": "nonpayable",
      "type": "function"
    },
    {
      "constant": false,
      "inputs": [
        {
          "name": "beneficiary",
          "type": "address"
        }
      ],
      "name": "buyTokens",
      "outputs": [],
      "payable": true,
      "stateMutability": "payable",
      "type": "function"
    },
    {
      "constant": true,
      "inputs": [],
      "name": "hasEnded",
      "outputs": [
        {
          "name": "",
          "type": "bool"
        }
      ],
      "payable": false,
      "stateMutability": "view",
      "type": "function"
    },
    {
      "constant": false,
      "inputs": [
        {
          "name": "newOwner",
          "type": "address"
        }
      ],
      "name": "transferOwnership",
      "outputs": [],
      "payable": false,
      "stateMutability": "nonpayable",
      "type": "function"
    },
    {
      "constant": true,
      "inputs": [],
      "name": "distributed",
      "outputs": [
        {
          "name": "",
          "type": "bool"
        }
      ],
      "payable": false,
      "stateMutability": "view",
      "type": "function"
    },
    {
      "constant": true,
      "inputs": [],
      "name": "vault",
      "outputs": [
        {
          "name": "",
          "type": "address"
        }
      ],
      "payable": false,
      "stateMutability": "view",
      "type": "function"
    },
    {
      "inputs": [
        {
          "name": "args",
          "type": "bytes32[7]"
        }
      ],
      "payable": false,
      "stateMutability": "nonpayable",
      "type": "constructor"
    },
    {
      "payable": true,
      "stateMutability": "payable",
      "type": "fallback"
    },
    {
      "anonymous": false,
      "inputs": [
        {
          "indexed": true,
          "name": "purchaser",
          "type": "address"
        },
        {
          "indexed": true,
          "name": "beneficiary",
          "type": "address"
        },
        {
          "indexed": false,
          "name": "value",
          "type": "uint256"
        },
        {
          "indexed": false,
          "name": "amount",
          "type": "uint256"
        }
      ],
      "name": "TokenPurchase",
      "type": "event"
    },
    {
      "anonymous": false,
      "inputs": [],
      "name": "Finalized",
      "type": "event"
    },
    {
      "anonymous": false,
      "inputs": [
        {
          "indexed": true,
          "name": "_token",
          "type": "address"
        },
        {
          "indexed": false,
          "name": "_amount",
          "type": "uint256"
        }
      ],
      "name": "ClaimTokens",
      "type": "event"
    },
    {
      "anonymous": false,
      "inputs": [],
      "name": "Pause",
      "type": "event"
    },
    {
      "anonymous": false,
      "inputs": [],
      "name": "Unpause",
      "type": "event"
    },
    {
      "anonymous": false,
      "inputs": [],
      "name": "Distributed",
      "type": "event"
    },
    {
      "anonymous": false,
      "inputs": [
        {
          "indexed": true,
          "name": "previousOwner",
          "type": "address"
        },
        {
          "indexed": true,
          "name": "newOwner",
          "type": "address"
        }
      ],
      "name": "OwnershipTransferred",
      "type": "event"
    },
    {
      "constant": false,
      "inputs": [
        {
          "name": "args",
          "type": "bytes32[]"
        }
      ],
      "name": "init",
      "outputs": [],
      "payable": false,
      "stateMutability": "nonpayable",
      "type": "function"
    }
  ],
  "bytecode": "0x60806040526004805460ff19908116909155600a805490911690553480156200002757600080fd5b5060405160e08062002d0083398101604052620000558160065b6020020151640100000000620001b7810204565b620000718260055b6020020151640100000000620001ba810204565b6200007e83600462000041565b6200008b84600362000041565b6200009885600262000041565b620000a58660016200005d565b620000b287600062000041565b60008054600160a060020a0319163317905580801515620000d257600080fd5b60015550600160a060020a0381161515620000ec57600080fd5b600f8054600160a060020a031916600160a060020a03929092169190911790558015156200011957600080fd5b6015558015156200012957600080fd5b6016558015156200013957600080fd5b601755600160a060020a03811615156200015257600080fd5b60198054600160a060020a031916600160a060020a03929092169190911760a060020a60ff0219167401000000000000000000000000000000000000000060ff84811682029290921792839055600092041611620001af57600080fd5b5050620001c6565b90565b600160a060020a031690565b612b2a80620001d66000396000f3006080604052600436106102585763ffffffff60e060020a6000350416630a06f35e811461026357806314fb8ee1146102f1578063158ef93e14610324578063188866571461034d57806319a1f592146103625780631d1eda5e146103965780631df0187b146104245780631e05e0c81461045557806322e127201461046a5780632a11ced0146104955780632c4e722e146104dd5780632e276499146104f25780633197cbb6146105075780633368e9681461051c578063355274ea14610571578063365b94ad146105865780633f4ba83a1461059b57806340193883146105b05780634042b66f146105c55780634bb278f3146105da57806353da0c7e146105ef5780635750abfa146106045780635ac5f82c1461061c5780635b833f1e146106345780635c975abb146106655780636f65f2361461067a5780637136982b1461069b57806377c8d5a0146106b057806378e97925146106c55780637d3d6522146106da578063816273f6146106ef5780638456cb5914610707578063845ddcb21461071c578063845f55931461078757806387b261ad146108f95780638d4e40831461090e5780638da5cb5b1461092357806398dc8b4414610938578063a309f5891461096a578063b2dd5c071461097f578063b5545a3c146109a0578063c4c22e98146109b5578063d7b96d4e146109ca578063dcd65479146109df578063df8de3e7146109f4578063e0f74cde14610a15578063ec5dfaa214610a2d578063ec8ac4d814610abb578063ecb70fb714610acf578063f2fde38b14610ae4578063f84b903e14610b05578063fbfa77cf14610b1a575b61026133610b2f565b005b34801561026f57600080fd5b506040805160206004803580820135838102808601850190965280855261026195369593946024949385019291829185019084908082843750506040805187358901803560208181028481018201909552818452989b9a998901989297509082019550935083925085019084908082843750949750610c6f9650505050505050565b3480156102fd57600080fd5b50610312600160a060020a0360043516610d29565b60408051918252519081900360200190f35b34801561033057600080fd5b50610339610d3b565b604080519115158252519081900360200190f35b34801561035957600080fd5b50610312610d44565b34801561036e57600080fd5b5061037a600435610d4a565b604080516001608060020a039092168252519081900360200190f35b3480156103a257600080fd5b506040805160206004803580820135838102808601850190965280855261026195369593946024949385019291829185019084908082843750506040805187358901803560208181028481018201909552818452989b9a998901989297509082019550935083925085019084908082843750949750610d859650505050505050565b34801561043057600080fd5b5061043c600435610e33565b6040805163ffffffff9092168252519081900360200190f35b34801561046157600080fd5b50610312610e6b565b34801561047657600080fd5b5061047f610e72565b6040805160ff9092168252519081900360200190f35b3480156104a157600080fd5b506104ad600435610e77565b60408051600160a060020a0390931683526bffffffffffffffffffffffff90911660208301528051918290030190f35b3480156104e957600080fd5b50610312610eb5565b3480156104fe57600080fd5b50610312610ebb565b34801561051357600080fd5b50610312610ec1565b34801561052857600080fd5b506040805160206004803580820135838102808601850190965280855261026195369593946024949385019291829185019084908082843750949750610ec79650505050505050565b34801561057d57600080fd5b506103126110d6565b34801561059257600080fd5b506103396110dc565b3480156105a757600080fd5b50610261611136565b3480156105bc57600080fd5b50610312611193565b3480156105d157600080fd5b50610312611199565b3480156105e657600080fd5b5061026161119f565b3480156105fb57600080fd5b50610312611219565b34801561061057600080fd5b5061043c60043561121f565b34801561062857600080fd5b5061031260043561122d565b34801561064057600080fd5b50610649611255565b60408051600160a060020a039092168252519081900360200190f35b34801561067157600080fd5b50610339611264565b34801561068657600080fd5b50610312600160a060020a036004351661126d565b3480156106a757600080fd5b5061031261127f565b3480156106bc57600080fd5b50610312611285565b3480156106d157600080fd5b50610312611329565b3480156106e657600080fd5b5061033961132f565b3480156106fb57600080fd5b5061031260043561133a565b34801561071357600080fd5b506102616113cf565b34801561072857600080fd5b5061073460043561142e565b604080516001608060020a03988916815296881660208801529487168686015292909516606085015263ffffffff90811660808501529390931660a083015291151560c082015290519081900360e00190f35b34801561079357600080fd5b506040805160206004803580820135838102808601850190965280855261026195369593946024949385019291829185019084908082843750506040805187358901803560208181028481018201909552818452989b9a998901989297509082019550935083925085019084908082843750506040805187358901803560208181028481018201909552818452989b9a998901989297509082019550935083925085019084908082843750506040805187358901803560208181028481018201909552818452989b9a998901989297509082019550935083925085019084908082843750506040805187358901803560208181028481018201909552818452989b9a998901989297509082019550935083925085019084908082843750506040805187358901803560208181028481018201909552818452989b9a9989019892975090820195509350839250850190849080828437509497506114a19650505050505050565b34801561090557600080fd5b506103126117b8565b34801561091a57600080fd5b506103396117be565b34801561092f57600080fd5b506106496117c7565b34801561094457600080fd5b5061094d6117d6565b6040805160ff909316835290151560208301528051918290030190f35b34801561097657600080fd5b506103126118d8565b34801561098b57600080fd5b50610339600160a060020a03600435166118de565b3480156109ac57600080fd5b5061026161197b565b3480156109c157600080fd5b50610312611a17565b3480156109d657600080fd5b50610649611a1d565b3480156109eb57600080fd5b5061047f611a31565b348015610a0057600080fd5b50610261600160a060020a0360043516611a41565b348015610a2157600080fd5b5061043c600435611bda565b348015610a3957600080fd5b506040805160206004803580820135838102808601850190965280855261026195369593946024949385019291829185019084908082843750506040805187358901803560208181028481018201909552818452989b9a998901989297509082019550935083925085019084908082843750949750611be89650505050505050565b610261600160a060020a0360043516610b2f565b348015610adb57600080fd5b50610339611daa565b348015610af057600080fd5b50610261600160a060020a0360043516611dc8565b348015610b1157600080fd5b50610339611e5c565b348015610b2657600080fd5b50610649611e65565b60045460009081908190819060ff1615610b4857600080fd5b600160a060020a0385161515610b5d57600080fd5b610b65611e74565b1515610b7057600080fd5b349350610b7d8585611eb0565b925060008311610b8c57600080fd5b610b9c848463ffffffff61207616565b9150610ba88584612088565b610bb183612113565b600854909150610bc7908463ffffffff61216716565b6008556000821115610c0257604051339083156108fc029084906000818181858888f19350505050158015610c00573d6000803e3d6000fd5b505b610c0d858285612174565b610c178582612179565b60408051848152602081018390528151600160a060020a0388169233927f623b3804fa71d67900d064613da8f94b9617215ee90799290593e1745087ad18929081900390910190a3610c6883612212565b5050505050565b60008054600160a060020a03163314610c8757600080fd5b8151835114610c9557600080fd5b5060005b8251816001011015610cfc578281600101815181101515610cb657fe5b906020019060200201516001608060020a03168382815181101515610cd757fe5b602090810290910101516001608060020a031611610cf457600080fd5b600101610c99565b8251610d0f906012906020860190612915565b508151610d239060139060208501906129c9565b50505050565b60146020526000908152604090205481565b601b5460ff1681565b60155481565b6012805482908110610d5857fe5b9060005260206000209060029182820401919006601002915054906101000a90046001608060020a031681565b60008054600160a060020a03163314610d9d57600080fd5b8151835114610dab57600080fd5b5060005b8251816001011015610e0c578281600101815181101515610dcc57fe5b9060200190602002015163ffffffff168382815181101515610dea57fe5b6020908102909101015163ffffffff1610610e0457600080fd5b600101610daf565b8251610e1f9060109060208601906129c9565b508151610d239060119060208501906129c9565b6013805482908110610e4157fe5b9060005260206000209060089182820401919006600402915054906101000a900463ffffffff1681565b6010545b90565b604081565b6003805482908110610e8557fe5b600091825260209091200154600160a060020a038116915060a060020a90046bffffffffffffffffffffffff1682565b60075481565b60165481565b60065481565b6000806000806000806000806000896000815181101515610ee457fe5b602090810290910101518a519099508a906001908110610f0057fe5b602090810290910101518a519098508a906002908110610f1c57fe5b602090810290910101518a519097508a906003908110610f3857fe5b602090810290910101518a519096508a906004908110610f5457fe5b602090810290910101518a519095508a906005908110610f7057fe5b602090810290910101518a519094508a906006908110610f8c57fe5b602090810290910101518a519093508a906007908110610fa857fe5b602090810290910101518a519092508a906008908110610fc457fe5b60209081029091010151905088881015610fdd57600080fd5b60008711610fea57600080fd5b60008611610ff757600080fd5b6000851161100457600080fd5b6000841161101157600080fd5b600160a060020a038316151561102657600080fd5b600160a060020a038216151561103b57600080fd5b600160a060020a038116151561105057600080fd5b600598909855600696909655600794909455600b92909255600c55600955600d8054600160a060020a0392831673ffffffffffffffffffffffffffffffffffffffff1991821617909155600480549383166101000274ffffffffffffffffffffffffffffffffffffffff001990941693909317909255600e805491909316911617905550565b600b5481565b601954601a5460009160a060020a900460ff16146110f957600080fd5b601a8054429190600019810190811061110e57fe5b6000918252602090912060039091020160020154640100000000900463ffffffff1610919050565b600054600160a060020a0316331461114d57600080fd5b60045460ff16151561115e57600080fd5b6004805460ff191690556040517f7805862f689e2f13df9f062ff482ad3ad112aca9e0847911ed832e158c525b3390600090a1565b600c5481565b60085481565b600054600160a060020a031633146111b657600080fd5b600a5460ff16156111c657600080fd5b6111ce611daa565b15156111d957600080fd5b6111e1612294565b6040517f6823b073d48d6e3a7d385eeb601452d680e74bb46afe3255a7d778f3a9b1768190600090a1600a805460ff19166001179055565b60125490565b6010805482908110610e4157fe5b600061124f61123a611285565b6112438461133a565b9063ffffffff61216716565b92915050565b600e54600160a060020a031681565b60045460ff1681565b60186020526000908152604090205481565b60035490565b600080600554421015151561129957600080fd5b5060005b6010548110156113205760108054829081106112b557fe5b6000918252602090912060088204015460079091166004026101000a900463ffffffff1642116113185760118054829081106112ed57fe5b6000918252602090912060088204015460079091166004026101000a900463ffffffff169150611325565b60010161129d565b600091505b5090565b60055481565b600c54600854101590565b6000805b6012548110156113c457601280548290811061135657fe5b6000918252602090912060028204015460019091166010026101000a90046001608060020a031683106113bc57601380548290811061139157fe5b6000918252602090912060088204015460079091166004026101000a900463ffffffff1691506113c9565b60010161133e565b600091505b50919050565b600054600160a060020a031633146113e657600080fd5b60045460ff16156113f657600080fd5b6004805460ff191660011790556040517f6985a02210a168e66602d3235cb6db0e70f92b3ba4d376a33c0f3d9434bff62590600090a1565b601a80548290811061143c57fe5b60009182526020909120600390910201805460018201546002909201546001608060020a038083169450608060020a92839004811693818116939004169063ffffffff8082169164010000000081049091169068010000000000000000900460ff1687565b601954601a5460a060020a90910460ff16906000908190156114c257600080fd5b8851831480156114d25750875183145b80156114de5750865183145b80156114ea5750855183145b80156114f65750845183145b80156115025750835183145b151561150d57600080fd5b600091505b8282101561179a57888281518110151561152857fe5b9060200190602002015163ffffffff16888381518110151561154657fe5b6020908102909101015163ffffffff16101561156157600080fd5b868281518110151561156f57fe5b602090810290910101516001608060020a0316156115d3576115cc6001546115c0898581518110151561159e57fe5b60209081029091010151600b54906001608060020a031663ffffffff6122b816565b9063ffffffff6122e116565b90506115d7565b5060005b601a60e060405190810160405280836001608060020a03168152602001888581518110151561160257fe5b906020019060200201516001608060020a03168152602001878581518110151561162857fe5b906020019060200201516001608060020a0316815260200160006001608060020a031681526020018b8581518110151561165e57fe5b9060200190602002015163ffffffff1681526020018a8581518110151561168157fe5b9060200190602002015163ffffffff16815260200186858151811015156116a457fe5b602090810291909101810151151590915282546001808201855560009485529382902083516003909202018054928401516fffffffffffffffffffffffffffffffff199384166001608060020a03938416178316608060020a91841682021782556040850151828701805460608801519616918516919091178416949093160292909217905560808201516002909101805460a084015160c09094015163ffffffff1990911663ffffffff9384161767ffffffff00000000191664010000000093909416929092029290921768ff0000000000000000191668010000000000000000911515919091021790559190910190611512565b6117a26122f6565b15156117ad57600080fd5b505050505050505050565b60015481565b600a5460ff1681565b600054600160a060020a031681565b6000806117e1612a74565b60019150600092505b601a5460ff841610156118ce57601a805460ff851690811061180857fe5b60009182526020918290206040805160e08101825260039390930290910180546001608060020a038082168552608060020a91829004811695850195909552600182015480861693850193909352909104909216606082015260029091015463ffffffff80821660808401819052640100000000830490911660a08401526801000000000000000090910460ff16151560c083015290915042108015906118b957508060a0015163ffffffff164211155b156118c3576118d3565b6001909201916117ea565b600091505b509091565b60095481565b601954604080517fad1def42000000000000000000000000000000000000000000000000000000008152600160a060020a0384811660048301529151600093929092169163ad1def429160248082019260209290919082900301818787803b15801561194957600080fd5b505af115801561195d573d6000803e3d6000fd5b505050506040513d602081101561197357600080fd5b505192915050565b600a5460ff16151561198c57600080fd5b61199461132f565b1561199e57600080fd5b600d54604080517ffa89401a0000000000000000000000000000000000000000000000000000000081523360048201529051600160a060020a039092169163fa89401a9160248082019260009290919082900301818387803b158015611a0357600080fd5b505af1158015610d23573d6000803e3d6000fd5b60175481565b6004546101009004600160a060020a031681565b60195460a060020a900460ff1681565b60008054600160a060020a03163314611a5957600080fd5b600a5460ff161515611a6a57600080fd5b604080517f70a082310000000000000000000000000000000000000000000000000000000081523060048201529051600160a060020a038416916370a082319160248083019260209291908290030181600087803b158015611acb57600080fd5b505af1158015611adf573d6000803e3d6000fd5b505050506040513d6020811015611af557600080fd5b505160008054604080517fa9059cbb000000000000000000000000000000000000000000000000000000008152600160a060020a0392831660048201526024810185905290519394509085169263a9059cbb92604480840193602093929083900390910190829087803b158015611b6b57600080fd5b505af1158015611b7f573d6000803e3d6000fd5b505050506040513d6020811015611b9557600080fd5b5050604080518281529051600160a060020a038416917f4d7f917f6b905f28ba5297e6c224a6cfec20ac6a3698a55b412d30b95ad25d2f919081900360200190a25050565b6011805482908110610e4157fe5b600080548190600160a060020a03163314611c0257600080fd5b600254610100900460ff1615611c1757600080fd5b60035415611c2457600080fd5b83511515611c3157600080fd5b835160401015611c4057600080fd5b8251845114611c4e57600080fd5b5060005b83518160ff161015611d86578351600090859060ff8416908110611c7257fe5b60209081029091010151600160a060020a031614611d435760036040805190810160405280868460ff16815181101515611ca857fe5b90602001906020020151600160a060020a03168152602001858460ff16815181101515611cd157fe5b60209081029091018101516bffffffffffffffffffffffff9081169092528354600181018555600094855293819020835194018054939091015190911660a060020a02600160a060020a0393841673ffffffffffffffffffffffffffffffffffffffff19909316929092179092161790555b611d7c838260ff16815181101515611d5757fe5b6020908102909101015183906bffffffffffffffffffffffff1663ffffffff61216716565b9150600101611c52565b600154821115611d9557600080fd5b50506002805461ff0019166101001790555050565b600b5460085460009111158080611dc2575060065442115b91505090565b600054600160a060020a03163314611ddf57600080fd5b600160a060020a0381161515611df457600080fd5b60008054604051600160a060020a03808516939216917f8be0079c531659141344cd1fd0a4f28419497f9722a3daafe3b4186f6b6457e091a36000805473ffffffffffffffffffffffffffffffffffffffff1916600160a060020a0392909216919091179055565b60025460ff1681565b600d54600160a060020a031681565b60175433600090815260186020526040812054909182914391611e9d919063ffffffff61216716565b109050808015611dc25750611dc26123b1565b600080600080611ebe612a74565b6000869450611ecb6117d6565b9094509250821515611edc57600080fd5b601a805460ff8616908110611eed57fe5b60009182526020918290206040805160e081018252600390930290910180546001608060020a038082168552608060020a91829004811695850195909552600182015480861693850193909352909104909216606082015260029091015463ffffffff808216608084015264010000000082041660a083015260ff680100000000000000009091041615801560c0830152909250611f9957611f8e886118de565b1515611f9957600080fd5b60408201516001608060020a0316851015611fb357600080fd5b60208201516001608060020a031615801590611fdb575081602001516001608060020a031685115b15611ff15781602001516001608060020a031694505b600082600001516001608060020a03161115612060576060820151612025906001608060020a03168663ffffffff61216716565b82519091506001608060020a0316811115612060576060820151825161205d916001608060020a03918216911663ffffffff61207616565b94505b61206a88866123cb565b98975050505050505050565b60008282111561208257fe5b50900390565b60008060006120956117d6565b90935091508115156120a657600080fd5b601a805460ff85169081106120b757fe5b6000918252602090912060039091020160018101549091506120ea908590608060020a90046001608060020a0316612167565b6001820180546001608060020a03928316608060020a029216919091179055610c688585612443565b60008060006121218461122d565b60015490925061214d906115c061213e828663ffffffff61216716565b6007549063ffffffff6122b816565b905061215f848263ffffffff6122b816565b949350505050565b8181018281101561124f57fe5b505050565b600f54604080517f827f32c0000000000000000000000000000000000000000000000000000000008152600160a060020a038581166004830152602482018590529151919092169163827f32c09160448083019260209291908290030181600087803b1580156121e857600080fd5b505af11580156121fc573d6000803e3d6000fd5b505050506040513d6020811015610d2357600080fd5b600d54604080517ff340fa010000000000000000000000000000000000000000000000000000000081523360048201529051600160a060020a039092169163f340fa01918491602480830192600092919082900301818588803b15801561227857600080fd5b505af115801561228c573d6000803e3d6000fd5b505050505050565b61229c61132f565b156122ae576122a9612463565b6122b6565b6122b6612590565b565b60008215156122c95750600061124f565b508181028183828115156122d957fe5b041461124f57fe5b600081838115156122ee57fe5b049392505050565b601954601a54600091829160a060020a90910460ff161461231a5760009150611325565b5060005b601a546000190160ff821610156123a957601a805460ff600184011690811061234357fe5b6000918252602090912060026003909202010154601a805463ffffffff9092169160ff841690811061237157fe5b6000918252602090912060039091020160020154640100000000900463ffffffff16106123a15760009150611325565b60010161231e565b600191505090565b60165460009034108015908190611dc25750611dc26125e3565b6000806123d88484612613565b601554600160a060020a03861660009081526014602052604090205491925090612408908363ffffffff61216716565b111561243c57600160a060020a0384166000908152601460205260409020546015546124399163ffffffff61207616565b90505b9392505050565b33600090815260186020526040902043905561245f8282612661565b5050565b6000806124866009546115c060015461247a6126ab565b9063ffffffff6122b816565b915061249061273b565b905061249c818361274a565b6124a46122b6565b600460019054906101000a9004600160a060020a0316600160a060020a0316630f15f4c06040518163ffffffff1660e060020a028152600401600060405180830381600087803b1580156124f757600080fd5b505af115801561250b573d6000803e3d6000fd5b50505050600d60009054906101000a9004600160a060020a0316600160a060020a03166343d726d66040518163ffffffff1660e060020a028152600401600060405180830381600087803b15801561256257600080fd5b505af1158015612576573d6000803e3d6000fd5b5050600e5461245f9250600160a060020a03169050612890565b600d60009054906101000a9004600160a060020a0316600160a060020a0316638c52dc416040518163ffffffff1660e060020a028152600401600060405180830381600087803b158015611a0357600080fd5b600080600060055442101580156125fc57506006544211155b91505034151581801561260c5750805b9250505090565b600080600061262d8460085461216790919063ffffffff16565b9050600b5481111561265557600854600b5461264e9163ffffffff61207616565b9150612659565b8391505b509392505050565b600160a060020a03821660009081526014602052604090205461268a908263ffffffff61216716565b600160a060020a03831660009081526014602052604090205561245f828282565b600f54604080517f18160ddd0000000000000000000000000000000000000000000000000000000081529051600092600160a060020a0316916318160ddd91600480830192602092919082900301818787803b15801561270a57600080fd5b505af115801561271e573d6000803e3d6000fd5b505050506040513d602081101561273457600080fd5b5051905090565b600f54600160a060020a031690565b600254600090819060ff16156127c157604080517f08c379a000000000000000000000000000000000000000000000000000000000815260206004820152601360248201527f416c726561647920646973747269627574656400000000000000000000000000604482015290519081900360640190fd5b6002805460ff19166001179055600091505b60035460ff83161015612861576128236001546115c060038560ff168154811015156127fb57fe5b600091825260209091200154869060a060020a90046bffffffffffffffffffffffff166122b8565b90506128568460038460ff1681548110151561283b57fe5b600091825260209091200154600160a060020a03168361290b565b6001909101906127d3565b6040517fb8b570f14eb44ed11fb6b2ac2ff61ceb5b29da5ae60d33184ae20b08f3a47c8990600090a150505050565b600f54604080517f3cebb823000000000000000000000000000000000000000000000000000000008152600160a060020a03848116600483015291519190921691633cebb82391602480830192600092919082900301818387803b1580156128f757600080fd5b505af1158015610c68573d6000803e3d6000fd5b6121748282612179565b828054828255906000526020600020906001016002900481019282156129bd5791602002820160005b8382111561298857835183826101000a8154816001608060020a0302191690836001608060020a031602179055509260200192601001602081600f0104928301926001030261293e565b80156129bb5782816101000a8154906001608060020a030219169055601001602081600f01049283019260010302612988565b505b50611325929150612ab0565b82805482825590600052602060002090600701600890048101928215612a685791602002820160005b83821115612a3657835183826101000a81548163ffffffff021916908363ffffffff16021790555092602001926004016020816003010492830192600103026129f2565b8015612a665782816101000a81549063ffffffff0219169055600401602081600301049283019260010302612a36565b505b50611325929150612add565b6040805160e081018252600080825260208201819052918101829052606081018290526080810182905260a0810182905260c081019190915290565b610e6f91905b808211156113255780546fffffffffffffffffffffffffffffffff19168155600101612ab6565b610e6f91905b8082111561132557805463ffffffff19168155600101612ae35600a165627a7a7230582019e37dc937e4ea02dff9dc151da6841ee18a4a58d3795f4b7f06caa91dc957e80029",
  "source": "pragma solidity^0.4.18;\n\nimport \"../crowdsale/BaseCrowdsale.sol\";\nimport \"../crowdsale/MiniMeBaseCrowdsale.sol\";\nimport \"../crowdsale/BonusCrowdsale.sol\";\nimport \"../crowdsale/PurchaseLimitedCrowdsale.sol\";\nimport \"../crowdsale/MinimumPaymentCrowdsale.sol\";\nimport \"../crowdsale/BlockIntervalCrowdsale.sol\";\nimport \"../crowdsale/KYCCrowdsale.sol\";\nimport \"../crowdsale/StagedCrowdsale.sol\";\n\ncontract SampleProjectCrowdsale is BaseCrowdsale, MiniMeBaseCrowdsale, BonusCrowdsale,\n  PurchaseLimitedCrowdsale, MinimumPaymentCrowdsale, BlockIntervalCrowdsale, KYCCrowdsale, StagedCrowdsale {\n\n  bool public initialized;\n\n  // constructor parameters are left padded bytes32.\n\n  function SampleProjectCrowdsale(bytes32[7] args)\n    BaseCrowdsale(\n      parseUint(args[0]))\n    MiniMeBaseCrowdsale(\n      parseAddress(args[1]))\n    BonusCrowdsale()\n    PurchaseLimitedCrowdsale(\n      parseUint(args[2]))\n    MinimumPaymentCrowdsale(\n      parseUint(args[3]))\n    BlockIntervalCrowdsale(\n      parseUint(args[4]))\n    KYCCrowdsale(\n      parseAddress(args[5]))\n    StagedCrowdsale(\n      parseUint(args[6])) public {} // solium-disable-line indentation\n\n\n  function parseBool(bytes32 b) internal pure returns (bool) {\n    return b == 0x1;\n  }\n\n  function parseUint(bytes32 b) internal pure returns (uint) {\n    return uint(b);\n  }\n\n  function parseAddress(bytes32 b) internal pure returns (address) {\n    return address(b & 0x000000000000000000000000ffffffffffffffffffffffffffffffffffffffff);\n  }\n\n  function generateHoldersTokens(uint256 _targetTotalSupply) internal {\n  }\n\n  function init(bytes32[] args) public {\n    uint _startTime = uint(args[0]);\n    uint _endTime = uint(args[1]);\n    uint _rate = uint(args[2]);\n    uint _cap = uint(args[3]);\n    uint _goal = uint(args[4]);\n    uint _crowdsaleRatio = uint(args[5]);\n    address _vault = address(args[6]);\n    address _locker = address(args[7]);\n    address _nextTokenOwner = address(args[8]);\n\n    require(_endTime >= _startTime);\n    require(_rate > 0);\n    require(_cap > 0);\n    require(_goal > 0);\n    require(_crowdsaleRatio > 0);\n    require(_vault != address(0));\n    require(_locker != address(0));\n    require(_nextTokenOwner != address(0));\n\n    startTime = _startTime;\n    endTime = _endTime;\n    rate = _rate;\n    cap = _cap;\n    goal = _goal;\n    crowdsaleRatio = _crowdsaleRatio;\n    vault = MultiHolderVault(_vault);\n    locker = Locker(_locker);\n    nextTokenOwner = _nextTokenOwner;\n  }\n}\n",
  "sourcePath": "/Users/pjh/workspace/rbg-crowdsale/project/contracts/base/mock/SampleProjectCrowdsale.sol",
  "compiler": {
    "name": "solc",
    "version": "0.4.24+commit.e67f0147.Emscripten.clang"
  },
  "schemaVersion": "2.0.0",
  "updatedAt": "2018-06-07T12:04:18.303Z"
}