{
  "contractName": "SecureTargetBounty",
  "abi": [
    {
      "constant": true,
      "inputs": [],
      "name": "totalPayments",
      "outputs": [
        {
          "name": "",
          "type": "uint256"
        }
      ],
      "payable": false,
      "stateMutability": "view",
      "type": "function"
    },
    {
      "constant": true,
      "inputs": [
        {
          "name": "",
          "type": "address"
        }
      ],
      "name": "researchers",
      "outputs": [
        {
          "name": "",
          "type": "address"
        }
      ],
      "payable": false,
      "stateMutability": "view",
      "type": "function"
    },
    {
      "constant": false,
      "inputs": [
        {
          "name": "target",
          "type": "address"
        }
      ],
      "name": "claim",
      "outputs": [],
      "payable": false,
      "stateMutability": "nonpayable",
      "type": "function"
    },
    {
      "constant": false,
      "inputs": [],
      "name": "withdrawPayments",
      "outputs": [],
      "payable": false,
      "stateMutability": "nonpayable",
      "type": "function"
    },
    {
      "constant": false,
      "inputs": [],
      "name": "destroy",
      "outputs": [],
      "payable": false,
      "stateMutability": "nonpayable",
      "type": "function"
    },
    {
      "constant": true,
      "inputs": [],
      "name": "owner",
      "outputs": [
        {
          "name": "",
          "type": "address"
        }
      ],
      "payable": false,
      "stateMutability": "view",
      "type": "function"
    },
    {
      "constant": false,
      "inputs": [],
      "name": "createTarget",
      "outputs": [
        {
          "name": "",
          "type": "address"
        }
      ],
      "payable": false,
      "stateMutability": "nonpayable",
      "type": "function"
    },
    {
      "constant": true,
      "inputs": [
        {
          "name": "",
          "type": "address"
        }
      ],
      "name": "payments",
      "outputs": [
        {
          "name": "",
          "type": "uint256"
        }
      ],
      "payable": false,
      "stateMutability": "view",
      "type": "function"
    },
    {
      "constant": true,
      "inputs": [],
      "name": "claimed",
      "outputs": [
        {
          "name": "",
          "type": "bool"
        }
      ],
      "payable": false,
      "stateMutability": "view",
      "type": "function"
    },
    {
      "constant": false,
      "inputs": [
        {
          "name": "newOwner",
          "type": "address"
        }
      ],
      "name": "transferOwnership",
      "outputs": [],
      "payable": false,
      "stateMutability": "nonpayable",
      "type": "function"
    },
    {
      "constant": false,
      "inputs": [
        {
          "name": "_recipient",
          "type": "address"
        }
      ],
      "name": "destroyAndSend",
      "outputs": [],
      "payable": false,
      "stateMutability": "nonpayable",
      "type": "function"
    },
    {
      "payable": true,
      "stateMutability": "payable",
      "type": "fallback"
    },
    {
      "anonymous": false,
      "inputs": [
        {
          "indexed": false,
          "name": "createdAddress",
          "type": "address"
        }
      ],
      "name": "TargetCreated",
      "type": "event"
    },
    {
      "anonymous": false,
      "inputs": [
        {
          "indexed": true,
          "name": "previousOwner",
          "type": "address"
        },
        {
          "indexed": true,
          "name": "newOwner",
          "type": "address"
        }
      ],
      "name": "OwnershipTransferred",
      "type": "event"
    }
  ],
  "bytecode": "0x608060405260028054600160a060020a03191633179055610712806100256000396000f3006080604052600436106100ad5763ffffffff7c01000000000000000000000000000000000000000000000000000000006000350416625b448781146100d757806301bc237d146100fe5780631e83409a1461013b5780636103d70b1461015c57806383197ef0146101715780638da5cb5b14610186578063c98165b61461019b578063e2982c21146101b0578063e834a834146101d1578063f2fde38b146101fa578063f5074f411461021b575b60025474010000000000000000000000000000000000000000900460ff16156100d557600080fd5b005b3480156100e357600080fd5b506100ec61023c565b60408051918252519081900360200190f35b34801561010a57600080fd5b5061011f600160a060020a0360043516610242565b60408051600160a060020a039092168252519081900360200190f35b34801561014757600080fd5b506100d5600160a060020a036004351661025d565b34801561016857600080fd5b506100d5610355565b34801561017d57600080fd5b506100d56103d4565b34801561019257600080fd5b5061011f6103f9565b3480156101a757600080fd5b5061011f610408565b3480156101bc57600080fd5b506100ec600160a060020a0360043516610484565b3480156101dd57600080fd5b506101e6610496565b604080519115158252519081900360200190f35b34801561020657600080fd5b506100d5600160a060020a03600435166104b7565b34801561022757600080fd5b506100d5600160a060020a036004351661054c565b60015481565b600360205260009081526040902054600160a060020a031681565b600160a060020a038082166000908152600360205260409020541680151561028457600080fd5b81600160a060020a031663e79487da6040518163ffffffff167c0100000000000000000000000000000000000000000000000000000000028152600401602060405180830381600087803b1580156102db57600080fd5b505af11580156102ef573d6000803e3d6000fd5b505050506040513d602081101561030557600080fd5b50511561031157600080fd5b61031c81303161056f565b50506002805474ff0000000000000000000000000000000000000000191674010000000000000000000000000000000000000000179055565b3360008181526020819052604090205480151561037157600080fd5b303181111561037f57600080fd5b600154610392908263ffffffff6105cb16565b600155600160a060020a0382166000818152602081905260408082208290555183156108fc0291849190818181858888f1935050505015156103d057fe5b5050565b600254600160a060020a031633146103eb57600080fd5b600254600160a060020a0316ff5b600254600160a060020a031681565b6000806104136105dd565b600160a060020a038116600081815260036020908152604091829020805473ffffffffffffffffffffffffffffffffffffffff191633179055815192835290519293507fe62d909feaad4aecbcea8fef32a9b41552373e45f5acb7ce7fc0a997180e7ae592918290030190a1919050565b60006020819052908152604090205481565b60025474010000000000000000000000000000000000000000900460ff1681565b600254600160a060020a031633146104ce57600080fd5b600160a060020a03811615156104e357600080fd5b600254604051600160a060020a038084169216907f8be0079c531659141344cd1fd0a4f28419497f9722a3daafe3b4186f6b6457e090600090a36002805473ffffffffffffffffffffffffffffffffffffffff1916600160a060020a0392909216919091179055565b600254600160a060020a0316331461056357600080fd5b80600160a060020a0316ff5b600160a060020a038216600090815260208190526040902054610598908263ffffffff61060916565b600160a060020a0383166000908152602081905260409020556001546105c4908263ffffffff61060916565b6001555050565b6000828211156105d757fe5b50900390565b60006105e761061f565b604051809103906000f080158015610603573d6000803e3d6000fd5b50905090565b60008282018381101561061857fe5b9392505050565b60405160b88061062f8339019056006080604052348015600f57600080fd5b50609a8061001e6000396000f300608060405260043610603e5763ffffffff7c0100000000000000000000000000000000000000000000000000000000600035041663e79487da81146043575b600080fd5b348015604e57600080fd5b5060556069565b604080519115158252519081900360200190f35b6001905600a165627a7a72305820dbf8bdfd9207662eef25a5a0d5a91dd3afa150573ef1e14cfa81b718cc4e38c10029a165627a7a723058209ff26d2a9c75352d553f9f8495ac1746153446ef8b7fea8176e4fca301965fa70029",
  "source": "pragma solidity ^0.4.18;\n\nimport {Bounty, Target} from \"../Bounty.sol\";\n\n\ncontract SecureTargetMock is Target {\n  function checkInvariant() public returns(bool) {\n    return true;\n  }\n}\n\n\ncontract SecureTargetBounty is Bounty {\n  function deployContract() internal returns (address) {\n    return new SecureTargetMock();\n  }\n}\n",
  "sourcePath": "/Users/pjh/workspace/rbg-crowdsale/project/contracts/base/zeppelin/mocks/SecureTargetBounty.sol",
  "compiler": {
    "name": "solc",
    "version": "0.4.24+commit.e67f0147.Emscripten.clang"
  },
  "schemaVersion": "2.0.0",
  "updatedAt": "2018-06-03T08:58:08.957Z"
}